:020000040800F2
:100000007806002021020008290200082B020008BF
:100010002D0200082F020008310200080000000035
:100020000000000000000000000000003302000893
:1000300035020008000000003702000839020008FD
:100040003B0200083B0200083B0200083B0200089C
:100050003B0200083B0200083B0200083B0200088C
:1000600021060008790600083B0200083B02000850
:100070003B0200083B0200083B0200083B0200086C
:100080003B0200083B0200083B02000800000000A1
:10009000000000000000000000000000D106000881
:1000A0003B0200083B0200083B0200083B0200083C
:1000B0003B0200083B0200083B0200083B0200082C
:1000C0003B0200083B0200083B0200083B0200081C
:1000D0003B0200083B0200083B0200080000000051
:1000E000D10400083B0200083B02000800000000A9
:1000F0000000000000000000000000003B020008BB
:10010000000000003B0200083B0200083B02000820
:1001100000000000000000000000000000000000DF
:100120003B0200083B0200083B0200083B020008BB
:100130003B0200080000000000000000000000007A
:100140000000000000000000000000003B0200086A
:100150003B0200083B0200083B0200083B0200088B
:100160003B0200083B020008000000000000000005
:10017000000000000000000000000000000000007F
:10018000000000003B02000800000000000000002A
:100190003B02000800F002F800F033F80AA090E8F3
:1001A000000C82448344AAF10107DA4501D100F032
:1001B00028F8AFF2090EBAE80F0013F0010F18BFCC
:1001C000FB1A43F001031847340A0000440A0000F8
:1001D0000023002400250026103A28BF78C1FBD850
:1001E000520728BF30C148BF0B607047642900F038
:1001F0007F80002070471FB500F0F0FC1FBD10B5D8
:1002000010BD00F02AF91146FFF7F5FF00F09EFC43
:1002100000F048F903B4FFF7F2FF03BC00F050F917
:100220000948804709480047FEE7FEE7FEE7FEE78A
:10023000FEE7FEE7FEE7FEE7FEE7FEE704480549C6
:10024000054A064B704700004D090008950100085B
:100250007800002078060020780200207802002034
:100260000FB41CB5074B06AA7B446946009005985D
:1002700000F0DBF80020694600F0EAF81CBC5DF8ED
:1002800014FB0000E50100002DE9F0410E46044694
:10029000002020622046E168884730B3252805D039
:1002A000D4E901219047206A401CF2E7E16820462A
:1002B00000278847050018D0A5F14100192802D869
:1002C00020354FF400673246294620462760FFF765
:1002D0008DFF40B1012804D0F61D26F00706083630
:1002E000D8E7361DD6E72846DAE7206ABDE8F08170
:1002F0002DE9F0410646002410687529314616A5FF
:1003000010D0AFF30080002802DA404213A507E0C6
:1003100031688A0701D512A502E0490704D511A565
:10032000012401E0AFF3008000210A2206F1240736
:1003300009E0B0FBF2FCB0FBF2F302FB1C00303032
:1003400078541846491C0028F3D123462A463046E3
:10035000BDE8F04100F00BB8000000002D000000E7
:100360002B000000200000007047704770472DE907
:10037000F0470D4699469246044600F1240801686C
:10038000880604D5E06921F01001216000E0012019
:10039000A84201DD471B00E00027A1697A1902EBA2
:1003A0000900081AA0612078C00602D42046AFF3E5
:1003B0000080002608E0D4E901211AF806009047E1
:1003C000206A401C761C20624E45F4DB2078C00673
:1003D0000AD52046AFF3008006E0D4E901213020A1
:1003E0009047206A401C2062381EA7F10107F4DC08
:1003F00007E0D4E9012118F805009047206A401C65
:100400002062281EA5F10105F3DC2046AFF3008031
:100410002078000602D50220BDE8F0870120FBE726
:1004200001694A1C02610878704700B58FB0CDE9B8
:1004300001310021059105497944CDE903101146A8
:100440006846FFF721FF0FB000BD0000E5FFFFFF8A
:100450000A6802F8010B0A607047754600F02CF834
:10046000AE4605006946534620F00700854618B0A1
:1004700020B5FFF7E3FEBDE820404FF000064FF047
:1004800000074FF000084FF0000BAC46ACE8C00985
:10049000ACE8C009ACE8C009ACE8C00921F007012C
:1004A0008D46704710B50446AFF300802046BDE886
:1004B0001040FFF7AFBE000000487047000000206A
:1004C00001491820ABBEFEE726000200704700007D
:1004D00010B540F61001C4F2020100BF086810F424
:1004E000406F01D000BFF9E743F61440C4F20100A9
:1004F0004968026840F2600401F47041B2F5806F0F
:10050000C2F2000408BFB1F5805F05D1312222702C
:10051000026842F480620260B1F5005F026808BFC1
:10052000B2F5806F05D132222270026842F48062F7
:100530000260B1F5804F026808BFB2F5806F05D147
:1005400033222270026842F480620260B1F5004FEB
:10055000026808BFB2F5806F05D12D2222700268B3
:1005600042F480620260B1F5805F026808BFB2F5B4
:10057000006F05D121222270026842F400620260FD
:10058000B1F5005F026808BFB2F5006F05D13022F7
:100590002270026842F400620260B1F5804F026886
:1005A00008BFB2F5006F05D13D222270026842F407
:1005B00000620260B1F5004F026808BFB2F5006F3B
:1005C00005D12B212170016841F400610160207880
:1005D00021281ED1012000F001F900F0D9FA40F2E3
:1005E0006800C2F200000021016040F26C00C2F21B
:1005F0000000016040F26400C2F20000016040F2BD
:100600007000C2F20000017040F27400C2F20000FB
:100610000160207800F0C4F9282000F0A1F910BD95
:10062000B0B59AB0012000F0D9F800F0B1FA40F26C
:100630007400C2F20000016801AC4A1C40F6F631B9
:100640000260C0F600012046FFF70AFE002500BF49
:10065000605D20B100F0DCF80135652DF8D143F67E
:100660001440C4F20100016841F002010160082059
:1006700000F076F91AB0B0BDB0B59AB0012000F024
:10068000ADF800F085FA40F27400C2F20000016893
:1006900001AC4A1E40F6F6310260C0F60001204669
:1006A000FFF7DEFD002500BF605D20B100F0B0F86F
:1006B0000135652DF8D143F61440C4F201000168FC
:1006C00041F004010160092000F04AF91AB0B0BD00
:1006D00080B540F61001C4F2020100BF086810F4B2
:1006E000407F01D000BFF9E743F61440C4F2010097
:1006F0004968036801F4704240F26001B3F5807FFD
:10070000C2F2000108BFB2F5805F05D137230B703C
:10071000036843F480730360B2F5005F036808BFA9
:10072000B3F5807F05D138230B70036843F48073E1
:100730000360B2F5804F036808BFB3F5807F05D131
:1007400039230B70036843F480730360B2F5004FE4
:10075000036808BFB3F5807F05D12F230B700368B2
:1007600043F480730360B2F5805F036808BFB3F59C
:10077000007F05D134230B70036843F400730360DA
:10078000B2F5005F036808BFB3F5007F05D13523DC
:100790000B70036843F400730360B2F5804F036885
:1007A00008BFB3F5007F05D136230B70036843F40F
:1007B00000730360B2F5004F036808BFB3F5007F14
:1007C00005D12A220A70026842F400720260087899
:1007D00000F0E6F8172000F0C3F880BDB0B540F295
:1007E00018450446C4F202054FF4C000286080207A
:1007F000C5F8FC432860002000F09CF94FF400008D
:1008000028600120042C38BF022000F093F9B0BD0D
:1008100010B540F21844C4F20204202121604FF4C4
:1008200080012160C4F8FC0380202060002000F0DB
:1008300081F94FF400002060012000F07BF910BD29
:1008400080B500F01FF81E2000F074F93020FFF78B
:10085000C5FF0A2000F06EF93020FFF7BFFF01202E
:1008600000F068F93020FFF7B9FF3820FFF7B6FF36
:100870000620FFF7B3FF0120FFF7B0FF0F20FFF7BF
:10088000ADFF80BD10B543F63000C4F20200016830
:1008900040F6000441F0060101604169C4F202041F
:1008A00041F4804141614FF60040CFF6FF7021587E
:1008B00042F2222221F47C4121504FF4A8412150E0
:1008C00020684FF6FF7188432060206845F255513B
:1008D0000843206020684FF42A0140F0AA402060BD
:1008E00040F60C00C4F2020001604FF6104043F6DF
:1008F0000041CFF6FF70C4F201010A504FF470605E
:10090000086088604FF60840CFF6FF704FF48852B9
:100910000A50086840F00C000860886840F00C003D
:100920008860282000F02CF8172000F029F8082013
:1009300000F026F8092000F023F84FF61840CFF613
:10094000FF704FF44001215010BD00004EF688505A
:10095000CEF20000016841F47001016070470000B0
:10096000002848BF704700F01F01012202FA01F180
:100970004EF280224009CEF2000242F82010704769
:10098000002848BF704700F01F01012202FA01F160
:100990004EF200124009CEF2000242F820107047D9
:1009A00070B59AB0A0F130050446E8B2092810D815
:1009B00040F26400C2F200000168032900F2B7802F
:1009C000DFE801F00255626E40F26800C2F20000FA
:1009D0005EE0A4F12A0040F264050528C2F2000599
:1009E00019D8012101FA00F010F02B0F13D028685C
:1009F000012810DC01200126FFF7F0FE00F0C8F806
:100A000040F27000C2F2000004702046FFF700FFC1
:100A10002E601AB070BD3D2C40F0898028680228F5
:100A200040F08580032028600120FFF7D7FE00F00A
:100A3000AFF840F27000C2F200000078A0F12A0185
:100A400040F274000529C2F200005FD8DFE801F02F
:100A500003395E455E5140F2680140F26C02C2F219
:100A60000001C2F200020968126851434DE0022100
:100A700001600120FFF7B2FE00F08AF840F26C003E
:100A8000C2F20000056017E040F26C00C2F2000004
:100A9000016801EB810104EB4101303901600BE099
:100AA0000021016040F26800C2F2000005600120F0
:100AB000FFF794FE00F06CF82046FFF7A9FE1AB08D
:100AC00070BD40F2680140F26C02C2F20001C2F255
:100AD000000209681268114417E040F2680140F210
:100AE0006C02C2F20001C2F2000209681268891A9F
:100AF0000BE040F2680140F26C02C2F20001C2F267
:100B000000020968126891FBF2F10160026840F688
:100B1000F63101ACC0F600012046FFF7A1FB00252D
:100B2000605D20B1FFF774FE0135652DF8D11AB074
:100B300070BD00000128B8BF704700BF40F67B4180
:100B4000013900BFFCD10138F8DC704740F61404CD
:100B5000C4F20204FFF774FE00F01AF84FF4805854
:100B60004FF400564FF480474FF400450120C4F87D
:100B70000080FFF7DFFF01202660FFF7DBFF012089
:100B80002760FFF7D7FF01202560FFF7D3FFEDE7D0
:100B900080B54120FFF73CFE4D20FFF739FE49208C
:100BA000FFF736FE4E20FFF733FE4920FFF730FEF9
:100BB0002020FFF72DFE4120FFF72AFE4D20FFF7F2
:100BC00027FE4920FFF724FE4E20FFF721FE492093
:100BD000FFF71EFEC020FFF701FE80BDF1EE100AF8
:100BE0004FF6FF71C0F2C03120EA010040F04070C2
:100BF000E1EE100A70472564000000000C0C0008AC
:0C0C00000000002078060000D001000871
:040000050800019559
:00000001FF
