:020000040800F2
:10000000D80600203D020008A1190008B11400081C
:100010009D1900082D0600085D1D00080000000065
:10002000000000000000000000000000D5190008DA
:100030003106000800000000D1190008091A000864
:10004000570200085702000857020008570200082C
:10005000570200085702000857020008570200081C
:10006000570200085702000857020008570200080C
:1000700057020008570200085702000857020008FC
:10008000570200085702000857020008000000004D
:1000900000000000000000000000000057020008FF
:1000A00057020008570200085702000857020008CC
:1000B00057020008570200085702000857020008BC
:1000C00057020008570200085702000857020008AC
:1000D000570200084D1D00085702000800000000EC
:1000E00057020008570200085702000800000000ED
:1000F000000000000000000000000000570200089F
:1001000000000000570200085702000857020008CC
:1001100000000000000000000000000000000000DF
:10012000570200085702000857020008570200084B
:10013000570200080000000000000000000000005E
:10014000000000000000000000000000570200084E
:10015000570200085702000857020008570200081B
:1001600057020008570200080000000000000000CD
:10017000000000000000000000000000000000007F
:10018000000000005702000800000000000000000E
:100190005702000800F002F800F041F80AA090E8C9
:1001A000000C82448344AAF10107DA4501D100F032
:1001B00036F8AFF2090EBAE80F0013F0010F18BFBE
:1001C000FB1A43F001031847281D0000481D0000DA
:1001D000103A24BF78C878C1FAD8520724BF30C873
:1001E00030C144BF04680C60704700000023002445
:1001F00000250026103A28BF78C1FBD8520728BF37
:1002000030C148BF0B607047642900F0F7800020C0
:1002100070471FB501F052FE1FBD10B510BD00F0B4
:10022000CAF91146FFF7F5FF01F0E0FD00F0E8F92B
:1002300003B4FFF7F2FF03BC00F0F0F90948804770
:1002400009480047FEE7FEE7FEE7FEE7FEE7FEE7B8
:10025000FEE7FEE7FEE7FEE704480549054A064BD0
:1002600070470000991A000895010008D800002086
:10027000D8060020D8020020D802002053EA020C41
:1002800000F069802DE9F04B4FF00006002B1FBFF6
:10029000B3FA83F503FA05F424FA05F65E4012BFBB
:1002A0001643B2FA82F502FA05F4C5F120051EBF25
:1002B00022FA05FC44EA0C04203556EA044C4FEAC5
:1002C000144418BF641C4FF000084FF0000990421E
:1002D00071EB030C39D3002919BFB1FA81F701FA88
:1002E00007F6B0FA80F700FA07F6C7F120071EBF3D
:1002F00020FA07FC46EA0C062037B6FBF4FCA7EB15
:100300000507103F07F01F0BCBF120062CFA06F66D
:100310000CFA0BFB44BFB3460026202FA4BF5E4659
:100320004FF0000B5BEA060C08BF4FF0010B19EB16
:100330000B0948EB0608ABFB027C06FB02CC0BFB6F
:1003400003CCC01B71EB0C01C1E70B4602464146D2
:100350004846BDE8F08B13B5084318BF4FF0FF3097
:100360000146AFF30080BDE81C4070470FB41CB5D8
:10037000074B06AA7B4469460090059800F003F9F4
:100380000020694600F012F91CBC5DF814FB000067
:10039000350200002DE9F0410E460446002020629F
:1003A0002046E168884730B3252805D0D4E90121EB
:1003B0009047206A401CF2E7E16820460027884702
:1003C000050018D0A5F14100192802D820354FF4B6
:1003D00000673246294620462760FFF715FF40B1E7
:1003E000012804D0F61D26F007060836D8E7361D8A
:1003F000D6E72846DAE7206ABDE8F0812DE9F0412A
:100400000646002410687529314616A510D0AFF3B2
:100410000080002802DA404213A507E031688A070D
:1004200001D512A502E0490704D511A5012401E078
:10043000AFF3008000210A2206F1240709E0B0FB97
:10044000F2FCB0FBF2F302FB1C003030785418468B
:10045000491C0028F3D123462A463046BDE8F04126
:1004600000F032B8000000002D0000002B0000005A
:10047000200000004FF0000200B513469446964657
:10048000203922BFA0E80C50A0E80C50B1F12001A7
:10049000BFF4F7AF090728BFA0E80C5048BF0CC055
:1004A0005DF804EB890028BF40F8042B08BF7047B3
:1004B00048BF20F8022B11F0804F18BF00F8012B25
:1004C00070477047704770472DE9F0470D469946D1
:1004D0009246044600F124080168880604D5E069C4
:1004E00021F01001216000E00120A84201DD471B3E
:1004F00000E00027A1697A1902EB0900081AA0613F
:100500002078C00602D42046AFF30080002608E021
:10051000D4E901211AF806009047206A401C761C95
:1005200020624E45F4DB2078C0060AD52046AFF3A2
:10053000008006E0D4E9012130209047206A401C69
:100540002062381EA7F10107F4DC07E0D4E901219D
:1005500018F805009047206A401C2062281EA5F16B
:100560000105F3DC2046AFF300802078000602D5B9
:100570000220BDE8F0870120FBE7000001694A1C6A
:1005800002610878704700B58FB0CDE901310021D4
:10059000059105497944CDE9031011466846FFF7F6
:1005A000F9FE0FB000BD0000E5FFFFFF0A6802F88A
:1005B000010B0A607047754600F02CF8AE46050046
:1005C0006946534620F00700854618B020B5FFF76E
:1005D00043FEBDE820404FF000064FF000074FF00B
:1005E00000084FF0000BAC46ACE8C009ACE8C0090D
:1005F000ACE8C009ACE8C00921F007018D4670479E
:1006000010B50446AFF300802046BDE81040FFF768
:100610000FBE00000048704710000020014918205C
:10062000ABBEFEE72600020070470000FEE70000B8
:1006300070470000EFF3108072B600BFFEE70000C5
:1006400070B5866D044600F025F994F8351002293E
:1006500025D105462068216C026822F0160202604E
:10066000426922F08002426109B9A16C19B10168A6
:1006700021F008010160016821F00101016000BF63
:1006800020680068C0070ED000F004F9401B06285F
:10069000F6D320206065032084F835000CE080202C
:1006A0006065012008E0E06D3F2101FA00F0B060D4
:1006B000012084F835000020002184F8341070BD3A
:1006C00090F83510022909D1052180F8351000680D
:1006D000016821F00101016000207047802141651F
:1006E000012070472DE9F04F83B000F13E4202F146
:1006F000FF724FEAB22241F200070192C4F20207F0
:1007000007224FF0010E00254FF0000A4FF00008BD
:10071000B84208BF042200920AE000BF08F10108B5
:100720000AF1040AB8F1100F05F1020500F0A280E9
:100730000C680EFA08FB14EA0B09EFD04C6804F0C1
:10074000030CACF1010EBEF1010F11D80322876832
:1007500002FA05F6CA68B743AA403A438260426883
:10076000C4F3001722EA0B0207FA08F73A43426083
:10077000BCF1030F1CD0C26803238E6803FA05F78F
:10078000BA4306FA05F73A43BCF1020FC2600FD133
:100790006FF0030202EA580202440AF01C060F231B
:1007A000176A03FA06F40B69A743B3403B4313628D
:1007B000026803234F68AB409A4307F00303AB4042
:1007C0001A4317F4403F4FF0010E0260A6D00022FA
:1007D00043F644030292C4F202031A6843F600444B
:1007E00042F480421A601A68C4F2010402F48042A2
:1007F0000292029A28F003024FF6084B2244CFF6E9
:10080000FF7B52F80B300AF00C070F26BE4023EA9C
:10081000060C019B009E042B38BF1E4606FA07F704
:1008200047EA0C0342F80B3022684B6842EA09079A
:10083000DE0358BF22EA0907276062689E0342EA86
:10084000090758BF22EA09076760A268DE0242EA88
:10085000090758BF22EA0907A76043F60C47C4F20C
:1008600001073A689B0242EA090358BF22EA0903DA
:100870003B6053E703B0BDE8F08F0000006908401B
:1008800018BF012070470000002A08BF09048161D9
:100890007047000040F2D000C2F2000000687047CC
:1008A00040F2040040F2D001C2F20000C2F20001A6
:1008B00000780A68104408607047000080B543F66D
:1008C0000040C4F20200016841F400710160016857
:1008D00041F480610160016841F48071016003208E
:1008E00000F060F80F2000F005F800F02BF8002071
:1008F00080BD0000B0B540F20402C2F2000240F236
:1009000000011278C2F200014FF47A730968B3FB58
:10091000F2F20446B1FBF2F1084600F0F7FA0F2CB0
:100920004FF001050CD858B94FF0FF302146002296
:10093000002500F027F840F20800C2F20000046031
:100940002846B0BD82B0002043F640010190C4F2B9
:1009500002014A6842F480424A604A6802F48042D6
:100960000192019A0090086840F080500860086881
:1009700000F080500090009802B0704780B501F000
:10098000EFF980BD70B514460D46064601F0F8F942
:100990002946224601F006F80146304601F0F8F9F2
:1009A00070BD000080B501F005FA80BD2DE9F04171
:1009B000002800F08B8043F60808C4F202080446C1
:1009C000D8F8F8030D4600F00700884207D288F8EF
:1009D000F853D8F8F80300F00700A84276D1206851
:1009E000810717D5410705D5D8F8001041F4E0512B
:1009F000C8F80010010705D5D8F8001041F460418F
:100A0000C8F80010D8F80010A26821F0F0011143D6
:100A1000C8F80010C0073FD1D8F8F80300F007006D
:100A2000A84207D988F8F853D8F8F80300F007006F
:100A3000A8424BD12068410707D5D8F80010E268DA
:100A400021F4E0511143C8F80010000708D5D8F888
:100A50000000216920F4604040EAC100C8F80000AD
:100A600000F07EF8D8F8001041F6D662C1F3031109
:100A7000C0F60002515C40F2000220FA01F140F29F
:100A80000800C2F200000068C2F200021160FFF725
:100A900031FF0020BDE8F0816068811E022907D285
:100AA00058F8081C89015CBF0120BDE8F08110E006
:100AB000012807D158F8081C89035CBF0120BDE854
:100AC000F08106E058F8081C890702D40120BDE82F
:100AD000F081D8F8001021F003010843C8F80000A5
:100AE000FFF7D8FE064641F2883700BFD8F800006D
:100AF000616800F00C00B0EB810F8DD0FFF7CAFEEB
:100B0000801BB842F2D90320BDE8F08140F200001A
:100B1000C2F200000068704780B5FFF7F7FF43F6A8
:100B20000801C4F20201096841F6E662C1F38221BC
:100B3000C0F60002515CC84080BD000080B5FFF7E0
:100B4000E5FF43F60801C4F20201096841F6E662D6
:100B5000C1F34231C0F60002515CC84080BD0000C4
:100B600010B543F60404C4F20204606800F00C00FF
:100B700008280AD0042819BF42F20040C0F2F4004D
:100B800047F64000C0F27D1010BD20682168236840
:100B9000490247F64001C0F27D1100F03F02C3F365
:100BA00088105CBF42F20041C0F2F401A1FB0001D9
:100BB0000023FFF763FB21680222C1F3014102EB2E
:100BC0004101B0FBF1F010BD2DE9F04182B00028E9
:100BD00000F09F800446007843F60006C007C4F288
:100BE000020641D0B06800F00C00042805D130683E
:100BF000800339D56068B8BB8BE0B06800F00C00AA
:100C0000082802D170684002F1D46568B5F5803FCC
:100C100006D03068B5F5A02F06D140F480203060B2
:100C2000306840F4803005E020F480303060306877
:100C300020F480203060FFF72DFE002D054610D0F7
:100C40003068800310D4FFF725FE401B6428F7D9D5
:100C500022E100BFFFF71EFE401B64284FF0030097
:100C600054D830688003F5D4207880071AD5B0684E
:100C700010F00C0F09D0B06800F00C00082840F00C
:100C80008C807068400200F188803068800702D54F
:100C9000E06801283DD13068216920F0F80040EA81
:100CA000C10030602078000737D4207840074AD44C
:100CB000A56955B3B06800F00C00082840F0A0808A
:100CC000012D26D07068E16900F480028A4220D1AB
:100CD000216A00F03F028A421BD147F6C071626A66
:100CE0000140B1EB821F14D1A16A4FF6FF73C90313
:100CF000994300F44032A1F580318A4209D1E16A7A
:100D000000F07060B0EB016F03D1002002B0BDE8CD
:100D1000F081012002B0BDE8F0816069002840F256
:100D20000000C4F247205AD00121C0F8801EFFF70E
:100D3000B1FD0546706F8007B7D4FFF7ABFD401BD0
:100D40000228F7D9A8E0306C4FF00008C0000CD49E
:100D5000CDF80480306C4FF0010840F080503064D2
:100D6000306C00F080500190019847F20007C4F207
:100D700000073868C00525D4386840F480703860B2
:100D8000FFF788FD054600BF3868C0051AD4FFF795
:100D900081FD401B0228F7D97EE0E068002851D091
:100DA0000020C4F2472001210160FFF773FD0546D2
:100DB000306880073FF56FAFFFF76CFD401B0228DE
:100DC000F6D969E0A568012D05D0306F052D4DD10C
:100DD00040F004003067306F40F001004CE000212B
:100DE000C0F8801EFFF756FD054600BF706F8007F4
:100DF0007FF55BAFFFF74EFD401B0228F6D94BE0B5
:100E00000027C4F2472700203866FFF743FD022D74
:100E100005460BD13068800156D5FFF73BFD401BDE
:100E200002284FF00300F5D970E700BF3068800159
:100E30007FF56BAFFFF72EFD401B02284FF003003C
:100E4000F4D963E70020C4F2472000210160FFF7D6
:100E500021FD0546306880077FF524AFFFF71AFDB6
:100E6000401B02284FF00300F4D94FE720F00100A7
:100E70003067306F20F004003067FFF70BFD002D66
:100E8000054641F2883713D0306F800713D4FFF73F
:100E900001FD401BB842F7D9032002B0BDE8F08144
:100EA000FFF7F8FC401BB8424FF003003FF62EAFAF
:100EB000306F8007F4D4B8F1000F3FF4F9AE306C16
:100EC00020F080503064F3E604F11C052FCD084378
:100ED00040EA8210D9034FF6FF729143A1F58031A9
:100EE00040EA05600843706001203866FFF7D2FCD5
:100EF000044600BF306880013FF507AFFFF7CAFC2A
:100F0000001B02284FF00300F4D9FFE680B500F083
:100F100063FD80BD704700007047000070B582B06F
:100F2000036804461868D9685D6900F02F02202A1A
:100F300001F0200205D122B1204600F0F3FD02B0FD
:100F400070BD5FEA007C08D005F0010E11F4907FBF
:100F50008EF001054DD1002D4BD0226B0840C1060B
:100F60003DD5012A3BD100200190186801905868B6
:100F7000019001985869400600F19A80A08DE18D9A
:100F8000E28D002A1CBF401A5FEA004102D102B084
:100F900070BD00BF216851E8031F226821F49071E1
:100FA00042E80313002BF5D1216851E8051F2268A0
:100FB00021F0010142E80513002BF5D1202184F82E
:100FC0003E100021216300BF216851E8031F226801
:100FD00021F0100142E80313002BF5D1ACE001062B
:100FE00000F1B0804006D2D5204600F08FFD02B05F
:100FF00070BDC30718BF11F4807303D0236C43F096
:101000000103236400F00406012383EA96062E43BD
:1010100003D1266C46F00206266400F0020683EA3D
:1010200056032B4303D1236C43F00403236452EA99
:101030000E0218BF0122BCF1000F04D51AB1226CB8
:1010400042F008022264226C002AA0D008408006E8
:1010500002D5204600F066FD20684069216C00F052
:10106000400001F00801401876D0204600F026FD2F
:101070002068406940066AD5206850E8050F21685D
:1010800020F0400041E80502002AF5D1A06B0028BD
:101090005DD041F6AD21C0F600010165FFF710FB00
:1010A00000283FF474AFA06B016D884702B070BD9B
:1010B000A06B016849688AB2002A3FF468AFA38D2B
:1010C0009A42BFF464AFE185C069B0F5807F30D04B
:1010D000206850E8030F216820F4807041E8030283
:1010E000002AF5D1206850E8050F216820F00100A2
:1010F00041E80502002AF5D1206850E8050F216873
:1011000020F0400041E80502002AF5D1202084F8B3
:101110003E000020206300BF206850E8030F2168D4
:1011200020F0100041E80302002AF5D1A06BFFF780
:1011300087FAA08DE18D401A81B22046FFF7EAFEC2
:1011400002B070BD204600F0D7FD02B070BD204651
:10115000FFF7E2FE02B070BD2046FFF7DDFE002083
:10116000206402B070BD0000002804BF0120704759
:1011700010B5044690F83D0028B9002084F83C00E2
:10118000204600F021F8242084F83D002068C16842
:1011900021F40051C160204600F026FD206801695D
:1011A00021F490410161416921F02A014161C16846
:1011B00041F40051C16000202021206484F83D10DA
:1011C00084F83E1010BD000080B586B00022059264
:1011D000CDE9032241F200010068C4F20101884216
:1011E0000292019201D006B080BD43F63000009219
:1011F000C4F20200436943F010034361436903F002
:1012000010030093009B0092036843F00103036006
:10121000006800F00100009000984FF4C060019059
:101220000220CDE90202032004900720059001F579
:10123000704001A9FFF756FA252000210022FFF790
:10124000A1FB2520FFF79AFB06B080BD10B590F8F2
:101250003E30202B0BD100294FF0010418BF002A8B
:1012600001D1204610BD90F83C30012B01D1022065
:1012700010BD0123002480F83C30046300F022FDFF
:10128000204610BD70B540F2C10440F27000C2F2B9
:101290000004C2F2000021460122FFF7D7FF40F20E
:1012A000B405C2F20005286868BB40F2C406C2F269
:1012B0000006306828B9012000F05AFA3068013081
:1012C00030602078A0F13001C9B209290ED800F0B1
:1012D00087FA40F2B800C2F200000168227801EB00
:1012E000810102EB4101303901600CE0632802D139
:1012F0000420286007E029680131296040F2C0011C
:10130000C2F2000108702868012813D12078A0F1EA
:101310003001092902D8022028600BE0632802D19D
:101320000420286006E040F2C001C2F2000108700B
:1013300000F09CFD2968022920D12078A0F130021C
:10134000D2B2092A0BD840F2BC01C2F200010A68ED
:1013500002EB820200EB4202303A0A600CE06528A0
:1013600004D063280AD10420286007E0481C2860C4
:10137000012000F0FDF93D2000F032FA2868032832
:1013800052D140F2C000C2F2000000786438142844
:1013900019D8DFE800F00B18181818181818181CBE
:1013A00018181818182818181818340040F2B8001F
:1013B00040F2BC01C2F20000C2F2000100680968FC
:1013C00090FBF1F026E03F2000F00AFA27E040F21F
:1013D000B80040F2BC01C2F20000C2F20001006895
:1013E0000968401A16E040F2B80040F2BC01C2F2AF
:1013F0000000C2F200010068096808440AE040F2F7
:10140000B80040F2BC01C2F20000C2F20001006864
:101410000968484340F2C801C2F20001086000F0C8
:101420000BFD2868013028602868042818BF70BDAB
:1014300040F2B800C2F200000021016040F2BC009E
:10144000C2F20000016040F2C800C2F20000016078
:1014500040F2C000C2F20000017040F2C400C2F2CB
:1014600000002960016070BD034690F83D0020280F
:101470000AD100294FF0010018BF002A00D170479F
:1014800093F83C00012801D1022070471962002026
:1014900021219A84DA84186483F83D10196883F84E
:1014A0003C00CA6842F08002CA6070477047000082
:1014B000FEE7000010B540F60004C4F20204204626
:1014C00010210022FFF7E0F9204620210122FFF73A
:1014D000DBF9204640210122FFF7D6F92046802182
:1014E0000122FFF7D1F920460121FFF7C7F90028B3
:1014F00000F0AE8020460221FFF7C0F9002800F07E
:10150000B18020460421FFF7B9F9002800F0B4802B
:1015100020460821FFF7B2F9002800F0B7802046E6
:1015200010210122FFF7B0F9204620210022FFF709
:10153000ABF9204640210122FFF7A6F92046802181
:101540000122FFF7A1F920460121FFF797F90028B2
:1015500000F0A68020460221FFF790F9002800F055
:10156000A98020460421FFF789F9002800F0AC800B
:1015700020460821FFF782F9002800F0AF802046BE
:1015800010210122FFF780F9204620210122FFF7D8
:101590007BF9204640210022FFF776F92046802182
:1015A0000122FFF771F920460121FFF767F90028B2
:1015B00000F09E8020460221FFF760F9002800F02D
:1015C000A08020460421FFF759F9002800F0A280EE
:1015D00020460821FFF752F9002800F0A480204699
:1015E00010210122FFF750F9204620210122FFF7A8
:1015F0004BF9204640210122FFF746F92046802181
:101600000022FFF741F920460121FFF737F90028B2
:1016100000F0928020460221FFF730F9002800F008
:10162000948020460421FFF729F9002800F09680D5
:1016300020460821FFF722F9002840F09780204635
:101640000821FFF71BF900284FF07300F7D08DE059
:1016500020460121FFF712F90028F9D03720C0B247
:1016600010BD00BF20460221FFF708F90028F9D07D
:101670003420C0B210BD00BF20460421FFF7FEF8A1
:101680000028F9D03120C0B210BD00BF204608218B
:10169000FFF7F4F80028F9D06320C0B210BD00BFF6
:1016A00020460121FFF7EAF80028F9D03820C0B21F
:1016B00010BD00BF20460221FFF7E0F80028F9D056
:1016C0003520C0B210BD00BF20460421FFF7D6F878
:1016D00000284FF03200F7D048E000BF2046082134
:1016E000FFF7CCF800284FF03000F7D03EE000BF05
:1016F00020460121FFF7C2F800284FF03900F7D04B
:1017000034E020460221FFF7B9F800284FF03600F8
:10171000F7D02BE020460421FFF7B0F800284FF067
:101720003300F7D022E020460821FFF7A7F8002871
:101730004FF06500F7D019E020460121FFF79EF831
:1017400000284FF06400F7D010E020460221FFF798
:1017500095F800284FF07800F7D007E020460421E4
:10176000FFF78CF800284FF06D00F7D0C0B210BD25
:101770002DE9F04140F20048C4F202080546404617
:1017800020210022FFF780F8404640210022FFF789
:101790007BF80124A8F58066A1B205F0010230466D
:1017A000EFB2FFF771F86400A0B2B0F5807F4FEAA6
:1017B0005705F1D14046802101220125FFF764F849
:1017C000002000F007FB404680210022FFF75CF874
:1017D000082F38BF0225284600F0FCFABDE8F0814A
:1017E0002DE9F04140F20048C4F2020805464046A7
:1017F000202101220127FFF747F84046402100221F
:10180000FFF742F8A8F58066B9B205F0010230464C
:10181000ECB2FFF739F87F00B8B281284FEA5405DF
:10182000F2D3404680210122FFF72EF8002000F07D
:10183000D1FA404680210022FFF726F8012000F06F
:10184000C9FABDE8F081000080B51E2000F0C2FAA0
:101850003020FFF78DFF0A2000F0BCFA3020FFF7A0
:1018600087FF012000F0B6FA3020FFF781FF382013
:10187000FFF77EFF0620FFF77BFF0120FFF778FFD1
:101880000F20FFF775FF80BD2DE9F04F87B00024D2
:1018900043F630000694CDE90444CDE902440194B6
:1018A000C4F20200016840F6000841F00401016042
:1018B0000168C4F2020801F0040101910199019448
:1018C0000168A8F5006641F001010160016800228D
:1018D00001F0010101910199019401684FF0FF0BA2
:1018E00041F0020101600068FF2100F00200019058
:1018F00001983046FEF7C8FF4046F02100224FF025
:10190000F00AFEF7C1FFA8F580652846E021002215
:10191000FEF7BAFF0F2002AFCDE902044FF0010934
:1019200040463946CDF81090FEF7DCFE3046394689
:10193000CDE902B9CDE90444FEF7D4FE404639466C
:10194000CDE902A9CDE90444FEF7CCFEE020CDE9C3
:10195000020928463946CDE90444FEF7C3FE07B024
:10196000BDE8F08F80B540F2700041F20001C2F294
:101970000000C4F2010100234FF00C0C4FF416528A
:1019800080E80E00C0E90333C0E905C3C361FFF777
:10199000EBFB002808BF80BDFEF74CFEFEE7000011
:1019A000FEE7000000F0070080F00703042B28BFCB
:1019B00004234FF0FF3C03380CFA03F338BF002038
:1019C000994381400CFA00F022EA00000843704776
:1019D0007047000070470000B0B501380024B4EB38
:1019E000106F1CBF0120B0BD4EF21005CEF20005F5
:1019F00068604FF0FF300F2100F0CAF90720AC609B
:101A000028602046B0BD000080B5FEF749FF80BDCC
:101A1000B0B592B006AC20463021FEF72BFD002574
:101A200043F640000595CDE90355CDE901550095F4
:101A3000C4F202000168022241F080510160006896
:101A400000F080500090009847F200000095C4F22A
:101A50000000016862F38F310160006800F44040CB
:101A6000009000980120099010200A9020460692CC
:101A70000C95FFF7A9F868B90F20CDE9010501A879
:101A80000021CDE903550595FEF790FF002804BF1E
:101A900012B0B0BDFEF7CEFD4EF68850CEF200007B
:101AA000016841F4700101607047000080B5806BEF
:101AB0000021C185C184FFF72FFA80BD016851E87C
:101AC000031F026821F4907142E80313002BF5D143
:101AD000016851E8051F026821F0010142E8051381
:101AE000002BF5D1016B01290AD100BF016851E833
:101AF000031F026821F0100142E80313002BF5D107
:101B0000202180F83E1000210163704780B50168F4
:101B1000CA6822F04002CA60202180F83D10FFF719
:101B2000C5FC80BD80B582B090F83E1022291ED140
:101B30008268B2F5805F02D10169002948D0816ACC
:101B4000B2F5805F07D00AB9026922B10268526813
:101B500002F07F0201E0026852680A700121826A85
:101B600011448162C18D01390A04C18501D002B0DE
:101B700080BD0168CA6822F02002CA60CA6822F4E7
:101B80008072CA604A6922F001024A61202180F80D
:101B90003E10016B012923D100210163016851E846
:101BA000031F026821F0100142E80313002BF5D156
:101BB00001680A68D20606D5002201920A680192DD
:101BC000496801910199818DFFF7A4F902B080BDA8
:101BD0000168826A49686FF35F2111800221BEE7C4
:101BE000FFF750FB02B080BD10B504460068D4E991
:101BF00002C22369016921F4405111430161626904
:101C000043EA0C01E3691143C268194349F20C63CA
:101C10009A431143C1604169A26921F4407141F2C4
:101C20000043114340F48062C4F201039A424161CF
:101C300002D1FEF783FF01E0FEF76EFFE169636802
:101C40001922B1F5004FA0FB02011CD15A00DB0F95
:101C5000FEF714FB48F21F51C5F2EB11A0FB012364
:101C60005A096FF0630302FB0300322303EBC00049
:101C7000A0FB01014FF4F87000EA111000EB021014
:101C8000C1F342111AE09A009B0FFEF7F7FA48F2EF
:101C90001F51C5F2EB11A0FB01235A096FF063033A
:101CA00002FB0300322303EB0010A0FB0101F02034
:101CB00000EA511000EB0210C1F3431122680843FF
:101CC000906010BD81628285C2850021222201645C
:101CD00080F83E20026880F83C10D06840F48070A4
:101CE000D060506940F001005061D06840F02001A0
:101CF0000020D1607047000090F83D10212923D1C9
:101D00008168B1F5805F01D1016931B1016A026872
:101D10004B1C03620978516007E0016A036831F8DF
:101D2000022B6FF35F225A600162C18C01390A04F1
:101D3000C18418BF70470068C16821F08001C1608C
:101D4000C16841F04001C1607047000080B540F2B9
:101D50007000C2F20000FFF7E1F880BDFEE700006E
:101D6000002848BF704700F01F01012202FA01F16C
:101D70004EF200124009CEF2000242F820107047E5
:101D80004EF60C50CEF200000068C0F302207047FF
:101D90004EF6145300F00F02CEF2000309011A446C
:101DA00000F16043B0F1FF3FC8BF03F5644211701A
:101DB000704700004EF60C51CEF200010A684FF653
:101DC000FF031A4060F30A2242F0806040F0FD7089
:101DD000086070470128B8BF704700BF40F67B41DC
:101DE000013900BFFCD10138F8DC7047FEF766FD11
:101DF000FFF70EFEFFF748FDFFF7B4FDFFF724FDE8
:101E000040F2CC0440F2700540F2C106C2F2000478
:101E1000C2F20005C2F20006FFF74CFB0128FBD01E
:101E20002070284621460122FFF71EFB2846314636
:101E30000122FFF70BFAEFE7B0B59AB040F2C80005
:101E4000C2F20000026801AC07A12046FEF78EFA3C
:101E5000002500BF605D20B1FFF7C2FC0135652D94
:101E6000F8D11AB0B0BD00BF2564000080B540F2C3
:101E7000C000C2F200000078A0F16401142911D85A
:101E80002F20DFE801F0100F0F0F0F0F0F0F0F0BB8
:101E90000F0F0F0F0F130F0F0F0F17002D20FFF74E
:101EA0009FFC80BD2120FFF79BFC80BD2B20FFF70E
:101EB00097FC80BD2A20FFF793FC80BDF1EE100A4D
:101EC0004FF6FF71C0F2C03120EA010040F04070CF
:101ED000E1EE100A7047000000000000000001025F
:101EE00003040607080900000000010203040000C3
:101EF000101F00080000002010000000D0010008A2
:101F0000201F000810000020C8060000EC01000897
:101F10000024F40001000000100000000000000098
:040000050800019559
:00000001FF
