:020000040800F2
:10000000A8070020350200083D0200083F02000852
:1000100041020008430200084502000800000000F9
:10002000000000000000000000000000470200087F
:1000300049020008000000004B0200084D020008C1
:100040004F0200084F0200084F0200084F0200084C
:100050004F0200084F0200084F0200084F0200083C
:100060004F0200084F0200084F0200084F0200082C
:100070004F0200084F0200084F0200084F0200081C
:100080004F0200084F0200084F0200080000000065
:100090000000000000000000000000004F02000807
:1000A0004F0200084F0200084F0200084F020008EC
:1000B0004F0200084F0200084F0200084F020008DC
:1000C0004F0200084F0200084F0200084F020008CC
:1000D0004F0200084F0200084F0200080000000015
:1000E0004F0200084F0200084F0200080000000005
:1000F0000000000000000000000000004F020008A7
:10010000000000004F0200084F0200084F020008E4
:1001100000000000000000000000000000000000DF
:100120004F0200084F0200084F0200084F0200086B
:100130004F02000800000000000000000000000066
:100140000000000000000000000000004F02000856
:100150004F0200084F0200084F0200084F0200083B
:100160004F0200084F0200080000000000000000DD
:10017000000000000000000000000000000000007F
:10018000000000004F020008000000000000000016
:100190004F02000800F002F800F03CF80AA090E8D6
:1001A000000C82448344AAF10107DA4501D100F032
:1001B00031F8AFF2090EBAE80F0013F0010F18BFC3
:1001C000FB1A43F001031847B40B0000D40B0000E6
:1001D000103A24BF78C878C1FAD8520724BF30C873
:1001E00030C144BF04680C60704700000023002445
:1001F00000250026103A28BF78C1FBD8520728BF37
:1002000030C148BF0B6070471FB500F0A9FD1FBD8E
:1002100010B510BD00F031F81146FFF7F5FF00F002
:10022000FBF900F04FF803B4FFF7F2FF03BC00F056
:1002300057F800000948804709480047FEE7FEE7F5
:10024000FEE7FEE7FEE7FEE7FEE7FEE7FEE7FEE786
:1002500004480549054A064B704700005D04000844
:1002600095010008A8010020A8070020A80300208D
:10027000A8030020704770477047754600F02CF8BF
:10028000AE4605006946534620F00700854618B083
:1002900020B5FFF7DDFFBDE820404FF000064FF02E
:1002A00000074FF000084FF0000BAC46ACE8C00967
:1002B000ACE8C009ACE8C009ACE8C00921F007010E
:1002C0008D46704710B50446AFF300802046BDE868
:1002D0001040FFF7A8BF000000487047080000204A
:1002E00001491820ABBEFEE726000200704700005F
:1002F000B0B514463F29054604BF012CB0BDE8083F
:10030000224600F033F9A5F1210005F00701012292
:10031000C0B202FA01F1072838BF0131C9B2204644
:1003200000F034F9B0BD0000402898BF802900D902
:1003300070472DE9F04F81B00DF1400BDDE90E76ED
:1003400040F270049BE82308C2F20004DDE914A91E
:10035000A7610D9FE661DDF830E02062DDF82C80BA
:10036000DDF828C0A56240F2184526464FF6004049
:10037000C4F20205C4F83490B94646F8143F276128
:100380000827CFF6FF706162C4E90BBAC4E900C266
:10039000C4E9028E56F8041F013F4FEA014129507B
:1003A000F8D14FEA0C402860100428601804286037
:1003B0004FEA084028604FEA0E4028604FEA0940A3
:1003C0002860052000F01AF960692860322000F0EA
:1003D00015F900203F2100F091F801203F2100F0A5
:1003E0008DF80020C02100F089F80120C02100F024
:1003F00085F800F057F801B0BDE8F04F70470000F5
:1004000043F63000C4F20200016841F003010160CC
:10041000416941F0100141610020C4F202004FF433
:10042000EE61416245F25551C0F22801016045F28A
:100430005551C0F8001441F20C00C4F2010040F222
:10044000836140F8041C0C2101600021416081603F
:10045000016841F400510160704700004EF6885079
:10046000CEF20000016841F4700101604FF00061BC
:1004700040F8801C7047000010B514463F2904BFA7
:10048000012C10BD042804D120202246FFF730FFA4
:1004900010BD224600F06AF82046002100F076F8F0
:1004A00010BD0000F0B581B00020C021002600F092
:1004B00025F80120C02100F021F800BF002700BF6F
:1004C000F4B2FDB2204629460122FFF7D5FF2046AF
:1004D00029460022FFF7D0FF3F2D07F10107EFD398
:1004E000072C06F10106E9D30020C02100F006F830
:1004F0000120C02100F002F801B0F0BD70B540F25B
:100500007005C2F20005D5E9003240F21846D5F870
:100510000CC0C4F202061B041204012833603260CE
:1005200004D14FEA0C403060286903E0C6F800C0EF
:10053000286900044FF6004230600020CFF6FF72B9
:1005400005EB800321FA00F49B69E40700F1010048
:1005500008BF1B040828B350F2D1A86830600020FF
:1005600000F04CF8A8680004306070BDB0B50D46CE
:100570000146104614463F2D88BF403D00F00AF961
:10058000E9B2204600F000F9B0BD000070B540F2BD
:100590007005C2F20005D5E9003240F21846D5F8E0
:1005A0000CC0C4F20206120401283360326004D188
:1005B0004FEA0C403060286903E0C6F800C02869A3
:1005C00000044FF6004230600020CFF6FF7200BFFB
:1005D00005EB800321FA00F49B69E40700F10100B8
:1005E00008BF1B040828B350F2D1A868306000206F
:1005F00000F004F8A8680004306070BD0128B8BF9E
:10060000704700BF40F67B41013900BFFCD1013883
:10061000F8DC7047000000008CB0FFF7F1FE2022EC
:10062000102380204021CDE908320422CDE90A10B0
:10063000082702260125CDE90032CDE902100692F5
:100640004020802108222023CDE904560797FFF798
:100650006BFE9FED430B40F2A80840F200099FEDAE
:10066000488B9FED459B9FED42AB9FED3FBB40F21A
:10067000680AC2F20008C2F2000955EC10BBC2F2CF
:10068000000A07E051EC100B00F094F841EC100B5D
:100690008AED000B00F084F821381328FAD8DFE83F
:1006A00000F0100F0F0F0F0F0F0F0F0F0F0F0F0F87
:1006B0000F0F464B0A589AED000B53EC1A2BE1E74B
:1006C000E8E7002403E000BF0134802CE2D018F8F2
:1006D00004000026E7B2C008402C38BF0126394686
:1006E0003246FFF7C9FE00F05BF800F03AF999EDE9
:1006F000000B02460B4651EC100B00F045F99AED49
:10070000000B53EC102B00F055F85A462B4600F026
:100710003BF900F0F7F83F28D6D8C0F13F0008F8C1
:100720000400C0B239463246FFF7E2FDCCE799ED4E
:10073000000B53EC182B03E099ED000B53EC192B35
:1007400051EC100B00F036F841EC100B89ED000B6A
:10075000A0E79AED000B53EC1B2B93E700BF00BF03
:10076000000000000000D03F00000000000024C096
:1007700000000000000024409A9999999999B9BF06
:100780009A9999999999B93F80B54031C9B2FFF7C3
:10079000B5FE80BD80B54839C9B2FFF7AFFE80BD58
:1007A00041F20000C4F2010001688906FCD54068EE
:1007B000C0B2704710B591EA030F48BF83F0004301
:1007C00000F1E881841A71EB030C05D2121943EB96
:1007D0000C03001B61EB0C014FEA1154A4EB135CFA
:1007E000DFF81CE11EEA430F18BF9EEA445F00F0E9
:1007F000748021EA045123EA0E0343F48013DCF1F0
:10080000200E32D322FA0CFE10EB0E0023FA0CFE5F
:1008100041EB0E01CCF1200E03FA0EFE10EB0E00A0
:10082000CCF1200E51F10001B1F5801F32D201EB65
:10083000045112FA0EF2BDE8104058BF7047401C38
:1008400038BF5FEA420218BF7047002814BF20F08B
:10085000010041F100014FEA410313F5001F38BFC9
:100860007047A1F1C04100F087B9012A43EB0302B0
:10087000ACF1200CDCF11F0E32BF4FF0000E23FA5A
:100880000CF310EB030041EB0451B4EB115FD0D03B
:10089000A1EB045101F58011490801EB04515FEA15
:1008A00030000ED350F1000038BF12FA0EFE08D10E
:1008B000BDE81040C9E7401C38BF5FEA4202CAD118
:1008C000C3E7BDE810404FEA410313F5001F38BFEE
:1008D0007047A1F1C04100F04FB99EEA445F08D0D3
:1008E00011EA5E0FBDE8104004BF01F00041002096
:1008F0007047BDE8104070B500F0F0F864FBBE3EF4
:100900000000E0FF4FEA41034FEA5353A3F5806331
:10091000D3F11E03C8BFD3F1210C0CDD4FF0004210
:1009200042EAC12242EA505232FA03FC8CEAE17CEC
:10093000ACEBE1707047102BC4BF0020704703F58B
:10094000787CBCF1FF3F04D06FF0004282EA2100C6
:10095000704770B500F0C2F84992248000207047BB
:10096000F2E7B0FA80F310FA03F10AD0C3F11D03E5
:1009700003F580634FEA03524FEA415002EBD12165
:1009800070474FF00000704770B5DFF848C11CEAAF
:10099000111E1EBF1CEA13159EEA0C0F95EA0C0FE0
:1009A00000F06F8081EA03044EEAD47EAE4421EA6F
:1009B0004C1123EA4C1341F4801143F48013AEF13F
:1009C0007F7EA1FB024CA0FB0365361955EB0C059D
:1009D000A1FB034C4CF10003A0FB021C16EB0C0620
:1009E000654153F10003094218BF46F0010613F4B4
:1009F000007F0BD14FEA03314FEA053041EA155130
:100A000040EA165034036FF003020AE04FEAC321B4
:100A10004FEAC52041EA555140EA5650F4026FF0C2
:100A2000020202EB2E4201EB025585EACE710AD09A
:100A30005FEA440C18BF24F0004450F1000041F17B
:100A4000000120EAD47040F2FE7C624500D270BD05
:100A5000A84214BF4FF080444FF04044002E08BF1E
:100A60000024BEF1806FA8BFA1F1C041BDE8704075
:100A700080F2828001F1C04101F000414FF000009E
:100A800070470CEA13159EEA0C0F18BF95EA0C0F7D
:100A900006D081EA030E4FF000000EF0004170BD59
:100AA00000F01CF88900013E00F007B800F009B81A
:100AB0004FEA430C5FEA5C5C08D081EA030100F076
:100AC0005BB84FEA410C5FEA5C5CF6D102494FF03B
:100AD000000070470000FF070000F87F0EF1020ED3
:100AE0002EF0030E5EF8046B364205D4012A43EB68
:100AF000030515F5001F12D8012841EB010C1CF568
:100B0000001F0CD80ED14FEAD17C0CEB4C0C0CF131
:100B1000020C15F5001F08BF4CEBD37C04E04FF02E
:100B2000080C01E04FEAD37C0CEB4C0526FA05F6E5
:100B300006F00706B6F1040C06D20EEB860CBDE8F3
:100B400070404CF0010C6047DFE80CF0090B02022A
:100B50004FF00041A1F500214FF0000070BD194693
:100B60001046012851EB010418BFD4F5001484BFCE
:100B7000002001F0004170BD0808A0F500114FEA07
:100B80003101704710B591EA030F48BF83F000436D
:100B90003FF518AE841A71EB030C07D28CF0004CB1
:100BA000121943EB0C03001B61EB0C014FEA1154CB
:100BB000A4EB135CDFF8A4E11EEA430F18BF9EEA22
:100BC000445F00F0B48021EA045123EA6E035242EC
:100BD000C3EB6E0338BF5B1EDCF1200E25D322FA77
:100BE0000CFE10EB0E0043FA0CFE41EB0E01CCF1B3
:100BF000200E03FA0EFE10EB0E00CCF1200E51F188
:100C0000000129D401EB045112FA0EF2BDE81040A4
:100C100058BF7047401C1CBFB2F1004F70470028FE
:100C20000CBF491C20F00100704712EB020E43EB91
:100C3000030218BF4FF0010E4EEA4202ACF1200C45
:100C4000DCF11E0E56D943FA0CFE10EB0E00CCF16F
:100C50001E0E51F1FF31D5D50EF1010E12FA0EFE26
:100C6000404141EB010101EB445C5FEA5C5C10D95F
:100C700001EB045110EBDE7038BFBEF1004FBDE850
:100C8000104018BF704700280CBF491C20F001001D
:100C9000704734D24FEAD42C24F4006411F50011CB
:100CA0001BD0B1FA81F20B3AA41AA41ED2F1200390
:100CB000914030FA03F31943904001EBCC7101EB02
:100CC0000451002CBDE81040A8BF704701F1C0419D
:100CD00001F000414FF000007047B0FA80F310FAC5
:100CE00003F102D1BDE810407047E41A173C4805F3
:100CF000C90AE2E701EB0451BDE810407047491012
:100D00004FEA300001EB0451BDE8104002E04FF023
:100D1000000170474A0008BF0042F8D0B2F5001F3A
:100D200028BF704701F000414FF0000070479EEA75
:100D3000445F07D011EA5E0FBDE8104004BF0021F8
:100D400000207047BDE8104070B5FFF7C7FE00BF38
:100D500040DFF63E104683F0004170470000E0FFA0
:100D6000F1EE100A4FF6FF71C0F2C03120EA010027
:100D700040F04070E1EE100A70470000A00D00083E
:100D80000000002008000000D0010008A80D0008A5
:100D900008000020A0070000EC010008000000008F
:080DA000000000000000F03F1C
:040000050800019559
:00000001FF
