:020000040800F2
:10000000F8060020550200085D0200085F020008A3
:100010006102000863020008650200080000000099
:10002000000000000000000000000000670200085F
:1000300069020008000000006B0200086D02000861
:100040006F0200086F0200086F0200086F020008CC
:100050006F0200086F0200086F0200086F020008BC
:100060006F0200086F0200086F0200086F020008AC
:100070006F0200086F0200086F0200086F0200089C
:100080006F0200086F0200086F0200080000000005
:100090000000000000000000000000006F020008E7
:1000A0006F0200086F0200086F0200086F0200086C
:1000B000B10F00086F0200086F0200086F0200080D
:1000C0006F0200086F0200086F0200086F0200084C
:1000D0006F0200086F0200086F02000800000000B5
:1000E0006F0200086F0200086F02000800000000A5
:1000F0000000000000000000000000006F02000887
:10010000000000006F0200080D1000086F020008D8
:1001100000000000000000000000000000000000DF
:100120006F0200086F0200086F0200086F020008EB
:100130006F02000800000000000000000000000046
:100140000000000000000000000000006F02000836
:100150006F0200086F0200086F0200086F020008BB
:100160006F0200086F02000800000000000000009D
:10017000000000000000000000000000000000007F
:10018000000000006F0200080000000000000000F6
:100190006F02000800F002F800F04CF80AA090E8A6
:1001A000000C82448344AAF10107DA4501D100F032
:1001B00041F8AFF2090EBAE80F0013F0010F18BFB3
:1001C000FB1A43F001031847201D0000401D0000EA
:1001D000103A24BF78C878C1FAD8520724BF30C873
:1001E00030C144BF04680C60704700000023002445
:1001F00000250026103A28BF78C1FBD8520728BF37
:1002000030C148BF0B607047662901F01C86642925
:1002100000F05480002070471FB501F007FE00F089
:10022000C1FB04000020002101F000FCE0601FBDC4
:1002300010B510BD00F0B6FC1146FFF7EDFF00F061
:100240007BFF00F0D4FC03B4FFF7F2FF03BC00F027
:1002500015FD00000948804709480047FEE7FEE712
:10026000FEE7FEE7FEE7FEE7FEE7FEE7FEE7FEE766
:1002700004480549054A064B70470000950F0008E1
:1002800095010008F8000020F8060020F802002080
:10029000F80200200FB41CB5074B06AA7B44694640
:1002A0000090059800F065FB0020694600F074FBA3
:1002B0001CBC5DF814FB0000F90600002DE9F041BC
:1002C0000646002410687529314616A510D0AFF3F4
:1002D0000080002802DA404213A507E031688A074F
:1002E00001D512A502E0490704D511A5012401E0BA
:1002F000AFF3008000210A2206F1240709E0B0FBD9
:10030000F2FCB0FBF2F302FB1C00303078541846CC
:10031000491C0028F3D123462A463046BDE8F04167
:1003200000F0BBB8000000002D0000002B00000012
:10033000200000002DE9F0474FF0000A89460446EE
:10034000C0F820A02046E1688847002876D02528FC
:1003500006D0D4E901219047206A401C2062F1E7D1
:10036000E168204600268847C4F81CA005460027FF
:10037000C4F818A02A2D09D0284601F04FFB38B345
:1003800004EB8708303DC8F8185019E059F8041BF1
:10039000204604EB87029161E1688847012F0546FA
:1003A00018D1E069002820DA26F020061DE0D8F8F0
:1003B000180000EB800005EB40003038C8F818004A
:1003C0002046E1688847054601F028FB0028EED169
:1003D000012F0AD02E2D08D12046E16888477F1CC6
:1003E0000546022F46F02006C4DBA069002803DA88
:1003F000404246F00106A061F00701D026F0100649
:100400006C2D0AD0682D08D04C2D39D06A2D35D0EE
:10041000742D35D07A2D33D016E0E1682F46204672
:100420008847B84205460AD16C2F27D04FF4806028
:10043000E168064320468847054605E027E06C2F23
:100440001AD04FF4807006430DB3A5F1410019286E
:1004500002D8203546F400664A46294620462660E2
:100460004E46FFF7D1FE80B101280BD0F61D26F0D5
:10047000070000F1080965E74020E4E78020D7E79E
:100480000020D5E706F104095CE7284661E7206A09
:10049000BDE8F0877047704770472DE9F0470D467B
:1004A00099469246044600F124080168880604D55E
:1004B000E06921F01001216000E00120A84201DD87
:1004C000471B00E00027A1697A1902EB0900081A0E
:1004D000A0612078C00602D42046AFF30080002639
:1004E00008E0D4E901211AF806009047206A401C70
:1004F000761C20624E45F4DB2078C0060AD52046E3
:10050000AFF3008006E0D4E9012130209047206A53
:10051000401C2062381EA7F10107F4DC07E0D4E993
:10052000012118F805009047206A401C2062281E0F
:10053000A5F10105F3DC2046AFF30080207800062A
:1005400002D50220BDE8F0870120FBE72DE9FF4F2F
:100550000C461E464FF0FF378BB0D2E90001DDF8A4
:1005600060800A908A46C1F30A5505B93D460021CC
:1005700008464FF00000BAF1000F00F4400005DA21
:1005800000EB80004FF4400101EA50004FEA90591F
:10059000B9F1010F00DDB9460A9850EA4A000ED0C1
:1005A00044F61050A5F2FF3545432F14B8F1000F63
:1005B0001ED07542291E1EDDC9F100021CE0B8F1F3
:1005C000010F4FF0000001D0302103E0F24305E0BD
:1005D0002154401CB042FBDB304600220021215454
:1005E0000B99C1F80880C1E900200FB0BDE8F08F79
:1005F000BD1B6D1CDEE74A4600DA694206A800F022
:100600005BFA06AB93E8070003AB83E807005046AC
:100610000A9900F022FE8DE80700A0F500501F386F
:1006200000900398002D0ADD42F21F014A4608445B
:10063000002303A90390684601F08CF809E0A0F5B7
:1006400000504A461F38002303A90390684601F072
:1006500096F88DE807000004000C03D04FF0FF303F
:10066000410800E01046B8F1000F03D000220092CC
:1006700015461EE0751E05D400F098F9303262551B
:100680006D1EF9D5B3460122084302D000227F1C1B
:1006900004E02078302801D100227F1E002A09972B
:1006A00084D01DE0112D07DA00F080F93032625558
:1006B0006D1C50EA0102F5D1084302D00098C8B180
:1006C0000EE00021681E05E0235C625C6354225446
:1006D000401E491C8142F7DBAB46A81B401E099017
:1006E000002004F80B000B98099AC0F80880C0E9B4
:1006F000002B7AE711264FF0000857E72DE9F04F5D
:1007000088460446D21D22F0070191B0D1E90001CC
:10071000CDE90A0101F06AF902460B98C00F01D039
:100720002D2007E02068810701D52B2002E0202141
:1007300001EAC000032A099001D0072A05DB03461D
:100740004146204600F078F90BE12078800601D57B
:10075000E06900E00620B8F1650F814606D0B8F1E7
:10076000660F18D0B8F1670F70D131E00020B9F1F1
:10077000110F009001DB112301E009F101030AAA26
:1007800001A90CA8FFF7E2FEDDE90C70002609F1D3
:100790000105834647E001204B4600904FF000479B
:1007A0000AAA01A90CA8FFF7D1FEDDE90DB00C994A
:1007B0005D46002610B909F101000D18B9EB0500DE
:1007C00003D4C0F1FF3609F10105A5EB09002BE0C8
:1007D000B9F1010F01DA4FF001090020B9F1110F51
:1007E0000090484601DD112300E003460AAA01A952
:1007F0000CA8FFF7ABFEDDE90C704D4600268346E2
:10080000207800070AD4AB4500DA5D4601A8012D27
:1008100004DD411911F8011C302907D04F4502DAD7
:1008200017F1040F04DA012082460FE06D1EEEE797
:10083000002F02DCED1B3E4403E0781CA84200DDE3
:100840007D1CB81B00F1010A4FF00047207800071B
:1008500003D4AA4501DB4FF0FF3A0021B7F1004F66
:100860000DF143088DF8431024D002202B23002FD4
:1008700001DA7F422D230A21021EA0F1010000DCD3
:100880005FB197FBF1FC97FBF1F201FB1C7C174673
:100890000CF1300C08F801CDEEE7A8F1010003706F
:1008A0002188090501D5452100E06521A0F1010855
:1008B00000F8011C09980FA9A1EB0807FF1D00B162
:1008C0000120411901EBEA70A1693844081A401E61
:1008D000A0612078C00602D42046AFF300800998BA
:1008E00028B1D4E901219047206A401C2062207879
:1008F000C00622D52046AFF300801EE0002E04DBA8
:10090000B34502DD01A8805D00E03020D4E901217B
:100910009047206A401C2062761CAAF101005FEA21
:10092000000A0AD100F03EF8C0680168405CD4E9D2
:1009300001219047206A401C2062281EA5F1010574
:10094000DCDC07E0D4E9012118F8010B9047206AAC
:10095000401C2062381EA7F10107F3DC2046AFF3EC
:100960000080032011B041E601694A1C0261087849
:10097000704700B58FB0CDE90131002105910549DF
:100980007944CDE9031011466846FFF7D3FC0FB058
:1009900000BD0000E5FFFFFF0A6802F8010B0A60D6
:1009A00070470000004870472800002030B5B0F1C3
:1009B0000A0271F100034FEA900E4EEA817EB0EB1D
:1009C0000E0061EB91014FEA101E4EEA017E10EB22
:1009D0000E0041EB11114FEA102E4EEA016E10EBA2
:1009E0000E0041EB11214FEA104E4EEA014E10EB82
:1009F0000E0041EB1141401841F100014FEAD000D7
:100A000040EA41704FEAD1014FEA810444EA907410
:100A100010EB800544EB01046D1944EB0404521BF8
:100A2000A3414FF0000348BF0A3200D530BD401C3F
:100A300041F1000130BD00002DE9F0411F460446A0
:100A400003260168072A01F4006004DB08B116A53B
:100A500005E016A503E008B115A500E015A521F0F5
:100A600010002060A069C01EA0610FB1401EA061EF
:100A70002046AFF300804FB1D4E9012138469047BA
:100A8000206A401C2062C01C206206E0206AFAE74F
:100A9000D4E9012115F8010B9047761EF8D22046C3
:100AA000AFF30080BDE8F0814E414E006E616E00F4
:100AB000494E4600696E66002DE9F04781461646AC
:100AC0008AB0354878440DC88DE80D003248784426
:100AD000801C03AC0DC884E80D0041F69B3008442F
:100AE000372190FBF1F290FBF1F5A5F1800501FBB8
:100AF00012041B3C02D56442012000E00020DFF814
:100B000098A080460027FA44AAF1BE0A0EE0E0074A
:100B10000AD03246684607EB470101230AEB810100
:100B200000F02DFE8DE8070064107F1C002CEED134
:100B3000194F7F44AE3F19E0E80715D007EB0410CA
:100B40000DF1180A90E80E008AE80E00C068F04225
:100B500001D1981908903246012306A903A800F094
:100B60000EFE03AB83E807006D10641C002DE3D17B
:100B70004FF0010332466946B8F1000F03A802D0D6
:100B800000F0E8FD01E000F0FAFDC9E90001C9F854
:100B900008200AB0BDE8F087001400000048704744
:100BA000080000207546FFF7F9FFAE4605006946CC
:100BB000534620F00700854618B020B5FFF758FBD4
:100BC000BDE820404FF000064FF000074FF000084E
:100BD0004FF0000BAC46ACE8C009ACE8C009ACE88B
:100BE000C009ACE8C00921F007018D46704710B577
:100BF0000446AFF300802046BDE81040FFF723BB5A
:100C000030B44FF0013C50F8042B51F8043BCCFABF
:100C100052F4D51A20D1FCB950F8042B51F8043BFA
:100C2000CCFA52F4D51A17D1B4B950F8042B51F8B4
:100C3000043BCCFA52F4D51A0ED16CB950F8042BFF
:100C400051F8043BCCFA52F4D51A05D1002CDAD075
:100C500030BC4FF00000704729BAB1FA81F111F0B1
:100C60001801D1F120008440F2D1CA40CB4012F0EB
:100C7000FF0213F0FF0330BCD01A7047014918205F
:100C8000ABBEFEE72600020070470000B0B58CB096
:100C9000012000F08BF8412000F0A2F83A2000F08B
:100CA0009FF840F20000C2F2000090ED000B41F608
:100CB000E06108AC53EC102BC0F600012046FFF7B2
:100CC000E9FA9DF8200050B101340025C0B200F0CF
:100CD00087F80E2D03D8605D01350028F6D120205D
:100CE00000F07EF8422000F07BF83A2000F078F81F
:100CF00040F26800C2F2000090ED000B41F6E061A6
:100D000004AC53EC102BC0F600012046FFF7C2FAEA
:100D10009DF8100058B10134002500BFC0B200F0AA
:100D20005FF80E2D03D8605D01350028F6D1C02094
:100D300000F03CF8542000F053F8492000F050F83F
:100D40004D2000F04DF8452000F04AF8202000F03A
:100D500047F8552000F044F83A2000F041F82020F0
:100D600000F03EF82C20C4F2000000686C46421CE3
:100D70000DA12046FFF78EFA9DF8000058B101340E
:100D8000002500BFC0B200F02BF80E2D03D8605D27
:100D900001350028F6D16D2000F022F8732000F014
:100DA0001FF80CB0B0BD00BF25640000B0B540F224
:100DB00018450446C4F202054FF4C00028608020A4
:100DC000C5F8FC432860002000F056F94FF40000FD
:100DD00028600120042C38BF022000F04DF9B0BD7E
:100DE00010B540F21844C4F20204202121604FF4EF
:100DF00080012160C4F8FC0380202060002000F006
:100E00003BF94FF400002060012000F035F910BDDF
:100E100080B500F01FF81E2000F02EF93020FFF7FB
:100E2000C5FF0A2000F028F93020FFF7BFFF01209E
:100E300000F022F93020FFF7B9FF3820FFF7B6FFA6
:100E40000620FFF7B3FF0120FFF7B0FF0F20FFF7E9
:100E5000ADFF80BDB0B543F64005C4F2020555F8BC
:100E6000100C40F2004440F0070045F8100C686890
:100E7000C4F2020440F0100068604FF62440CFF640
:100E8000FF704FF4EE6121504FF600403C21CFF649
:100E9000FF70C0F22801215041F20C00C4F20100A1
:100EA00040F2836140F8041C0C2101600021416084
:100EB0008160026842F400520260686840F4807009
:100EC000686042F20800C4F201000160C16A41F0AA
:100ED0000101C162416A4162016841F001010160A2
:100EE00028680F2140F00800286040F60C40C4F24A
:100EF0000000C16113210162016841F0010101603C
:100F0000012140F80C1C322000F0A6F8286843F6B6
:100F10007F6140F0010028600C20C4F20000C16134
:100F200040F28F110162016841F0010101601C2053
:100F300000F092F862B6206840F6000120F47C4090
:100F400020604FF4A84020602068C4F2020140F005
:100F5000AA4040F0040020604FF60C40CFF6FF702E
:100F60000A5822F480720A501022C0F215020A5068
:100F70004FF61840CFF6FF704FF440020A50086851
:100F80004FF6FF7290430860086845F255521043CF
:100F90000860B0BD4EF68850CEF20000016841F402
:100FA000700101604FF0006140F8801C7047000044
:100FB00070B5212000F048F940F2F004C2F20004BC
:100FC00094F90050002D0CD440F27006C2F20006D5
:100FD000E8B2305C00F038F9681C45B2B5F1FF3F6B
:100FE000F6DC2078002808BF70BD40F270064FF094
:100FF000FF35C2F2000600BF7019407800F024F9F6
:101000002078A91C01358142F6D370BD42F2000060
:10101000C4F2010001214163816841F08041816097
:101020000168890704D400BF00BF01688907FBD5A8
:1010300040F2F001C06CC2F200010A7840F2700385
:101040000009C2F200039854501CC2B2803A18BF83
:1010500002460A7070470000C1B200F01F00012272
:1010600002FA00F04EF20012CEF2000242EAD10182
:1010700021F00301086070470128B8BF704700BF26
:1010800040F67B41013900BFFCD10138F8DC7047E4
:1010900080B540F21040C4F202004FF4604E4FF4AD
:1010A000504C02E00122002A44D0C0F804E002685B
:1010B00002F4E062B2F5E06F10D1C0F804C001683C
:1010C00001F4E062B2F5E06FECD000BF016801F41A
:1010D000E061B1F5E06F15D000BFF7E7016801F4FA
:1010E000E061B1F5E06F01D000BFF7E7B2F5407FF6
:1010F00017D0B2F5C06F11D0B2F5A06FDDD10022CC
:101100000223D0E7B2F5407F11D0B2F5C06F0BD00B
:10111000B2F5A06FC6D100220523C4E70022012347
:10112000C1E700220323BEE700220423BBE700221D
:101130000623B8E7D8B280BD82B02C26C4F20006E0
:10114000FFF766FEFFF7A2FD9FED3D0B4FF08040DD
:1011500059EC102B9FED380B01685BEC10AB9FED49
:10116000340B40F200079FED308B40F2680841F0ED
:101170000101C2F2000755EC104BC2F200080192C7
:1011800001600AE000F068FC41EC100B88ED000BF8
:101190000120FFF70BFEFFF779FDFFF779FF01381C
:1011A0000528F5D8DFE800F00D1727033138342083
:1011B00000F04AF898ED000B53EC182B51EC100B93
:1011C000E0E7312000F040F897ED000B019A51EC78
:1011D000100B4B4608E0322000F036F897ED000B7C
:1011E000524651EC100B5B4600F036FC41EC100B04
:1011F00087ED000BCCE7332000F026F898ED000BCC
:10120000224651EC100B2B46BCE73068C0087C2806
:10121000BED83068643005E03068B0F5C87FB7D913
:10122000306864383060B3E700000000000024C07C
:1012300000000000000024409A9999999999B9BF3B
:101240009A9999999999B93F41F20001C4F2010123
:101250000A681206FCD5486070475FEA400C08BF78
:1012600091F0000F4FEA8C234FEAC12243EA51511B
:101270004FEA1C5018BF00F5F0404FEA300018BF8D
:1012800041F000415FEA6C5C00F02980BCF1FF3F57
:1012900008BF40F080407047130C06BF12044FF0A7
:1012A000100C4FF0000C130E04BF12020CF1080CCE
:1012B000130F04BF12010CF1040C930F04BF920032
:1012C0000CF1020CD30F04BF52000CF1010C1146BB
:1012D0004FF00002A0F11F00A0EB0C00704711F0CE
:1012E000004F08BF704731F000413FF4D5AF0B0C01
:1012F00006BF09044FF0100C4FF0000C0B0E04BF9A
:1013000009020CF1080C0B0F04BF09010CF1040CCD
:101310008B0F04BF89000CF1020CCB0F04BF4900F6
:101320000CF1010CCCF1200322FA03F341EA030192
:1013300002FA0CF2A0EB0C0000F101007047000073
:1013400023F07F4720F07F4C80EA030000F000404C
:10135000ACEB070303F57C5303F1FF032DE9804950
:1013600009B44FEA144324EA03484FEA154B25EA2F
:101370000B4E0FF2042606EB13273E7803FB06679D
:10138000C7F5000707FB06F64FEAD64606F1020648
:101390004FEA543707FB066CCCF1005C4FEA1C4760
:1013A0002CEA074C0CFB06F507FB06F404EB15468C
:1013B0004FEA961649085FEA320234BF00204FF028
:1013C00000404FEAD13706FB07FC4FEA1C4C0CFBF0
:1013D0000BF7D21B03FB0CF761EB07010CFB0EF7BD
:1013E000B0EB074072EB17420CFB08F734BFA2EBDF
:1013F0000742B2EB074261EB17414FEA0C444FEA58
:10140000910706FB07FC4FEA1C4C0CFB0BF7B0EBFB
:10141000C74072EB573203FB0CF734BFA2EBC74255
:10142000B2EBC74261EB57310CFB0EF7B0EBC700D4
:1014300072EB57720CFB08F734BFA2EBC702B2EB9A
:10144000C70261EB57714FEA816141EA92114FEA9D
:10145000826242EA90124FEA806004EBCC04039F60
:101460004FEAD13706FB07FC4FEA1C4C0CFB0BF78D
:10147000D21B03FB0CF761EB07010CFB0EF7B0EB83
:10148000074072EB17420CFB08F734BFA2EB074290
:10149000B2EB074261EB17414FEA8C5504EB9C24F9
:1014A0004FEA910706FB07FC4FEA1C4C0CFB0BF7BD
:1014B000B0EBC74072EB573203FB0CF734BFA2EB23
:1014C000C742B2EBC74261EB57310CFB0EF7B0EBF2
:1014D000C70072EB57720CFB08F734BFA2EBC702D0
:1014E000B2EBC70261EB57714FEA816141EA921199
:1014F0004FEA826242EA90124FEA806015EB4C2577
:1015000044F100044FEAD13706FB07FC4FEA1C4CBC
:101510000CFB0BF7D21B03FB0CF761EB07010CFB79
:101520000EF7B0EB074072EB17420CFB08F734BF25
:10153000A2EB0742B2EB074261EB17414FEA813160
:1015400041EA92414FEA823242EA90424FEA8030C9
:101550004FEA0C7615EB1C1544F1000448EA0343EE
:101560004EEA0B484FF0000EB2EB080C71EB03078C
:1015700024BF624639464EEB0E0E4FF0000B0018AA
:10158000524149414BEB0B0BB2EB080C71EB0307DB
:101590007BF1000B24BF624639464EEB0E0E4FF036
:1015A000000B0018524149414BEB0B0BB2EB080CFE
:1015B00071EB03077BF1000B24BF624639464EEB0B
:1015C0000E0E51EA020718BF46F0010616EB0E7622
:1015D00055F1000254F1000103D5BDE88901BDE8D1
:1015E0000088BDE88901BDE80048B619524141EBC9
:1015F0000101A3F10103704780807F7E7D7C7B7AAF
:101600007978777676757473727171706F6E6E6DAE
:101610006C6C6B6A6A696868676666656464636354
:1016200062616160605F5F5E5E5D5D5C5C5B5B5ADA
:101630005A59595858575756565555555454535347
:1016400052525251515050504F4F4F4E4E4D4D4DA2
:101650004C4C4C4B4B4B4A4A4A49494948484847ED
:10166000474747464646454545444444444343432B
:1016700043424242424141419C46002B30D47700D4
:101680002BD04FEA37071CB503B44FF010004FF0D2
:101690001001BAF1000F06D0BCF1000FDCBF40F022
:1016A000080040F008014FF000000FBCBDE81040FA
:1016B0000BF1010BBBF1010F08BF5FEA170722BF57
:1016C00012F1010211F101014FF0004143F1000359
:1016D00000F0004043EA00007047F9D35708D0E714
:1016E00046EA06464FEA164613F1400F1FDD13F196
:1016F000200FDFBF16430A46002120335B42BED0D5
:10170000C3F1200746EA06464FEA164602FA07F7F3
:1017100046EA070622FA03F2C3F1200701FA07F7A7
:1017200042EA070221FA03F14FF00003A7E746EA75
:10173000020646EA06464FEA164646EA0106BCBFDE
:1017400046EA0646360C4FF000034FF000024FF019
:10175000000194E72DE9804C70B49A46934691E8D5
:10176000380007C831EA400C48BF34EA430C03D5BF
:10177000FFF7E6FDFFF780FFF0BCBDE8008C2DE928
:10178000804C70B49A46934691E8380007C810F030
:10179000804F08BF13F0804F03D100F005F8FFF72A
:1017A0006BFFF0BCBDE8008C20F07F4723F07F4C3E
:1017B00080EA030000F0004007EB0C03A3F57C5324
:1017C000A3F1FE0392F0000F00F0B38095F0000F3C
:1017D00000F077802DE901494FEA114021EA0048E5
:1017E0004FEA144624EA064700FB06FC08FB06F60F
:1017F00007FB08F818EB06484CEB164C00FB07F704
:1018000018EB07484CEB17404FEA124B22EA0B4EFD
:101810004FEA154625EA06470BFB06FC0EFB06F6CB
:1018200007FB0EFE1EEB064E4CEB164C0BFB07F7B0
:101830001EEB074E4CEB174B18EB0B0840F100006A
:1018400018EB0E0B58EB000840F100008F1A4FF018
:1018500000014FF000063CBFC943661B14BFB5EB47
:10186000040C00213CBFC943F61B4FEA174427EA8A
:1018700004454FEA1C472CEA074C04FB076205FBB2
:1018800007F70CFB05F616EB074642EB174204FB85
:101890000CFC16EB0C4642EB1C421BEB060658EB0D
:1018A000020241414EEA8E0E46EA9E0601D5BDE88F
:1018B0000189B619524141EB0101A3F10103BDE8D1
:1018C00001894FEA144524EA05464FEA114721EA07
:1018D000074C05FB07F406FB07F70CFB06F111EBC1
:1018E000074144EB174405FB0CFC11EB0C4144EBA6
:1018F0001C444FEA124722EA074C05FB07F206FB9D
:1019000007F70CFB06F616EB074642EB174205FB02
:101910000CFC16EB0C4642EB1C456A1854F1000116
:1019200048BF7047B619524141EB0101A3F10103D1
:10193000704795F0000F37D04FEA114221EA024676
:101940004FEA144724EA074C02FB07F106FB07F7AE
:101950000CFB06F414EB074441EB174102FB0CFCB3
:1019600014EB0C4441EB1C414FEA154725EA074CA8
:1019700002FB07F506FB07F70CFB06F616EB07461E
:1019800045EB174502FB0CFC16EB0C4645EB1C42E5
:10199000121951F1000148BF7047B619524141EB8D
:1019A0000101A3F1010370474FEA144524EA0546FB
:1019B0004FEA114721EA074C05FB07F106FB07F741
:1019C0000CFB06F212EB074241EB174105FB0CFC46
:1019D00012EB0C4251EB1C414FF0000648BF704720
:1019E000921841EB0101A3F10103704703B4019880
:1019F0004100009850EAC12018BF04204A0D18BFCA
:101A000040F0010040F2FF72B2EB515F08BF40F0BE
:101A10000200012808BF052002B0704730380A28AC
:101A200001D20120704700207047000010B5002946
:101A30000AD00878002807D005487844FFF7E0F876
:101A4000002801D0002010BD0248784410BD0000DD
:101A5000CE040000C604000010B591EA030F48BF91
:101A600083F0004300F1FC80841A71EB030C05D273
:101A7000121943EB0C03001B61EB0C014FEA1154EC
:101A8000A4EB135CDFF81CE11EEA430F18BF9EEACB
:101A9000445F00F0748021EA045123EA0E0343F40A
:101AA0008013DCF1200E32D322FA0CFE10EB0E0074
:101AB00023FA0CFE41EB0E01CCF1200E03FA0EFED0
:101AC00010EB0E00CCF1200E51F10001B1F5801F9A
:101AD00032D201EB045112FA0EF2BDE8104058BFA9
:101AE0007047401C38BF5FEA420218BF70470028A9
:101AF00014BF20F0010041F100014FEA410313F54A
:101B0000001F38BF7047A1F1C04100F09BB8012A07
:101B100043EB0302ACF1200CDCF11F0E32BF4FF09F
:101B2000000E23FA0CF310EB030041EB0451B4EB6D
:101B3000115FD0D0A1EB045101F58011490801EBF0
:101B400004515FEA30000ED350F1000038BF12FAA2
:101B50000EFE08D1BDE81040C9E7401C38BF5FEA5F
:101B60004202CAD1C3E7BDE810404FEA410313F572
:101B7000001F38BF7047A1F1C04100F063B89EEA72
:101B8000445F08D011EA5E0FBDE8104004BF01F0C9
:101B9000004100207047BDE8104070B500F004F827
:101BA00064FBBE3E0000E0FF0EF1020E2EF0030EBD
:101BB0005EF8046B364205D4012A43EB030515F5A4
:101BC000001F12D8012841EB010C1CF5001F0CD896
:101BD0000ED14FEAD17C0CEB4C0C0CF1020C15F53C
:101BE000001F08BF4CEBD37C04E04FF0080C01E071
:101BF0004FEAD37C0CEB4C0526FA05F606F00706F7
:101C0000B6F1040C06D20EEB860CBDE870404CF029
:101C1000010C6047DFE80CF0090B02024FF00041B5
:101C2000A1F500214FF0000070BD194610460128B3
:101C300051EB010418BFD4F5001484BF002001F05B
:101C4000004170BD0808A0F500114FEA310170474E
:101C500010B591EA030F48BF83F000433FF504AF8E
:101C6000841A71EB030C07D28CF0004C121943EB71
:101C70000C03001B61EB0C014FEA1154A4EB135C45
:101C8000DFF8A4E11EEA430F18BF9EEA445F00F0AC
:101C9000B48021EA045123EA6E035242C3EB6E037F
:101CA00038BF5B1EDCF1200E25D322FA0CFE10EBB0
:101CB0000E0043FA0CFE41EB0E01CCF1200E03FAAC
:101CC0000EFE10EB0E00CCF1200E51F1000129D4D4
:101CD00001EB045112FA0EF2BDE8104058BF7047F4
:101CE000401C1CBFB2F1004F704700280CBF491CBC
:101CF00020F00100704712EB020E43EB030218BF05
:101D00004FF0010E4EEA4202ACF1200CDCF11E0E47
:101D100056D943FA0CFE10EB0E00CCF11E0E51F119
:101D2000FF31D5D50EF1010E12FA0EFE404141EB06
:101D3000010101EB445C5FEA5C5C10D901EB0451EA
:101D400010EBDE7038BFBEF1004FBDE8104018BF89
:101D5000704700280CBF491C20F00100704734D2A6
:101D60004FEAD42C24F4006411F500111BD0B1FA11
:101D700081F20B3AA41AA41ED2F12003914030FA4A
:101D800003F31943904001EBCC7101EB0451002C9B
:101D9000BDE81040A8BF704701F1C04101F000410B
:101DA0004FF000007047B0FA80F310FA03F102D14F
:101DB000BDE810407047E41A173C4805C90AE2E73D
:101DC00001EB0451BDE81040704749104FEA300064
:101DD00001EB0451BDE8104002E04FF000017047F4
:101DE0004A0008BF0042F8D0B2F5001F28BF704774
:101DF00001F000414FF0000070479EEA445F07D0B9
:101E000011EA5E0FBDE8104004BF002100207047BA
:101E1000BDE8104070B5FFF7C7FE00BF40DFF63EDB
:101E2000104683F0004170470000E0FFF1EE100A19
:101E30004FF6FF71C0F2C03120EA010040F040705F
:101E4000E1EE100A7047FEF759BC000002400000A6
:101E5000000000A00000000005400000000000C8D5
:101E6000000000000C4000000000409C000000004A
:101E7000194000000020BCBE0000000034400000FB
:101E8000BFC91B8E00000004B5400000504BCFD0EE
:101E90006607E2CF010000006C4100003E8251AABB
:101EA000DFEEA73401000000D9420000DCB5A0E25B
:101EB0003A301F97FFFFFFFFB4450000FD25A0C883
:101EC000E9A3C14FFFFFFFFFFF3F000000000080BC
:101ED00000000000FF3F0000000000800000000044
:101EE000252E316C66000000281F0008000000202D
:101EF00008000000D0010008301F00080800002082
:101F0000F0060000EC0100081C0000004300000087
:101F1000F8FFFFFF0C0000000E0000000F000000A3
:101F20002E00000000000000000000000000F03F54
:040000050800019559
:00000001FF
