:020000040800F2
:10000000880600203D02000845020008470200085B
:10001000490200084B0200084D02000800000000E1
:100020000000000000000000000000004F02000877
:1000300051020008000000005302000855020008A9
:10004000570200085702000857020008570200082C
:10005000570200085702000857020008570200081C
:1000600095050008BD050008E505000857020008D1
:1000700057020008570200085702000857020008FC
:10008000570200085702000857020008000000004D
:1000900000000000000000000000000057020008FF
:1000A00057020008570200085702000857020008CC
:1000B00069080008570200085702000857020008A4
:1000C00057020008570200085702000857020008AC
:1000D00057020008570200085702000800000000FD
:1000E00057020008570200085702000800000000ED
:1000F000000000000000000000000000570200089F
:1001000000000000570200085702000857020008CC
:1001100000000000000000000000000000000000DF
:10012000570200085702000857020008570200084B
:10013000570200080000000000000000000000005E
:10014000000000000000000000000000570200084E
:10015000570200085702000857020008570200081B
:1001600057020008570200080000000000000000CD
:10017000000000000000000000000000000000007F
:10018000000000005702000800000000000000000E
:100190005702000800F002F800F041F80AA090E8C9
:1001A000000C82448344AAF10107DA4501D100F032
:1001B00036F8AFF2090EBAE80F0013F0010F18BFBE
:1001C000FB1A43F001031847AC080000CC080000FC
:1001D000103A24BF78C878C1FAD8520724BF30C873
:1001E00030C144BF04680C60704700000023002445
:1001F00000250026103A28BF78C1FBD8520728BF37
:1002000030C148BF0B607047642900F04B8000206C
:1002100070471FB500F018FC1FBD10B510BD00F0F1
:100220007EF91146FFF7F5FF00F080FB00F09CF926
:1002300003B4FFF7F2FF03BC00F0A4F909488047BC
:1002400009480047FEE7FEE7FEE7FEE7FEE7FEE7B8
:10025000FEE7FEE7FEE7FEE704480549054A064BD0
:10026000704700005508000895010008880000202C
:100270008806002088020020880200200FB41CB5E8
:10028000074B06AA7B4469460090059800F02FF9B9
:100290000020694600F03EF91CBC5DF814FB00002C
:1002A0008D0200002DE9F0410646002410687529F2
:1002B000314616A510D0AFF30080002802DA404284
:1002C00013A507E031688A0701D512A502E04907A6
:1002D00004D511A5012401E0AFF3008000210A221A
:1002E00006F1240709E0B0FBF2FCB0FBF2F302FBDD
:1002F0001C00303078541846491C0028F3D123469E
:100300002A463046BDE8F04100F092B800000000F7
:100310002D0000002B000000200000002DE9F04718
:100320004FF0000A89460446C0F820A02046E16844
:100330008847002876D0252806D0D4E901219047A7
:10034000206A401C2062F1E7E168204600258847CA
:10035000C4F81CA006460027C4F818A02A2E09D00D
:10036000304600F06AFB38B304EB8708303EC8F82B
:10037000186019E059F8041B204604EB87029161CC
:10038000E1688847012F064618D1E069002820DA85
:1003900025F020051DE0D8F8180000EB800006EBE2
:1003A00040003038C8F818002046E1688847064603
:1003B00000F043FB0028EED1012F0AD02E2E08D1E9
:1003C0002046E16888477F1C0646022F45F020053D
:1003D000C4DBA069002803DA404245F00105A061B2
:1003E000E80701D025F01005B6B1A6F141001928A3
:1003F00002D8203645F400654A463146204625603D
:100400004D46FFF701FF58B1012806D0ED1D25F03C
:10041000070000F1080989E704E005F1040985E710
:1004200030468AE7206ABDE8F0877047704770471A
:100430002DE9F0470D4699469246044600F12408FE
:100440000168880604D5E06921F01001216000E010
:100450000120A84201DD471B00E00027A1697A19AD
:1004600002EB0900081AA0612078C00602D42046D9
:10047000AFF30080002608E0D4E901211AF8060055
:100480009047206A401C761C20624E45F4DB2078A1
:10049000C0060AD52046AFF3008006E0D4E901216A
:1004A00030209047206A401C2062381EA7F10107C7
:1004B000F4DC07E0D4E9012118F805009047206A30
:1004C000401C2062281EA5F10105F3DC2046AFF395
:1004D00000802078000602D50220BDE8F0870120C8
:1004E000FBE7000001694A1C02610878704700B50B
:1004F0008FB0CDE901310021059105497944CDE95D
:10050000031011466846FFF709FF0FB000BD000059
:10051000E5FFFFFF0A6802F8010B0A6070477546A5
:1005200000F02CF8AE4605006946534620F007005F
:10053000854618B020B5FFF78FFEBDE820404FF08C
:1005400000064FF000074FF000084FF0000BAC46DC
:10055000ACE8C009ACE8C009ACE8C009ACE8C00927
:1005600021F007018D46704710B50446AFF30080B7
:100570002046BDE81040FFF75BBE00000048704712
:100580000800002001491820ABBEFEE7260002004B
:100590007047000080B540F20000C2F20000002168
:1005A000016043F61440C4F20100016841F0020109
:1005B0000160082000F08EF980BD000080B540F297
:1005C0000000C2F200000121016043F61440C4F2B1
:1005D0000100016841F004010160092000F07AF98E
:1005E00080BD000070B59AB040F26C0440F278050E
:1005F00040F27006C2F200040020C2F20005C2F20E
:10060000000620602860306040F20000C2F2000066
:1006100001210160012000F053F832682B68266840
:1006200040F6622101ACC0F6000120460096FFF7BB
:1006300025FE9DF8040040B1013C00BFC0B200F0AF
:1006400059F8A07801340028F8D140F27400C2F2C1
:1006500000000168002940F62441C4F2000119D0CD
:1006600000220260086840F27C01C2F200010968C1
:1006700040F6B932411A914240F26801C2F20001DB
:1006800008600FDB40F28000C2F20000012101602F
:1006900072B607E0096840F27C02C2F20002116003
:1006A0000121016043F61440C4F20100016841F0E9
:1006B00002010160082000F00DF91AB070BD0000C1
:1006C000B0B540F218450446C4F202054FF4C0002C
:1006D00028608020C5F8FC432860002000F01AF94B
:1006E0004FF4000028600120042C38BF022000F0E5
:1006F00011F9B0BD10B540F21844C4F20204202133
:1007000021604FF480012160C4F8FC038020206048
:10071000002000F0FFF84FF400002060012000F0FE
:10072000F9F810BD80B500F01FF81E2000F0F2F8B7
:100730003020FFF7C5FF0A2000F0ECF83020FFF76B
:10074000BFFF012000F0E6F83020FFF7B9FF3820A6
:10075000FFF7B6FF0620FFF7B3FF0120FFF7B0FF5A
:100760000F20FFF7ADFF80BD70B543F64005C4F222
:100770000205286843F67F6140F00800286040F6D3
:100780000040C4F20000816242F20F710124C16294
:10079000046028684FF4C86140F0010028600C2014
:1007A000C4F20000C1610921016201681C2641F008
:1007B000010101601C2000F09DF855F8100C40F07C
:1007C000060045F8100C686840F4804068604FF6F9
:1007D000004040F60005CFF6FF70C4F2020529582C
:1007E00021F47C4129504FF4A84129504FF60C4088
:1007F000CFF6FF704FF42871295028684FF6FF712B
:1008000088432860286845F255510843286043F61C
:10081000080043F60C41C4F20100C4F20101C0F823
:10082000F8630E601021C0F800144FF48851016085
:100830004460082000F05EF8092000F05BF80A2010
:1008400000F058F84FF61840CFF6FF704FF4400113
:10085000295070BD4EF68850CEF20000016841F478
:10086000700101607047000080B540F20000C2F2E4
:100870000000006808BB40F26C00C2F20000016892
:100880000131B1F57A7F016017D140F27801C2F2EF
:1008900000010A68531C0022026040F270003C2BE9
:1008A000C2F200000B6003D103680A6001330360E9
:1008B0000168642904BF0021016043F61440C4F2BA
:1008C0000100016841F002010160082000F002F817
:1008D00080BD0000002848BF704700F01F010122C2
:1008E00002FA01F14EF280224009CEF2000242F8F3
:1008F00020107047002848BF704700F01F010122F8
:1009000002FA01F14EF200124009CEF2000242F862
:10091000201070470128B8BF704700BF40F67B41E8
:10092000013900BFFCD10138F8DC70479AB0FFF7FD
:10093000F9FE5720FFF7DEFE4520FFF7DBFE4C20D7
:10094000FFF7D8FE4320FFF7D5FE4F20FFF7D2FE7A
:100950004D20FFF7CFFE4520FFF7CCFE4FF0804043
:1009600001680DF1040840F2000740F2800440F2F3
:10097000780A40F26C0B40F6622541F00101A8F1C3
:100980000109C2F20007C2F20004C2F2000AC2F278
:10099000000BC0F60005016006E000BF6420FFF711
:1009A000B9FF2068012821D0386821680843F8D1B0
:1009B0000120FFF785FE40F27000C2F200000268DD
:1009C000DAF80030DBF80060404629460096FFF771
:1009D00055FC9DF804000028E0D04E46C0B2FFF759
:1009E00089FEB07801360028F8D1D7E70120FFF75B
:1009F00067FE5420FFF77EFE5520FFF77BFE522056
:100A0000FFF778FE4E20FFF775FE2020FFF772FEFD
:100A10004F20FFF76FFE4620FFF76CFE4620FFF7E2
:100A200069FE4FF4FA70FFF775FF0120FFF748FEEB
:100A30004FF4FA70FFF76EFFD8E730380A2801D27A
:100A40000120704700207047F1EE100A4FF6FF7149
:100A5000C0F2C03120EA010040F04070E1EE100A1F
:100A60007047252E32643A252E32643A252E33649F
:100A700000000000980A00080000002008000000A4
:100A8000D0010008A00A000808000020800600002D
:100A9000EC01000800000000010000000000000060
:040000050800019559
:00000001FF
