:020000040800F2
:10000000B009002075020008B3210008D11A0008C9
:10001000B12100089F060008EF260008000000003C
:10002000000000000000000000000000C1220008E5
:10003000A106000800000000B5210008C322000846
:100040008F0200088F0200088F0200088F0200084C
:100050008F0200088F0200088F0200088F0200083C
:100060008F0200088F0200088F0200088F0200082C
:100070008F0200088F0200088F0200088F0200081C
:100080008F0200088F0200088F02000800000000A5
:10009000000000000000000000000000C106000891
:1000A0008F0200088F0200088F0200088F020008EC
:1000B0005923000865230008712300088F020008F7
:1000C0008F0200088F0200088F0200088F020008CC
:1000D0008F0200088F0200088F0200080000000055
:1000E000A30600088F0200088F020008000000002D
:1000F0000000000000000000000000008F02000867
:10010000000000008F0200088F0200088F02000824
:1001100000000000000000000000000000000000DF
:100120008F0200088F0200088F0200088F0200086B
:100130008F02000800000000000000000000000026
:100140000000000000000000000000008F02000816
:100150008F0200088F0200088F0200088F0200083B
:100160008F0200088F02000800000000000000005D
:10017000000000000000000000000000000000007F
:10018000000000008F0200080000000000000000D6
:100190008F02000800F002F800F043F80AA090E88F
:1001A000000C82448344AAF10107DA4501D100F032
:1001B00038F8AFF2090EBAE80F0013F0010F18BFBC
:1001C000FB1A43F00103184790280000B0280000F4
:1001D000103A24BF78C878C1FAD8520724BF30C873
:1001E00030C144BF04680C60704700000023002445
:1001F00000250026103A28BF78C1FBD8520728BF37
:1002000030C148BF0B607047642900F013810020A3
:1002100070471FB502F012FC00F05DF91FBD10B56C
:1002200010BD00F002FA1146FFF7F3FF02F00AFBDF
:1002300000F020FA03B4FFF7F2FF03BC00F028FA45
:100240000B49D1F800C04A685CF8043B10681844B8
:1002500042F8040B8C4528BFA1F1DC0C8A4228BF70
:10026000A1F1DC02C1F800C04A6020F000407047F4
:10027000440300200948804709480047FEE7FEE79D
:10028000FEE7FEE7FEE7FEE7FEE7FEE7FEE7FEE746
:1002900004480549054A064B7047000049230008F9
:1002A00095010008B0030020B0090020B00500202F
:1002B000B005002053EA020C00F069802DE9F04BF4
:1002C0004FF00006002B1FBFB3FA83F503FA05F4C5
:1002D00024FA05F65E4012BF1643B2FA82F502FA1E
:1002E00005F4C5F120051EBF22FA05FC44EA0C0402
:1002F000203556EA044C4FEA144418BF641C4FF0F2
:1003000000084FF00009904271EB030C39D300292B
:1003100019BFB1FA81F701FA07F6B0FA80F700FACF
:1003200007F6C7F120071EBF20FA07FC46EA0C06B5
:100330002037B6FBF4FCA7EB0507103F07F01F0BB7
:10034000CBF120060CFA0BFB2CFA06F644BFB346A1
:100350000026202FA4BF5E464FF0000B5BEA060C80
:1003600008BF4FF0010B19EB0B09ABFB027C48EB0C
:100370000608C01B06FB02CC0BFB03CC71EB0C0187
:10038000C1E70B46024641464846BDE8F08B13B52F
:100390004FF000004FF00001AFF30080BDE81C40BB
:1003A000704700000FB41CB5074B06AA7B44694692
:1003B0000090059800F021F90020694600F030F91E
:1003C0001CBC5DF814FB0000710200002DE9F04137
:1003D0000E460446002020622046E168884730B37C
:1003E000252805D0D4E901219047206A401CF2E776
:1003F000E168204600278847050018D0A5F1410094
:10040000192802D820354FF4006732462946204685
:100410002760FFF7F9FE40B1012804D0F61D26F051
:1004200007060836D8E7361DD6E72846DAE7206AF9
:10043000BDE8F0812DE9F0410646002410687529D9
:10044000314616A510D0AFF30080002802DA4042F2
:1004500013A507E031688A0701D512A502E0490714
:1004600004D511A5012401E0AFF3008000210A2288
:1004700006F1240709E0B0FBF2FCB0FBF2F302FB4B
:100480001C00303078541846491C0028F3D123460C
:100490002A463046BDE8F04100F050B800000000A8
:1004A0002D0000002B000000200000000B4910B5BB
:1004B000A1F17C020A4CC2E93712372106E000EBB9
:1004C000104342F82130074B00FB03400B1EA1F103
:1004D0000101F4DC10BD0120E8E70000E402002087
:1004E000E119D666CD0D01004FF0000200B51346AC
:1004F00094469646203922BFA0E80C50A0E80C5044
:10050000B1F12001BFF4F7AF090728BFA0E80C50F4
:1005100048BF0CC05DF804EB890028BF40F8042BED
:1005200008BF704748BF20F8022B11F0804F18BF5A
:1005300000F8012B70477047704770472DE9F0476E
:100540000D4699469246044600F124080168880643
:1005500004D5E06921F01001216000E00120A842EB
:1005600001DD471B00E00027A1697A1902EB0900B1
:10057000081AA0612078C00602D42046AFF300809C
:10058000002608E0D4E901211AF806009047206A05
:10059000401C761C20624E45F4DB2078C0060AD54C
:1005A0002046AFF3008006E0D4E9012130209047D7
:1005B000206A401C2062381EA7F10107F4DC07E026
:1005C000D4E9012118F805009047206A401C2062F8
:1005D000281EA5F10105F3DC2046AFF3008020784A
:1005E000000602D50220BDE8F0870120FBE70000ED
:1005F00001694A1C02610878704700B58FB0CDE9E7
:1006000001310021059105497944CDE903101146D6
:100610006846FFF7DBFE0FB000BD0000E5FFFFFFFF
:100620000A6802F8010B0A607047754600F02CF862
:10063000AE4605006946534620F00700854618B0CF
:1006400020B5FFF725FEBDE820404FF000064FF033
:1006500000074FF000084FF0000B21F00701AC46F7
:10066000ACE8C009ACE8C009ACE8C009ACE8C00916
:100670008D46704710B50446AFF300802046BDE8B4
:100680001040FFF7D7BD0000004870474C03002022
:1006900001491820ABBEFEE7260002007047FEE7C6
:1006A000704710B54FF4806000F062F84FF40060BE
:1006B00000F05EF8BDE810404FF4805000F058B8EC
:1006C0004FF4007000F054B870B5044600F056F9CD
:1006D0000546601C02D004480078044400F04EF93E
:1006E000401BA042FAD370BD3C00002070B51E4CE8
:1006F0000546A06802282CD101F0A0FBB5F5007FCB
:1007000009D0B5F5806F0AD0B5F5006F0BD0B5F5FF
:10071000805F1FD00EE0606B01281ED121E0606B6E
:1007200002281AD11DE0606B032816D119E000BF22
:1007300001F042FDA06B032809DB4FF4CA70A060F2
:1007400001221021094800F014F901F095FB002066
:10075000606370BD606B042803D0A06B401CA06375
:10076000E6E7A06BE4E70000000000200004024080
:10077000044910B50A68024202D00860FFF7B6FFCC
:1007800010BD0000143C01402DE9F84FDFF8B8A17E
:10079000002201240AF1040B03254FF00F090BF18D
:1007A000040E00BF0B6804FA02F63340B34273D163
:1007B0000F7907F00307012F01D0022F16D18768A8
:1007C0004FEA420805FA08FC27EA0C07D1F80CC0EA
:1007D0000CFA08FC4CEA070CC0F808C04768B7439D
:1007E0000E79C6F3001696403E4346600E79F643F6
:1007F000B6070DD0C768560005FA06FC27EA0C07B5
:10080000D1F808C00CFA06FC4CEA070CC0F80CC082
:100810000E7906F00306022E10D1D60800EB8608EA
:10082000D8F8206057074FEAD76C09FA0CF7BE4397
:100830000F6907FA0CF73743C8F8207006684FEACB
:10084000420C05FA0CF7BE430F7907F0030707FACD
:100850000CF7374307604E6816F4403F6DD03B4EAF
:10086000376847F480473760366822F0030706F49C
:1008700080460096364E07EB060CDCF808689707B2
:100880003F0F09FA07F826EA0806DFF8C880404556
:1008900003D14FF000081EE04FE0DFF8BC80404578
:1008A00002D14FF0010816E0DFF8B080404502D1D8
:1008B0004FF002080FE0DFF8A880404502D14FF06A
:1008C000030808E0DFF89C80404502D14FF004089F
:1008D00001E04FF0070808FA07F848EA0608CCF8E4
:1008E0000888DAF800605746D1F804C09E435FEAF2
:1008F000CC3C00D51E433E60DBF800605F46D1F87B
:1009000004C09E435FEA8C3C00D51E433E60DEF887
:1009100000607746D1F804C09E435FEACC2C00D536
:100920001E433E60084F0C373E68D1F804C09E431A
:100930005FEA8C2C00D51E433E60521C102AFFF447
:1009400031AFBDE8F88F0000003C01404438024060
:100950000030014000000240000402400008024054
:10096000000C0240001002400069084000D0012045
:1009700070470AB1816170470904FBE7014880684C
:10098000704700003C000020024881680278114452
:10099000816070473C0000200B4810B5016841F4AD
:1009A00000710160016841F480610160016841F4F7
:1009B00080710160032000F06FF80F2000F006F84E
:1009C00000F024F8002010BD003C024070B50D4D31
:1009D00004464FF47A712878B1FBF0F00A490968AF
:1009E000B1FBF0F000F0ECFA48B9102C07D200226D
:1009F0002146501E00F030F800206C6070BD0120D0
:100A000070BD00003C000020480000200A4808B5E6
:100A1000016841F480410160006800F4804000906A
:100A20000548001F016841F080510160006800F036
:100A30008050009008BD000044380240002809DBC7
:100A400000F01F02012191404009800000F1E020E8
:100A5000C0F8001170470000F0B40E4B1B680C4644
:100A6000C3F30223C3F10705042D00D90425191D82
:100A7000072901D2002300E0DB1E012606FA05F15A
:100A8000491E214099409E40761E16403143F0BCDD
:100A900001F062BE0CED00E0064900F007020868B4
:100AA0004FF6FF03184040EA0220034A1043086053
:100AB000704700000CED00E00000FA052DE9F0475A
:100AC0000E46050065D0DFF81481D8F80000F7B2B3
:100AD00000F00700B04207D288F80070D8F8000094
:100AE00000F00700B04254D128683D4C810712D570
:100AF000400703D5206840F4E050206028780007C4
:100B000003D5206840F4604020602068A96820F088
:100B1000F000084320602878C0072DD0304968686D
:100B20000839012812D0022813D0032811D00968EF
:100B3000890700292DDA216821F003010143216092
:100B4000FFF71CFF814641F2883A0EE009688903ED
:100B5000EFE709688901ECE7FFF710FFA0EB090157
:100B6000514502D90320BDE8F0872068696800F08C
:100B70000C00B0EB810FEFD1D8F80010404601F027
:100B80000701B14207D90770006800F00700B042C2
:100B900001D00120E7E72878400705D52068E968FB
:100BA00020F4E050084320602878000706D520682C
:100BB000296920F4604040EAC100206000F018F884
:100BC0002168084AC1F30311515CC8400649086016
:100BD00006480068FFF7FAFE0020C4E7003C024028
:100BE00008380240462A0008480000204000002043
:100BF000154810B5006810F00C02144813D01449C1
:100C0000042A0FD0082A0ED10F4C241F2268236813
:100C100002F03F025B0207D52068C0F38810A0FBFA
:100C2000010106E0084610BD2168C1F38811A1FB4F
:100C300000010023FFF73EFB2168C1F30141491C7D
:100C40004900B0FBF1F010BD083802400024F40068
:100C500040787D012DE9F84F04006ED02078DFF850
:100C60004C93C007A9F104054AD009F104000168BA
:100C7000C1F38101012908D00068C0F38100022876
:100C80000AD1D9F80000400206D52868800337D57C
:100C900060680028E1D033E06068B0F5803F10D094
:100CA000B0F5A02F286810D020F480302860286884
:100CB00020F4802028606068A8B1FFF75FFE064638
:100CC0000DE0286840F48030F4E740F4802028608C
:100CD000F7E700BFFFF752FE801B642873D828682F
:100CE0008003F7D50CE0FFF749FE064605E000BF9C
:100CF000FFF744FE801B6428F0D828688003F7D4EF
:100D00002078DFF8AC8280074FF0000A3ED5A74874
:100D1000001D016811F00C0F08D00068C0F38100BD
:100D200002280BD1D9F80000400207D428688007B8
:100D300016D5E068012800D112E033E1E068B8B1CF
:100D40000120C8F80000FFF719FE064605E000BFC5
:100D5000FFF714FE801B0228C0D828688007F7D54B
:100D60002868216920F0F80040EAC10028600DE001
:100D7000C8F800A0FFF702FE064604E0FFF7FEFDFC
:100D8000801B02281FD828688007F7D42078000726
:100D900022D5864F87486169703771B101210160A2
:100DA000FFF7ECFD064604E0FFF7E8FD801B022894
:100DB00009D838688007F7D50EE0C0F800A0FFF723
:100DC000DDFD064605E082E0FFF7D8FD801B022826
:100DD0007DD838688007F7D42078400768D5DFF8D9
:100DE000CCB100270BF13C0BDBF80000C0000BD4AA
:100DF000DBF8001041F08051CBF80010DBF8000068
:100E0000012700F0805000906B4E3068C00510D470
:100E1000306840F480703060FFF7B0FD009005E06E
:100E2000FFF7ACFD0099401A022850D83068C00581
:100E3000F6D55E4EA0686C3601280FD005283068C4
:100E400010D020F001003060306820F004003060E5
:100E5000A068B8B1FFF792FD00900FE0306840F055
:100E60000100F4E740F004003060F7E7FFF786FD8B
:100E70000099411A41F28830814266D83068800773
:100E8000F4D50EE0FFF77AFD009007E0FFF776FD5E
:100E90000099411A41F28830814256D83068800763
:100EA000F4D42FB1DBF8001021F08051CBF8001002
:100EB000A069C8B33D49091D0968C1F38101022930
:100EC0004AD00228504607D0C8F8600000E03CE055
:100ED000FFF754FD04463BE04746C8F86000FFF7C3
:100EE0004DFD064605E000BFFFF748FD801B0228C8
:100EF0002BD828688001F7D4D4E907010843A16AF8
:100F00002E4A490802EB0141626A41EA8211084314
:100F100094F82C1040EA0161C9F8001001203866ED
:100F2000FFF72CFD044606E03EE000BFFFF726FD7C
:100F3000001B022809D828688001F7D534E000BFDB
:100F4000FFF71CFD001B022802D90320BDE8F88F23
:100F500028688001F4D427E00128F7D0D9F80000F0
:100F6000E26900F4800191421CD1226A00F03F0145
:100F7000914217D147F6C071626A0140B1EB821FFE
:100F800010D1A26A4FF0FF3300F4403103EB52025C
:100F9000B1EB024F06D194F82C1000F07060B0EB6A
:100FA000016F01D00120D1E70020CFE704380240D3
:100FB00000004742800E4742007000400000FFFFE3
:100FC00010B5401EB0F1807F01D3012010BD4FF05D
:100FD000E02460610F21601701F0BEFB0020A061DA
:100FE00007202061002010BD704770477047000047
:100FF00070B590F83C20012A2CD0012480F83C40A8
:10100000022280F83D2003685A689D6822F070062D
:101010000A6832435A60104B02689A420ED0B2F10D
:10102000804F0BD00D4B9A4208D00D4B9A4205D001
:101030000C4B9A4202D00C4B9A4204D1496825F0DD
:1010400080031943916080F83D40002180F83C10F6
:10105000084670BD022070BD000001400004004041
:1010600000080040000C00400040014010B50400A2
:1010700003D094F83D0010B10EE0012010BD002017
:1010800084F83C00204601F087FAA06C08B91148AA
:10109000A064014620468847022084F83D00211DB7
:1010A000206801F06BF9012084F8460084F83E00C6
:1010B00084F83F0084F8400084F8410084F842003E
:1010C00084F8430084F8440084F8450084F83D0027
:1010D000002010BDD910000810B586B004461421B8
:1010E0006846FFF701FA216800222848B1F1804FD5
:1010F0002AD0274B994236D1016841F002010160A4
:10110000006800F00200059020481038016841F0A6
:10111000010101600068694600F00100059040206F
:1011200000900220CDE90202019004901948FFF7D7
:101130002BFB002211461D20FFF78EFC5FF01D00E7
:10114000FFF77CFC06B010BD016841F001010160B1
:101150000068002200F00100059011461C20FFF7F6
:101160007BFC1C20ECE70C4A9142EBD1016841F07A
:10117000040101600068002200F00400059011469F
:101180001E20FFF769FC1E20DAE70000403802400D
:1011900000040040000002400008004090F83D10AC
:1011A000012901D001207047022180F83D1001681B
:1011B000CA6842F00102CA6000680E4988420ED037
:1011C000B0F1804F0BD00C49884208D00B498842BF
:1011D00005D00B49884202D00A49884204D181686F
:1011E00001F00701062903D0016841F00101016007
:1011F000002070470000014000040040000800404B
:10120000000C0040004001400168CA6822F0010261
:10121000CA6001680A6A41F211131A4207D10A6AC8
:101220009B101A4203D10A6822F001020A600121D0
:1012300080F83D100020704770B5044690F83C00DF
:101240000025012817D0012684F83C60022084F88C
:101250003D002068826822F0770222F47F4282609B
:101260000868502838D00DDC20284FD005DC90B31A
:10127000102811D14AE0022070BD302846D0402805
:101280000AD13BE060282FD070280DD0B0F5805FE8
:1012900003D0B0F5005F12D0012584F83D60002036
:1012A00084F83C00284670BDCB68D1E90121206854
:1012B00001F0BDF82068816841F0770109E0CB6852
:1012C000D1E90121206801F0B2F82068816841F479
:1012D00080418160E1E719E0CA684968206801F04F
:1012E00091F95021206806E0CA684968206801F039
:1012F000D1F96021206801F0A4F8CEE7CA684968F6
:10130000206801F07FF940212068F4E72268014657
:101310001046F0E77047000070B52B4C2B4D606A0B
:10132000A8B1012825D10021284600F0BAFBE061D0
:1013300029680A6A22F00A020A6229680A6A0A62AD
:10134000A1690025814215D92846256215E00021B2
:101350001E4800F0A6FBA061606A401C606228681D
:10136000016A21F00A0101622868016A41F0020164
:10137000016270BDC943084420624FF47A71B0FB2A
:10138000F1F000EE100AB8EE400A10EE100AB0F1CB
:10139000804F01DA606909E010EE100A0C498842BA
:1013A00001DB6420A0606069401C6061022807D1F5
:1013B0000648B438FFF728FF0421044800F0D8FAA3
:1013C000A561656270BD00000000002000010020E2
:1013D0000000404070472DE9F041054690F83C0080
:1013E00000260C46012810D0012085F83C0072B17F
:1013F000042A1CD0082A2CD00C2A50D00126002008
:1014000085F83C003046BDE8F0810220FBE7D4E9D6
:101410000012E368286801F007F92868816921F063
:101420000C01816128688169A26811430FE0D4E949
:101430000012E368286801F03FF92868816921F407
:101440004061816128688169A26841EA0221816165
:10145000D5E72868D4E9002C277B016A21F4807144
:101460000162C169036A21F0030141EA0C0121F024
:10147000F00C39074FF420674CEA116123F4206324
:1014800007EA02221A43C16102622868C16921F099
:101490000C01C1612868C169A268114328E028686D
:1014A000D4E90027E168036A23F480530362D0F88B
:1014B0001CC0036A2CF4407C4CEA07274FF6FF7CE3
:1014C00027F470470CEA013139434FF4204723F4E5
:1014D000204307EA02321A43C16102622868C169E7
:1014E00021F44061C1612868C169A26841EA022112
:1014F000C16184E710B5040003D094F83D0010B139
:101500000EE0012010BD002084F83C00204601F0D0
:1015100043F8206D08B911482065014620468847E8
:10152000022084F83D00211D206800F027FF0120E3
:1015300084F8460084F83E0084F83F0084F84000B8
:1015400084F8410084F8420084F8430084F84400A1
:1015500084F8450084F83D00002010BD61150008A6
:101560007047000030B50446002551B104290DD064
:10157000082910D094F8412094F84500012A11D18F
:101580000EE094F83E2094F84200F7E794F83F20EC
:1015900094F84300F2E794F8402094F84400EDE713
:1015A000012801D0012030BD022059B1042912D0F8
:1015B000082919D084F8410084F845000C293ED050
:1015C00001253AE084F83E0084F842002068C268B1
:1015D00042F0020210E084F83F0084F843002068E3
:1015E000C26842F0040207E084F8400084F8440036
:1015F0002068C26842F00802C2600122206800F040
:1016000009FF1149206888420ED0B0F1804F0BD0FD
:101610000E49884208D00E49884205D00D498842BB
:1016200002D00D49884204D1816801F007010629E2
:1016300003D0016841F001010160284630BD2068F7
:10164000C26842F01002D7E70000014000040040E9
:1016500000080040000C00400040014070B5044606
:10166000006801694FF00005C943890717D4C168B4
:10167000C943890713D4E91E01610120207720683E
:101680008069800702D0D4F8901005E0D4F8981053
:1016900020468847D4F89C10204688472577206844
:1016A0000169C943490719D4C168C943490715D419
:1016B0006FF004010161022020772068806910F436
:1016C000407F02D0D4F8901005E0D4F8981020465E
:1016D0008847D4F89C102046884725772068016900
:1016E000C943090718D4C168C943090714D46FF066
:1016F00008010161042020772068C069800702D0BA
:10170000D4F8901005E0D4F8981020468847D4F813
:101710009C1020468847257720680169C943C9067F
:1017200019D4C168C943C90615D46FF0100101610D
:10173000082020772068C06910F4407F02D0D4F8D8
:10174000901005E0D4F8981020468847D4F89C10F3
:1017500020468847257720680169C943C90709D110
:10176000C168C943C90705D1891E0161D4F8801039
:101770002046884720680169C94309060AD4C16820
:10178000C943090606D46FF080010161D4F8B01096
:101790002046884720680169C94349060AD4C168C0
:1017A000C943490606D46FF040010161D4F888109E
:1017B0002046884720680169C94389060CD4C1685E
:1017C000C943890608D46FF0200101612046D4F88E
:1017D000A810BDE87040084770BD000010B586B085
:1017E000044614216846FEF77FFE0D4920688842B2
:1017F00014D10C480021026842F001020260006826
:1018000000F001000590802000900220CDE9010148
:10181000CDE9031069460448FEF7B6FF06B010BDD7
:10182000000400403038024000000240704770B5AC
:10183000044690F83C0000260D4601280FD00120F8
:1018400084F83C006AB1042A1DD0082A2FD00C2A43
:101850003FD00126002084F83C00304670BD0220B5
:1018600070BD206800F0F6FD2068816941F0080134
:1018700081612068816921F00401816120688169AA
:101880002A69114311E0206800F00CFE206881698C
:1018900041F4006181612068816921F48061816186
:1018A000206881692A6941EA02218161D2E72068C2
:1018B00000F024FE2068C16941F00801C161206880
:1018C000C16921F00401C1612068C1692A6911431D
:1018D00011E0206800F03EFE2068C16941F400611B
:1018E000C1612068C16921F48061C1612068C1695A
:1018F0002A6941EA0221C161ACE7000010B5040089
:1019000003D094F83D0010B10EE0012010BD00207E
:1019100084F83C00204600F03FFE206E08B91148D4
:101920002066014620468847022084F83D00211D9C
:10193000206800F023FD012084F8460084F83E0072
:1019400084F83F0084F8400084F8410084F84200A5
:1019500084F8430084F8440084F8450084F83D008E
:10196000002010BD691900087047704770470000DB
:1019700010B50446022249B104290ED0082913D01B
:1019800094F84100012816D0012010BD94F83E00C3
:101990000128F9D184F83E200FE094F83F00012897
:1019A000F2D184F83F2008E094F840000128EBD100
:1019B00084F8402001E084F841200122206800F0F2
:1019C00029FD12492068884203D1426C42F400424A
:1019D0004264206888420ED0B0F1804F0BD00C4991
:1019E000884208D00B49884205D00B49884202D072
:1019F0000A49884204D1816801F00701062903D011
:101A0000016841F001010160002010BD00000140AB
:101A10000004004000080040000C0040004001406D
:101A200010B5016801221C4CB1F1804F04D1226134
:101A3000E16871B1491EE16000681849884220D10F
:101A4000A06A002807DB00F0DDFFA06A401EA0624C
:101A500002E0E260F0E7E262232813D007DC052809
:101A600016D00F2811D019280BD1400108E02D28DD
:101A700004D0332805D14FF4FA6001E04FF47A70B6
:101A8000206310BD4FF46170FAE74FF42F70F7E751
:101A90004FF41670F4E7000000000020000800403A
:101AA00070470246002041B1042909D008290AD014
:101AB0000C2901D11068006C70471068406B7047AA
:101AC0001068806B70471068C06B70477047704734
:101AD000FEE700002DE9F05F724C4FF480590022C0
:101AE00049462046FEF745FF4FF4005A0122514671
:101AF0002046FEF73EFF4FF4804B01225946204618
:101B0000FEF737FFA51529462046FEF72DFF0028D2
:101B10006AD0661531462046FEF726FF00286BD0B6
:101B2000271539462046FEF71FFF00286CD04FF4DA
:101B3000006841462046FEF717FF002870D00122BA
:101B400049462046FEF715FF002251462046FEF783
:101B500010FF012259462046FEF70BFF294620467A
:101B6000FEF702FF002864D031462046FEF7FCFE57
:101B7000002866D039462046FEF7F6FE002868D0D9
:101B800041462046FEF7F0FE00286AD00122494671
:101B90002046FEF7EEFE012251462046FEF7E9FE02
:101BA000002259462046FEF7E4FE29462046FEF76D
:101BB000DBFE88B331462046FEF7D6FE68B33946D1
:101BC0002046FEF7D1FE50B3454641462046FEF77B
:101BD000CBFE002806D129462046FEF7C5FE002888
:101BE000F9D02320BDE8F09F29462046FEF7BCFE31
:101BF0000028F9D03120F5E731462046FEF7B4FE43
:101C00000028F9D03420EDE739462046FEF7ACFE37
:101C10000028F9D03720E5E72CE033E000E039E098
:101C2000454629462046FEF79FFE0028F9D02A2087
:101C3000D8E729462046FEF797FE0028F9D0322043
:101C4000D0E731462046FEF78FFE0028F9D0352038
:101C5000C8E739462046FEF787FE0028F9D038202D
:101C6000C0E7454629462046FEF77EFE0028F9D00B
:101C70003020B7E729462046FEF776FE0028F9D047
:101C80003320AFE731462046FEF76EFE0028F9D03C
:101C90003620A7E739462046FEF766FE0028F9D031
:101CA00039209FE7000802402DE9F0471A4E05460B
:101CB000002220213046FEF75CFE00224021304603
:101CC000FEF757FEDFF8549001244FF6FF774FF4EC
:101CD000807800BF05F0010221464846FEF749FE24
:101CE0006D0807EA44044445F4D1012280213046BE
:101CF000FEF73FFE002000F07FFD002280213046ED
:101D0000FEF737FE042D01D2022000E00120BDE8DD
:101D1000F04700F071BD00000004024000080240DE
:101D20002DE9F047184E0546012220213046FEF7E6
:101D300020FE002240213046FEF71BFEDFF84C90CB
:101D400001244FF6FF774FF4807800BF05F00102C1
:101D500021464846FEF70DFE6D0807EA4404444557
:101D6000F4D1012280213046FEF703FE002000F06E
:101D700043FD002280213046FEF7FBFDBDE8F04721
:101D8000012000F039BD00000004024000080240BC
:101D900010B51E2000F030FD3020FFF785FF0A202F
:101DA00000F02AFD3020FFF77FFF012000F024FD26
:101DB0003020FFF779FF3820FFF776FF0620FFF786
:101DC00073FF0120FFF770FFBDE810400F20FFF701
:101DD0006BBF000070B50E4C4FF4FA754FF0010266
:101DE00088B1D60231460B48FEF7C3FD284600F005
:101DF00003FD002231462046FEF7BBFD2846BDE824
:101E0000704000F0F9BC4FF4004631462046EBE745
:101E10000008024000040240074810B50068406A0C
:101E2000FEF744FBFEF70CFAC11700EB917121F0AD
:101E30000301401A10BD00000001002010B50C4C39
:101E400000224FF480712046FEF793FD00226115B9
:101E50002046FEF78EFD002221152046FEF789FD63
:101E6000BDE8104000224FF400410248FEF781BD5A
:101E7000000402400008024070B51648FFF7C4F99C
:101E80001548FFF7C1F9154C4FF4CA751DE0012044
:101E9000FFF70AFF4C20FFF743FF4F20FFF740FFFB
:101EA0004F20FFF73DFF5320FFF73AFF4520FFF794
:101EB00037FF5220FFF734FF0020FFF78BFF012090
:101EC000FFF7F2FE0020FFF785FFA068A842DED0F2
:101ED00070BD00004C000020B40100200000002074
:101EE0002DE9F04186B014216846FEF7FDFA464818
:101EF0000025016841F004010160016801F004015E
:101F00000591016841F001010160016801F00101E2
:101F10000591016841F00201016000683B4E00F04C
:101F20000200059000224FF2FF013046FEF721FD2E
:101F3000374F002240F23F113846FEF71AFDDFF816
:101F4000D48000224FF4FE614046FEF712FD47F2B6
:101F5000FF0001248DE83100694630460395FEF705
:101F600013FCE003CDE9000469463046CDE90245A3
:101F7000FEF70AFC3F20CDE9000469463846CDE96A
:101F80000245FEF701FC4FF4E060CDE9000469462C
:101F90004046CDE90245FEF7F7FB4FF47060CDE90E
:101FA0000005694602943046FEF7EEFB20028DE8FC
:101FB0003100694638460395FEF7E6FB4FF4F050D2
:101FC00000904FF48810CDE9010469463846FEF7C9
:101FD000DBFBF0208DE83100694640460395FEF7B3
:101FE000D3FB002211461720FEF736FD1720FEF71F
:101FF00025FD002211462820FEF72EFD2820FEF7A1
:102000001DFD06B0BDE8F0813038024000080240F6
:10201000000002400004024010B586B000241648BB
:10202000009401940294039404944FF08041059429
:10203000016043F67F61C0E90114C910C0E90314CF
:102040008461FFF713F808B172B6FEE74FF48050D1
:10205000009069460848FFF7EFF808B172B6FEE74E
:10206000049404A904480594FEF7C2FF002801D097
:1020700072B6FEE706B010BD4C00002010B592B05D
:1020800000240B940C940D940E940F9410940794C8
:10209000089409941C2168460A94FEF725FA2948F9
:1020A0002749016043F67F61C0E901144FF6FF71D3
:1020B000C0E9031480218161FEF7D8FF08B172B630
:1020C000FEE74FF480500B900BA91E48FFF7B4F8C1
:1020D00008B172B6FEE71B48FFF70CFA08B172B6FA
:1020E000FEE71848FFF70AFC08B172B6FEE70F9446
:1020F0000FA914481094FEF77BFF08B172B6FEE7F3
:102100000120CDE907400994002207A90D480A944F
:10211000FFF761F908B172B6FEE76020CDE900046F
:1021200002940422694607480494FFF780FB08B133
:1021300072B6FEE70348FFF751FB12B010BD000076
:10214000000400400001002010B586B000241748AC
:10215000009401940294039404941349059401603B
:1021600043F67F61C0E901140911C0E9031480211D
:102170008161FEF77BFF08B172B6FEE74FF4805035
:10218000009069460948FFF757F808B172B6FEE7B4
:10219000049404A905480594FEF72AFF002801D0FD
:1021A00072B6FEE706B010BD00080040B401002082
:1021B000FEE7FEE77047000070B5404CA51550B330
:1021C000012843D0022861D0032876D1012211468C
:1021D0002046FEF7CEFB012202212046FEF7C9FB76
:1021E000012204212046FEF7C4FB012208212046DB
:1021F000FEF7BFFB002210212046FEF7BAFB0022AB
:1022000020212046FEF7B5FB012229462046BDE8E5
:102210007040FEF7AEBB012211462046FEF7A9FB37
:10222000012202212046FEF7A4FB012204212046C0
:10223000FEF79FFB012208212046FEF79AFB0122B0
:1022400010212046FEF795FB012219E00022012112
:102250002046FEF78EFB012202212046FEF789FB75
:10226000012204212046FEF784FB0022082120469B
:10227000FEF77FFB002210212046FEF77AFB0022AA
:1022800020212046FEF775FB0022BEE70122114601
:102290002046FEF76EFB012202212046FEF769FB75
:1022A000002204212046FEF764FB0122082120467B
:1022B000FEF75FFB01229EE7FFE770BD00000240D2
:1022C0007047FEF761BB000010B592B03021684640
:1022D000FEF70AF914210CA8FEF706F918480024A5
:1022E000016841F080510160006800F08050119059
:1022F0001448016821F4404141F400410160006844
:10230000069400F4404011900220009001200390B8
:10231000102004906846FEF79DFC08B172B6FEE7F7
:102320000F20CDE90C040E940F9400210CA81094FA
:10233000FEF7C4FB002801D072B6FEE712B010BD54
:1023400040380240007000400248016841F47001CA
:102350000160704788ED00E00148FFF77FB9000099
:102360004C0000200148FFF779B90000000100206F
:102370000148FFF773B90000B4010020F0B502680E
:102380001D4B1E4C9F031E4D1E4E984207D0B84257
:1023900005D0A04203D0A84201D0B04204D122F01F
:1023A000700C4A6842EA0C02984210D0B8420ED033
:1023B000A0420CD0A8420AD0B04208D0124CA04291
:1023C00005D0124CA04202D0114CA04203D122F4FD
:1023D0004074CA6822434C6922F0800222430260A2
:1023E0008A68C2620A688262984201D109690163FF
:1023F00001214161F0BD00000000014000040040E7
:1024000000080040000C0040004001400044014032
:102410000048014010B501F01F030121046A9940F2
:102420008C430462016A9A401143016210BD10B5E9
:10243000846842EA032224F47F440A4322438260F0
:1024400010BD826822F070020A4342F007018160E9
:102450007047000030B5026A22F001020262026A8F
:102460004368846924F073050C682C4322F002054C
:102470008A682A430A4DA8420BD122F00805CA688F
:1024800023F440732A434D6922F004021D438B69F3
:102490002B434360846149684163026230BD0000A0
:1024A0000000014030B5026A22F010020262026AA6
:1024B000436884690D6824F4E64444EA05248D6881
:1024C00022F0200242EA05120B4DA8420ED1CD683F
:1024D00022F0800242EA05124D6923F4406343EA88
:1024E00085038D6922F0400243EA850343608461DD
:1024F00049688163026230BD0000014030B5026A64
:1025000022F480720262036A4268C46923F4007391
:1025100024F073050C682C438D6843EA05230C4DA9
:10252000A8420ED1CD6823F4006343EA05234D6928
:1025300022F4405242EA05128D6923F4806342EA94
:1025400005124260C4614968C163036230BD000086
:102550000000014030B5026A22F480520262046A2F
:102560004268C3690D6823F4E64343EA05238D6896
:1025700024F4005444EA0534064DA84204D14D69C0
:1025800022F4804242EA85124260C36149680164D4
:10259000046230BD000001400D4940F8801F0D4924
:1025A00041600D4981600D49C1600D4901610D49CE
:1025B00041610D4981610D49C1610D4901620D49BA
:1025C00041620D4981620D49C1620D490163704745
:1025D000211A0008A11A0008CD1A0008CF1A000815
:1025E00019130008D51300082D1800086B190008EE
:1025F0006D19000815130008EB0F0008ED0F000817
:10260000E90F000810B5036A046A24F001040462AB
:10261000846924F0F00444EA021423F00A020A4315
:102620008461026210BD000070B5046A24F00104E8
:1026300004628469056A124EB0420ED0B0F1804F38
:102640000BD0104EB04208D00F4EB04205D00F4E06
:10265000B04202D00E4EB04203D124F00304144322
:1026600001E044F001041A0724F0F00444EA126285
:1026700025F00A0301F00A0119438261016270BD6D
:10268000000001400004004000080040000C004031
:102690000040014010B5036A23F010030362836910
:1026A000046A23F4704343EA023224F0A00343EAAD
:1026B00001118261016210BD30B5046A24F010047A
:1026C00004628469056A24F4407444EA022222F414
:1026D00070444FF6FF7202EA03322243A02425F031
:1026E000A00304EA011119438261016230BDFEE7D3
:1026F00070B51648FEF788FD1548FEF785FD154CA8
:1027000040F2B1151DE00120FFF7CEFA5720FFF788
:1027100007FB4920FFF704FB4E20FFF701FB4E208B
:10272000FFF7FEFA4520FFF7FBFA5220FFF7F8FA11
:102730000120FFF74FFB0120FFF7B6FA0120FFF75A
:1027400049FBA068A842DED070BD00004C0000200C
:10275000B4010020000000200907090E002804DB56
:1027600000F1E02080F80014704700F00F0000F145
:10277000E02080F8141D704770B50A4C05462068AB
:1027800000EB800005EB4000303820602846FFF762
:10279000C7FA2A2D04D16420A06000202060606167
:1027A00070BD00000000002010B5104C10492068DA
:1027B000884203D00E490F3188420CD1A068401CDA
:1027C000A0602069401C20614FF4FA70FDF77CFF87
:1027D0000848FEF7E3FC6068002806D105480021A0
:1027E000B430FEF7BFFE0120606010BD0000002085
:1027F000C4CFCB054C00002040F67B4205E0002111
:1028000000BF491C9142FBDB401E0028F7DC7047EB
:102810000A4810B5022181603B218162002141619B
:102820000120FFF741FA3620FFF77AFA3020FFF750
:1028300077FABDE810400248FEF7B0BC0000002067
:10284000B4010020FEF7A8F8FFF73EFDFFF748FBB4
:10285000FFF714FCFFF7E0FBFFF776FCFFF798FAB1
:102860004B4E4C4C0025A06802283FD1206BFFF74F
:10287000C3FF606B002804DDA06B401CA063FFF762
:102880009BFCA06B032809DB4FF4CA70A0600122F7
:1028900010213046FEF76DF8FFF7EEFAFFF7CEFA9B
:1028A000FFF7BAFA30B101280BD0022810D0032864
:1028B0001CD114E0012211023046FEF75AF8012023
:1028C00013E0012251023046FEF753F802200CE0DB
:1028D000012291023046FEF74CF8032005E0012268
:1028E000D1032D48FEF745F804206063E06A50B13B
:1028F00040F2B110E562A060012210213046FEF7DF
:1029000038F8FFF7F5FEA06838B9FFF7E3F80128BB
:1029100001D0FFF731FFFFF747FFA068012807D17B
:10292000206901282CD1FFF7BFF900F03BF82561A1
:10293000A068642824D1002210213046FEF719F83F
:10294000FFF77CFAA5602560E56025616561A561FA
:10295000E5613B212562C4E9095140F6B831C4E97B
:102960000B516563A56328466560FFF725FC0B489E
:10297000FEF74AFC0A48FEF747FC0120FFF794F9EE
:10298000606902287FF46FAFFFF742FF6BE700003A
:102990000004024000000020000802404C0000201B
:1029A000B4010020164810B5C06801281AD0412093
:1029B000FFF7B6F95FF05200FFF7B2F92E20FFF7EC
:1029C000AFF94120FFF7ACF94D20FFF7A9F94920F5
:1029D000FFF7A6F94E20FFF7A3F9BDE81040492004
:1029E000FFF79EB94D20FFF79BF95220FFF798F9AA
:1029F0004520FFF795F95A20FFF792F94120DBE7D0
:102A00000000002030B599B00120FFF74DF90948CA
:102A100009A1826A6846FDF7C5FC00246D46285D61
:102A2000002804D0FFF77CF9641C652CF7DB19B093
:102A300030BD000000000020256400004FF0407011
:102A4000E1EE100A704700000000000000000102E3
:102A50000304060708090000782A00080000002087
:102A60004C000000D0010008C42A00084C000020DF
:102A700064090000EC0100080000000000000000F4
:102A80000000000000000000000000000000000046
:102A90000000000000000000000000000000000036
:102AA0000000000000000000B80B00000000000063
:102AB0000000000001000000100000000000000005
:042AC0000024F400FA
:040000050800019559
:00000001FF
