:020000040800F2
:1000000080060020350200083D0200083F0200087B
:1000100041020008430200084502000800000000F9
:10002000000000000000000000000000470200087F
:1000300049020008000000004B0200084D020008C1
:100040004F0200084F0200084F0200084F0200084C
:100050004F0200084F0200084F0200084F0200083C
:100060004F0200084F0200084F0200084F0200082C
:100070004F0200084F0200084F0200084F0200081C
:100080004F0200084F0200084F0200080000000065
:100090000000000000000000000000004F02000807
:1000A0004F0200084F0200084F0200084F020008EC
:1000B0004F0200084F0200084F0200084F020008DC
:1000C0004F0200084F0200084F0200084F020008CC
:1000D0004F0200084F0200084F0200080000000015
:1000E0004F0200084F0200084F0200080000000005
:1000F0000000000000000000000000004F020008A7
:10010000000000004F0200084F0200084F020008E4
:1001100000000000000000000000000000000000DF
:100120004F0200084F0200084F0200084F0200086B
:100130004F02000800000000000000000000000066
:100140000000000000000000000000004F02000856
:100150004F0200084F0200084F0200084F0200083B
:100160004F0200084F0200080000000000000000DD
:10017000000000000000000000000000000000007F
:10018000000000004F020008000000000000000016
:100190004F02000800F002F800F03CF80AA090E8D6
:1001A000000C82448344AAF10107DA4501D100F032
:1001B00031F8AFF2090EBAE80F0013F0010F18BFC3
:1001C000FB1A43F001031847AC030000CC03000006
:1001D000103A24BF78C878C1FAD8520724BF30C873
:1001E00030C144BF04680C60704700000023002445
:1001F00000250026103A28BF78C1FBD8520728BF37
:1002000030C148BF0B6070471FB500F0A6F91FBD95
:1002100010B510BD00F031F81146FFF7F5FF00F002
:10022000E1F800F04FF803B4FFF7F2FF03BC00F071
:1002300057F800000948804709480047FEE7FEE7F5
:10024000FEE7FEE7FEE7FEE7FEE7FEE7FEE7FEE786
:1002500004480549054A064B704700002903000879
:100260009501000880000020800600208002002008
:1002700080020020704770477047754600F02CF8E8
:10028000AE4605006946534620F00700854618B083
:1002900020B5FFF7DDFFBDE820404FF000064FF02E
:1002A00000074FF000084FF0000BAC46ACE8C00967
:1002B000ACE8C009ACE8C009ACE8C00921F007010E
:1002C0008D46704710B50446AFF300802046BDE868
:1002D0001040FFF7A8BF000000487047080000204A
:1002E00001491820ABBEFEE726000200704700005F
:1002F00009288EBF002002A151F82000704700BFDE
:100300007E000000300000006D0000007900000059
:10031000330000005B0000005F0000007000000080
:100320007F0000007B0000004EF68850CEF20000F7
:10033000016841F470010160704700000128B8BFF6
:10034000704700BF4FF47A61013900BFFCD101381A
:10035000F8DC704740F2780CC2F2000CDCF80020A8
:1003600040F61003C4F202033AB919680140814211
:1003700004BFCCF800007047EAB1186810F4406F71
:1003800018BF7047B2F5806F04D140F26800C2F226
:1003900000000AE040F27400C2F200000068012888
:1003A00006D140F26C00C2F2000001680131016028
:1003B0000020CCF80000704743F63000C4F2020081
:1003C000016841F00401016040F6000045F255511A
:1003D000C4F20200C0F2050101604FF42001C160C7
:1003E00070470000FFF7E8FF00F07EF840F2680475
:1003F00040F2000640F2740A40F26C0740F2040535
:1004000040F27009C2F200044FF0000BC2F2000685
:100410004FF00908C2F2000AC2F20007C2F200055A
:10042000C2F2000903E000BF0138C9F800002068EB
:1004300002280AD10120C4F800B0C6F80080CAF82A
:10044000000000F043F800F05DF83868032805D09C
:10045000042805D10120C7F800B000E00020286082
:100460004FF40060FFF776FF4FF48060FFF772FFF4
:100470000120FFF763FFD9F800000028D4D12868D5
:1004800001284FF47A70C9F80000D0D1306830B13B
:10049000DAF80000012810D100F018F80FE000F0A1
:1004A00031F8DAF80000C6F80080002812BFCAF858
:1004B00000B00120CAF80000B9E700F015F800F01C
:1004C00021F8306801383060B1E7000040F61400D0
:1004D000C4F20200016841F480710160016821F4F6
:1004E000007101607047000040F61400C4F2020081
:1004F000016841F400710160016821F480710160BC
:100500007047000010B540F20400C2F2000000681D
:10051000012818BF10BD40F2740040F61404C2F266
:100520000000C4F2020400682168012841F0800242
:1005300008BF21F080022260206820F07F00206048
:1005400040F20000C2F200000068FFF7D1FE21680F
:1005500000F07F000843206010BDF1EE100A4FF656
:10056000FF71C0F2C03120EA010040F04070E1EEBE
:10057000100A7047980500080000002008000000DD
:10058000D0010008A005000808000020780600003F
:10059000EC0100080000000009000000010000005C
:040000050800019559
:00000001FF
