:020000040800F2
:10000000B0040020A9010008E31200080310000852
:10001000E1120008E1020008A3140008000000003B
:10002000000000000000000000000000E7120008CF
:10003000E302000800000000E5120008E9120008D1
:10004000C3010008C3010008C3010008C301000880
:10005000C3010008C3010008C3010008C301000870
:10006000E5020008EB020008F1020008C3010008E5
:10007000C3010008C3010008C3010008C301000850
:10008000C3010008C3010008C3010008000000000C
:10009000000000000000000000000000C301000894
:1000A000C3010008C3010008C3010008C301000820
:1000B00089130008C3010008C3010008C301000838
:1000C000C3010008C3010008C3010008C301000800
:1000D000C3010008C3010008C301000800000000BC
:1000E000C3010008C3010008C301000800000000AC
:1000F000000000000000000000000000C301000834
:1001000000000000C3010008C3010008C30100088B
:1001100000000000000000000000000000000000DF
:10012000C3010008C3010008C3010008C30100089F
:10013000C3010008000000000000000000000000F3
:10014000000000000000000000000000C3010008E3
:10015000C3010008C3010008C3010008C30100086F
:10016000C3010008C30100080000000000000000F7
:10017000000000000000000000000000000000007F
:1001800000000000C30100080000000000000000A3
:10019000C3010008DFF80CD000F090F800480047D9
:1001A00085160008B004002006488047064800472E
:1001B000FEE7FEE7FEE7FEE7FEE7FEE7FEE7FEE717
:1001C000FEE7FEE76D130008950100082DE9F05FDA
:1001D0000546002092469B468846064681464024B6
:1001E0001BE0284641464746224600F057F8534652
:1001F0005A46C01A914110D311461846224600F0C3
:100200003EF82D1A67EB01084F46224601200021D7
:1002100000F035F817EB00094E41201EA4F101044F
:10022000DFDC484631462A464346BDE8F09FD2B25D
:1002300001E000F8012B491EFBD270470022F6E7CF
:1002400010B513460A4604461946FFF7F0FF20464C
:1002500010BD30B50B46014600202022012409E0E4
:1002600021FA02F59D4205D303FA02F5491B04FA6F
:1002700002F52844151EA2F10102F1DC30BD202A4E
:1002800004DB203A00FA02F1002070479140C2F1ED
:10029000200320FA03F3194390407047202A04DB1F
:1002A000203A21FA02F00021704721FA02F3D040EF
:1002B000C2F120029140084319467047064C074D91
:1002C00006E0E06840F0010394E807009847103426
:1002D000AC42F6D3FFF762FF90170008B017000892
:1002E000FEE77047042000F061B8082000F05EB817
:1002F000102000F05BB800002DE9F0410025254CEE
:100300009AB0042817D00126082818D0102813D135
:1003100025606560C4E90256012000F073FE206884
:100320000090D4E901321CA101A801F0BBF800271C
:100330000DF1040809E0E5601AB0BDE8F081E6605F
:10034000FAE700BF00F09AFE7F1C18F807000028AB
:10035000F8D115486169C1B165610068406AE06122
:10036000A169401A40F6B8318842E5DD17202661C0
:1003700000F058F9282000F055F90B48403800F0FB
:10038000ECFC094800F0D3FCD6E70068406AC4E9F9
:100390000560D1E700000020252E32643A252E3278
:1003A000643A252E3364000070000020044910B523
:1003B0000A68024202D00860FFF79EFF10BD0000ED
:1003C000143C01402DE9F84F00224FF001080325AD
:1003D0004FF00F0E0B6808FA02F42340A34271D1CC
:1003E0004E68012E05D0022E03D0112E01D0122E00
:1003F00015D18668570005FA07FC26EA0C06D1F8E5
:100400000CC00CFA07FC4CEA060CC0F808C04668A1
:10041000A6430C79C4F30014944034434460C66886
:10042000570005FA07FC8C6826EA0C06BC403443EA
:10043000C4604C68022C01D0122C13D1D40800EBFC
:100440008404A346D4F8209054074FEAD46A0EFAE5
:100450000AF629EA06090E6906FA0AF646EA0906C4
:10046000CBF8206004680E7924EA0C0406F0030639
:10047000BE40264306604C68E40056D52E4C2668E4
:1004800046F480462660246822F0030604F4804483
:1004900000942A4C3444A446D4F808489607370FF1
:1004A0000EFA07F6B443264EB04201D1002615E0FD
:1004B000244EB04201D1012610E0234EB04202D1B9
:1004C00002260BE031E0214EB04201D1032605E0C7
:1004D0001F4EB04201D1042600E00726BE4026434D
:1004E000CCF808681B4E34684F689C43FF0300D566
:1004F0001C433460174E361D34684F689C43BF035D
:1005000000D51C433460134E083634684F689C4352
:10051000FF0200D51C4334600E4E0C3634684F6821
:100520009C43BF0200D51C433460521C102AFFF4C8
:1005300051AFBDE8F88F0000443802400030014060
:10054000000002400004024000080240000C02408B
:1005500000100240003C01400AB18161704709046B
:10056000FBE7000001488068704700002000002081
:1005700002488168027811448160704720000020A1
:100580000B4810B5016841F400710160016841F445
:1005900080610160016841F480710160032000F016
:1005A0007FF8002000F006F800F024F8002010BDCD
:1005B000003C024070B50D4D04464FF47A71287826
:1005C000B1FBF0F00A490968B1FBF0F000F0F4FA71
:1005D00048B9102C07D200222146501E00F040F8E6
:1005E00000206C6070BD012070BD00002000002064
:1005F0002C0000200A4808B5016841F480410160E0
:10060000006800F4804000900548001F016841F038
:1006100080510160006800F08050009008BD00002B
:100620004438024000280DDB00F01F0201219140F8
:100630004009800000F1E020C0F88011BFF34F8F27
:10064000BFF36F8F7047002809DB00F01F02012104
:1006500091404009800000F1E020C0F8001170478F
:10066000F0B40E4B1B680C46C3F30223C3F107051D
:10067000042D00D90425191D072901D2002300E00B
:10068000DB1E012606FA05F1491E214099409E40D5
:10069000761E16403143F0BC00F018BF0CED00E0B0
:1006A000064900F0070208684FF6FF03184040EAC9
:1006B0000220034A10430860704700000CED00E080
:1006C0000000FA052DE9F0470E46050065D0DFF879
:1006D0001481D8F80000F7B200F00F00B04207D242
:1006E00088F80070D8F8000000F00F00B04254D134
:1006F00028683D4C810712D5400703D5206840F497
:10070000E05020602878000703D5206840F460405E
:1007100020602068A96820F0F00008432060287855
:10072000C0072DD0304968680839012812D0022846
:1007300013D0032811D00968890700292DDA216810
:1007400021F0030101432160FFF70CFF814641F2D4
:10075000883A0EE009688903EFE709688901ECE748
:10076000FFF700FFA0EB0901514502D90320BDE8C6
:10077000F0872068696800F00C00B0EB810FEFD1C2
:10078000D8F80010404601F00F01B14207D90770B8
:10079000006800F00F00B04201D00120E7E72878A0
:1007A000400705D52068E96820F4E0500843206040
:1007B0002878000706D52068296920F4604040EABF
:1007C000C100206000F018F82168084AC1F3031145
:1007D000515CC8400649086006480068FFF7EAFE19
:1007E0000020C4E7003C024008380240801700089F
:1007F0002C00002024000020154810B5006810F0DF
:100800000C02144813D01449042A0FD0082A0ED120
:100810000F4C241F2268236802F03F025B0207D5B9
:100820002068C0F38810A0FB010106E0084610BD57
:100830002168C1F38811A1FB00010023FFF7C6FC6A
:100840002168C1F30141491C4900B0FBF1F010BD22
:10085000083802400024F40040787D012DE9F84F6B
:1008600004006ED02078DFF83C93C007A9F104059E
:100870004AD009F104000168C1F38101012908D0BF
:100880000068C0F3810002280AD1D9F800004002B4
:1008900006D52868800337D560680028E1D033E0AA
:1008A0006068B0F5803F10D0B0F5A02F286810D058
:1008B00020F480302860286820F480202860606858
:1008C000A8B1FFF74FFE06460DE0286840F48030DF
:1008D000F4E740F480202860F7E700BFFFF742FE0E
:1008E000801B642873D828688003F7D50CE0FFF7D5
:1008F00039FE064605E000BFFFF734FE801B642882
:10090000F0D828688003F7D42078DFF89C8280072D
:100910004FF0000A3ED5A348001D016811F00C0FEE
:1009200008D00068C0F3810002280BD1D9F800007C
:10093000400207D42868800716D5E068012800D156
:1009400012E02BE1E068B8B10120C8F80000FFF721
:1009500009FE064605E000BFFFF704FE801B0228E3
:10096000C0D828688007F7D52868216920F0F800EA
:1009700040EAC10028600DE0C8F800A0FFF7F2FDD2
:10098000064604E0FFF7EEFD801B02281FD828680A
:100990008007F7D42078000722D5824E834861690A
:1009A000703671B101210160FFF7DCFD074604E0FC
:1009B000FFF7D8FDC01B022809D830688007F7D59B
:1009C0000EE0C0F800A0FFF7CDFD074605E082E08D
:1009D000FFF7C8FDC01B02287DD830688007F7D418
:1009E0002078400768D5DFF8BCB100270BF13C0B3D
:1009F000DBF80000C0000BD4DBF8001041F08051A0
:100A0000CBF80010DBF80000012700F080500090C8
:100A1000674E3068C00510D4306840F48070306094
:100A2000FFF7A0FD009005E0FFF79CFD0099401A3C
:100A3000022850D83068C005F6D55A4EA0686C36EA
:100A400001280FD00528306810D020F00100306058
:100A5000306820F004003060A068B8B1FFF782FD74
:100A600000900FE0306840F00100F4E740F004002F
:100A70003060F7E7FFF776FD0099411A41F28830C0
:100A8000814266D830688007F4D50EE0FFF76AFD32
:100A9000009007E0FFF766FD0099411A41F28830A7
:100AA000814256D830688007F4D42FB1DBF80010AB
:100AB00021F08051CBF80010A069C8B33949091D55
:100AC0000968C1F3810102294AD00228504607D0A3
:100AD000C8F8600000E03CE0FFF744FD04463BE05E
:100AE0004746C8F86000FFF73DFD064605E000BF39
:100AF000FFF738FD801B02282BD828688001F7D427
:100B0000D4E907010843A16A2A4A490802EB0141D6
:100B1000626A41EA8211084394F82C1040EA0161AC
:100B2000C9F8001001203866FFF71CFD044606E0F6
:100B300036E000BFFFF716FD001B022809D8286821
:100B40008001F7D52CE000BFFFF70CFD001B022849
:100B500002D90320BDE8F88F28688001F4D41FE093
:100B60000128F7D0D9F80000E26900F48001914231
:100B700014D1226A00F03F0191420FD147F6C071B3
:100B8000626A0140914209D1A26A00F44031914267
:100B900004D1E16A00F07060884201D00120D9E7F9
:100BA0000020D7E70438024000004742800E474249
:100BB000007000400000FFFF10B5401EB0F1807FC4
:100BC00001D3012010BD4FF0E02460610F216017B8
:100BD00000F07CFC0020A06107202061002010BDF7
:100BE0007047704770B590F83C20012A2CD0012442
:100BF00080F83C40022280F83D2003685A689D68D6
:100C000022F070060A6832435A60104B02689A421A
:100C10000ED0B2F1804F0BD00D4B9A4208D00D4B45
:100C20009A4205D00C4B9A4202D00C4B9A4204D106
:100C3000496825F080031943916080F83D40002108
:100C400080F83C10084670BD022070BD00000140D5
:100C50000004004000080040000C0040004001403B
:100C600010B5040003D094F83D0010B107E0012056
:100C700010BD002084F83C00204600F00DF8022052
:100C800084F83D00211D206800F08AFB012084F8D3
:100C90003D00002010BD000008B501681048B1F10A
:100CA000804F0BD00F4A914207D1016841F00801F3
:100CB0000160006800F00800009008BD016841F084
:100CC000010101600068002200F00100009011465F
:100CD0001C20FFF7C5FCBDE808401C20FFF7B3BC93
:100CE00040380240000C0040022180F83D100168AD
:100CF0008A6802F00702062A03D00A6842F001025D
:100D00000A60012180F83D10002070470168CA6820
:100D100042F00102CA600068816801F007010629FB
:100D200003D0016841F001010160002070470221F9
:100D300080F83D1001680A6A41F211131A4207D186
:100D40000A6A9B101A4203D10A6822F001020A6063
:100D5000012180F83D10002070470168CA6822F028
:100D60000102CA600068016A41F21112114207D102
:100D7000016A9210114203D1016821F00101016062
:100D80000020704770B5044690F83C00012817D049
:100D9000012584F83C50022084F83D0020688268D8
:100DA00022F0770222F47F4282600868502830D017
:100DB0000DDC20284DD005DC98B310283BD148E04D
:100DC000022070BD302844D0402834D139E060285A
:100DD00028D0702806D0B0F5805F2CD0B0F5005F29
:100DE00029D10AE0CB68D1E90121206800F024FB79
:100DF0002068816841F0770109E0CB68D1E90121E1
:100E0000206800F019FB2068816841F4804181600E
:100E100011E0CA684968206800F020FB5021206872
:100E200007E016E0CA684968206800F028FB6021E6
:100E3000206800F00BFB84F83D50002084F83C0053
:100E400070BDCA684968206800F008FB402120682E
:100E5000EFE7226801461046EBE7704770B504469D
:100E6000006801694FF00005C943890715D4C168BE
:100E7000C943890711D4E91E016101202077206848
:100E800080698007204602D0FFF7E7FF04E000F00A
:100E900098F8204600F096F8257720680169C94344
:100EA000490717D4C168C943490713D46FF0040137
:100EB0000161022020772068806910F4407F20467D
:100EC00002D0FFF7CAFF04E000F07BF8204600F0F4
:100ED00079F8257720680169C943090716D4C168E4
:100EE000C943090712D46FF008010161042020777B
:100EF0002068C0698007204602D0FFF7AEFF04E0FB
:100F000000F05FF8204600F05DF825772068016961
:100F1000C943C90617D4C168C943C90613D46FF0C1
:100F200010010161082020772068C06910F4407F1B
:100F3000204602D0FFF791FF04E000F042F820467F
:100F400000F040F8257720680169C943C90708D136
:100F5000C168C943C90704D1891E0161204600F058
:100F600033F820680169C943090609D4C168C94337
:100F7000090605D46FF0800101612046FFF730FEBD
:100F800020680169C943490609D4C168C9434906B3
:100F900005D46FF040010161204600F031F820686F
:100FA0000169C94389060BD4C168C943890607D4BE
:100FB0006FF0200101612046BDE87040FFF711BECF
:100FC00070BD7047704700000C48C168002914D1FB
:100FD0000168491C0160B1F57A7F0ED14268002199
:100FE000521CC0E900123C2A03D18268521CC0E99D
:100FF00001128268642A00D18160704700000020DD
:101000007047FEE72DE9F0471A4E054600222021E1
:101010003046FFF7A1FA002240213046FFF79CFA44
:10102000DFF8549001244FF6FF774FF4807800BF2B
:1010300005F0010221464846FFF78EFA6D0807EADF
:1010400044044445F4D1012280213046FFF784FA5C
:10105000002000F00AFB002280213046FFF77CFAD6
:10106000042D01D2022000E00120BDE8F04700F08D
:10107000FCBA000000040240000802402DE9F047DD
:10108000184E0546012220213046FFF765FA00225E
:1010900040213046FFF760FADFF84C9001244FF60C
:1010A000FF774FF4807800BF05F0010221464846E3
:1010B000FFF752FA6D0807EA44044445F4D10122CF
:1010C00080213046FFF748FA002000F0CEFA0022D7
:1010D00080213046FFF740FABDE8F047012000F0DC
:1010E000C4BA0000000402400008024010B51E20EF
:1010F00000F0BBFA3020FFF785FF0A2000F0B5FAB8
:101100003020FFF77FFF012000F0AFFA3020FFF71B
:1011100079FF3820FFF776FF0620FFF773FF0120E5
:10112000FFF770FFBDE810400F20FFF76BBF000016
:10113000F0B587B014216846FFF780F82E480024E8
:10114000016841F004010160016801F004010591AA
:10115000016841F0020101600068284E00F00200C1
:1011600005902246FF213046FFF7F6F9244F002272
:10117000E0213846FFF7F0F9FF2000900125CDE986
:101180000154694630460394FFF71CF90C20009087
:101190001C480226CDE9010669463846FFF712F9D8
:1011A000102000901848CDE9010669463846FFF73F
:1011B00009F9E0200090CDE90154694638460394CE
:1011C000FFF700F9002211460820FFF749FA08202E
:1011D000FFF739FA002211460920FFF741FA0920EA
:1011E000FFF731FA002211460A20FFF739FA0A20E8
:1011F000FFF729FA07B0F0BD30380240000802407E
:1012000000040240000021100000311010B586B02B
:1012100000241748009401940294039404944FF01E
:1012200080410594016040F23F61C0E90114092149
:10123000C0E9031480218161FFF712FD08B172B685
:10124000FEE74FF48050009069460948FFF79AFD89
:1012500008B172B6FEE7049404A905480594FFF7A7
:10126000C1FC002801D072B6FEE706B010BD000038
:101270003000002010B586B0002418480094019476
:1012800002940394049414490594016043F67F6129
:10129000C0E9011442F20F71C0E903148021816199
:1012A000FFF7DEFC08B172B6FEE74FF48050009005
:1012B00069460A48FFF766FD08B172B6FEE7049476
:1012C00004A906480594FFF78DFC002801D072B6EA
:1012D000FEE706B010BD0000000C004070000020CA
:1012E000FEE7FEE770477047FFF742B910B592B0CE
:1012F00030216846FEF7A2FF14210CA8FEF79EFFDE
:1013000018480024016841F080510160006800F035
:10131000805011901448016821F4404141F400418B
:1013200001600068069400F4404011900220009093
:1013300001200390102004906846FFF78FFA08B14F
:1013400072B6FEE70F20CDE90C040E940F94002135
:101350000CA81094FFF7B6F9002801D072B6FEE78A
:1013600012B010BD403802400070004005480168CE
:1013700041F47001016003494FF00060803908605A
:101380007047000088ED00E010B50448FFF766FDE7
:10139000BDE810400148FFF717BE000030000020F4
:1013A000F0B502681D4B1E4C9F031E4D1E4E984209
:1013B00007D0B84205D0A04203D0A84201D0B04225
:1013C00004D122F0700C4A6842EA0C02984210D014
:1013D000B8420ED0A0420CD0A8420AD0B04208D0E9
:1013E000124CA04205D0124CA04202D0114CA04297
:1013F00003D122F44074CA6822434C6922F080026F
:10140000224302608A68C2620A688262984201D1FD
:101410000969016301214161F0BD00000000014044
:101420000004004000080040000C00400040014063
:10143000004401400048014010B5846842EA03229C
:1014400024F47F440A432243826010BD826822F064
:1014500070020A4342F007018160704710B5036AC9
:10146000046A24F001040462846924F0F00444EA6C
:10147000021423F00A020A438461026210BD10B50F
:10148000036A23F0100303628369046A23F4704340
:1014900043EA023224F0A00343EA011182610162AF
:1014A00010BDFEE70FB4084B10B504A902AA0398BB
:1014B00000F02CF8044602A9002000F0D1F82046E4
:1014C00010BC5DF814FB0000611600080907090E46
:1014D000002804DB00F1E02080F80014704700F0E1
:1014E0000F0000F1E02080F8141D704702E008C8EA
:1014F000121F08C1002AFAD170477047002001E08E
:1015000001C1121F002AFBD1704700002DE9FF4FD7
:1015100089B09B460446002506E025280BD05A4694
:101520000B999047641C6D1C20780028F5D10DB0F4
:101530002846BDE8F08F0027B8460122474900E061
:10154000074314F8013F203B02FA03F00842F7D1A9
:1015500020782E2819D114F8010F47F004072A2803
:101560000ED06FF02F022078A0F1300109290CD89D
:1015700008EB880102EB410100EB0108641CF2E773
:101580000A98641C50F8048B0A9020780028CED06A
:10159000642808D0692806D075281ED05A460B99B1
:1015A00090476D1C58E00A994FF00A0901C90A9149
:1015B000002802DA40422D2102E0390504D52B2112
:1015C0008DF82010012103E0F90704D02021F7E76E
:1015D0008A4608AE0DE00021FAE70A994FF00A09A1
:1015E00001C90A91F7E74946FEF733FE303106F8A4
:1015F000011D0028F7D1ADEB060000F120097807A6
:1016000001D44FF00108C84502DDA8EB090000E055
:1016100000208046002706E008A85A46C05D0B99C6
:1016200090476D1C7F1C5745F6DB04E030205A467E
:101630000B9990476D1CB8F10001A8F10108F5DC89
:1016400005E016F8010B5A460B9990476D1CB9F14D
:101650000001A9F10109F4DC641C65E70928010017
:101660000A68531C0B601070704740F67B4205E01F
:10167000002100BF491C9142FBDB401E0028F7DC23
:10168000704700009AB0FEF77BFFFFF72FFEFFF7D1
:101690004FFDFFF7BBFDFFF7EDFDFFF727FD5720DF
:1016A000FFF7ECFC4520FFF7E9FC4C20FFF7E6FCD8
:1016B0004320FFF7E3FC4F20FFF7E0FC4D20FFF74E
:1016C000DDFC4520FFF7DAFC2748FFF71FFB264823
:1016D0004030FFF709FB254C01AE00BFD4E9030100
:1016E000084316D10120FFF78DFC20680090D4E953
:1016F00001321FA101A8FFF7D5FE002503E000BFBE
:10170000FFF7BCFC6D1C705D0028F9D1FA20FFF7D3
:10171000ACFF20690128E1D14FF4FA740120FFF7F2
:1017200071FC5420FFF7AAFC5520FFF7A7FC5220BC
:10173000FFF7A4FC4E20FFF7A1FC2020FFF79EFC42
:101740004F20FFF79BFC4620FFF798FC4620FFF751
:1017500095FC2046FFF789FF0120FFF753FC204648
:10176000FFF783FFDAE700003000002000000020D0
:10177000252E32643A252E32643A252E3364000039
:101780000000000000000000010203040607080931
:10179000B01700080000002030000000EC14000822
:1017A000E01700083000002080040000FC1400084E
:1017B0000000000000000000000000000100000028
:1017C0000000000000000000000000000000000019
:1017D0000100000010000000000000000024F400E0
:040000050800019559
:00000001FF
