:020000040800F2
:100000006806002021020008290200082B020008CF
:100010002D0200082F020008310200080000000035
:100020000000000000000000000000003302000893
:1000300035020008000000003702000839020008FD
:100040003B0200083B0200083B0200083B0200089C
:100050003B0200083B0200083B0200083B0200088C
:100060003B0200083B0200083B0200083B0200087C
:100070003B0200083B0200083B0200083B0200086C
:100080003B0200083B0200083B02000800000000A1
:100090000000000000000000000000003B0200081B
:1000A0003B0200083B0200083B0200083B0200083C
:1000B0003B0200083B0200083B0200083B0200082C
:1000C0003B0200083B0200083B0200083B0200081C
:1000D0003B0200083B0200083B0200080000000051
:1000E0003B0200083B0200083B0200080000000041
:1000F0000000000000000000000000003B020008BB
:10010000000000003B0200083B0200083B02000820
:1001100000000000000000000000000000000000DF
:100120003B0200083B0200083B0200083B020008BB
:100130003B0200080000000000000000000000007A
:100140000000000000000000000000003B0200086A
:100150003B0200083B0200083B0200083B0200088B
:100160003B0200083B020008000000000000000005
:10017000000000000000000000000000000000007F
:10018000000000003B02000800000000000000002A
:100190003B02000800F002F800F033F80AA090E8F3
:1001A000000C82448344AAF10107DA4501D100F032
:1001B00028F8AFF2090EBAE80F0013F0010F18BFCC
:1001C000FB1A43F001031847280A0000380A000010
:1001D0000023002400250026103A28BF78C1FBD850
:1001E000520728BF30C148BF0B607047642900F038
:1001F0007F80002070471FB500F0ECFC1FBD10B5DC
:1002000010BD00F02AF91146FFF7F5FF00F0CCF918
:1002100000F048F903B4FFF7F2FF03BC00F050F917
:100220000948804709480047FEE7FEE7FEE7FEE78A
:10023000FEE7FEE7FEE7FEE7FEE7FEE704480549C6
:10024000054A064B70470000690500089501000843
:100250006800002068060020680200206802002074
:100260000FB41CB5074B06AA7B446946009005985D
:1002700000F0DBF80020694600F0EAF81CBC5DF8ED
:1002800014FB0000E50100002DE9F0410E46044694
:10029000002020622046E168884730B3252805D039
:1002A000D4E901219047206A401CF2E7E16820462A
:1002B00000278847050018D0A5F14100192802D869
:1002C00020354FF400673246294620462760FFF765
:1002D0008DFF40B1012804D0F61D26F00706083630
:1002E000D8E7361DD6E72846DAE7206ABDE8F08170
:1002F0002DE9F0410646002410687529314616A5FF
:1003000010D0AFF30080002802DA404213A507E0C6
:1003100031688A0701D512A502E0490704D511A565
:10032000012401E0AFF3008000210A2206F1240736
:1003300009E0B0FBF2FCB0FBF2F302FB1C00303032
:1003400078541846491C0028F3D123462A463046E3
:10035000BDE8F04100F00BB8000000002D000000E7
:100360002B000000200000007047704770472DE907
:10037000F0470D4699469246044600F1240801686C
:10038000880604D5E06921F01001216000E0012019
:10039000A84201DD471B00E00027A1697A1902EBA2
:1003A0000900081AA0612078C00602D42046AFF3E5
:1003B0000080002608E0D4E901211AF806009047E1
:1003C000206A401C761C20624E45F4DB2078C00673
:1003D0000AD52046AFF3008006E0D4E901213020A1
:1003E0009047206A401C2062381EA7F10107F4DC08
:1003F00007E0D4E9012118F805009047206A401C65
:100400002062281EA5F10105F3DC2046AFF3008031
:100410002078000602D50220BDE8F0870120FBE726
:1004200001694A1C02610878704700B58FB0CDE9B8
:1004300001310021059105497944CDE903101146A8
:100440006846FFF721FF0FB000BD0000E5FFFFFF8A
:100450000A6802F8010B0A607047754600F02CF834
:10046000AE4605006946534620F00700854618B0A1
:1004700020B5FFF7E3FEBDE820404FF000064FF047
:1004800000074FF000084FF0000BAC46ACE8C00985
:10049000ACE8C009ACE8C009ACE8C00921F007012C
:1004A0008D46704710B50446AFF300802046BDE886
:1004B0001040FFF7AFBE000000487047000000206A
:1004C00001491820ABBEFEE726000200704700007D
:1004D00043F63000C4F20200016840F6000C41F01F
:1004E000010101604169C4F2020C41F01001416157
:1004F0004FF62401CFF6FF714FF4EE634CF8013054
:100500004FF60001CFF6FF714FF420134CF8013085
:1005100041F20C01C4F2010140F2836341F8043C52
:100520000C230B6000234B608B600A6842F400527E
:100530000A60016841F004010160DCF8001041F438
:100540004061CCF80010416941F48071416142F290
:100550000800C4F201000F210360C1624362016818
:1005600041F00101016070474EF68850CEF2000064
:10057000016841F4700101607047000041F2000120
:10058000C4F201010A681206FCD5C0B24860704787
:100590000128B8BF704700BF40F67B41013900BF5A
:1005A000FCD10138F8DC70479AB042F20805C4F279
:1005B0000105FFF78DFF9FED240B9FED251B5AECE6
:1005C000109B57EC116B0FF2900801AC0AE000BFD2
:1005D0004FF4FA70FFF7DCFF0D20FFF7CFFF0A2082
:1005E000FFF7CCFF00F03AF8286840F08040286020
:1005F00055F8080C8007FBD5686C00F0D6F94A4620
:10060000534600F0E9F932463B4600F047F800F067
:100610009DF9024640F26000C2F2000002602046EE
:100620004146FFF71DFE4FF0000B00BF14F80B0012
:100630000028CDD0FFF7A2FF0BF1010BBBF1650F36
:10064000F4D1C5E700BF00BF0000000000407F40BC
:100650000000000000FEAF402564000080B54C2083
:10066000FFF78CFF4D20FFF789FF3320FFF786FF50
:100670003520FFF783FF5F20FFF780FF5420FFF74F
:100680007DFF4D20FFF77AFF5020FFF777FF3A20DC
:10069000FFF774FF2020FFF771FF80BD2DE9C041F7
:1006A00030B4DFF8A0C23CEA111418BF3CEA1314BE
:1006B00000F0EC801CEA111481EA030544EAD574C9
:1006C00018BF1CEA131500F0C780A4EB050404F161
:1006D0007F7404F500344FF0004545EAC12145EA36
:1006E000C32341EA505143EA52534FEAC0204FEA34
:1006F000C222994208BF904200F09C804FEA1365E5
:100700000FF24016765D4FEA134506FB05F7C7F179
:10071000807706FB07F74FEAD737A7FB03687642D7
:10072000A7FB06CEC8F5803838BFA8F1010807FB43
:1007300008E6A6FB028C4FF0000EE6FB03CEDCF1D0
:10074000000CCEF1004E38BFAEF1010EA6FB0C58E6
:100750004FF00007E6FB0E87A1FB08C6A0FB07CE03
:1007600016EB0E064FF0000545F10005E1FB0765AD
:1007700015F1E04E7EBFA4F580345FEA46066D4178
:1007800016F1800745F100054FEA172747EA05678C
:100790004FEA15254FEA0666A6F1DE46B6F1805F00
:1007A0001FD9384605EBC47124F0010C01EB0C1184
:1007B000BCF1FE6F02D8F0BCBDE8008124425CBFF2
:1007C00001F5801E9EEAC47F02D4F0BCBDE8008122
:1007D000244238D4A1F1C041F0BCBDE8004100F092
:1007E000F3B94FEAD02040EA41504FEAD1214FEA15
:1007F000D22242EA43524FEAD323A7FB028607FBE9
:10080000036605FB02661EEA0E0F58BFA6EB0056F4
:10081000B6EB00564FEA520E4EEAC37E18EB0E0EB0
:1008200056EB530EBDD518EB02085E417F1C55F107
:100830000005B6E74FF480154FF000074FF00006B3
:100840004FF00008ADE701F1C04101F000414FF069
:100850000000F0BCBDE800810CEA131511EA0C1F82
:1008600000D00CE013EA0C1F00F025804FF00000D0
:1008700081EA030101F00041F0BCBDE80081F0BC59
:10088000BDE8004181EA030100F09EB9F0BCBDE87B
:10089000004170B500F04AF9097EFC3E00F007B84F
:1008A0004FF0000081EA030101F00041704781EA46
:1008B000030100F089B9F0BCBDE8004122494FF0C6
:1008C00000007047FFFDFBF9F7F5F4F2F0EEEDEBF9
:1008D000E9E8E6E4E3E1E0DEDDDBDAD8D7D5D4D33E
:1008E000D1D0CFCDCCCBCAC8C7C6C5C4C2C1C0BF8A
:1008F000BEBDBCBBBAB9B8B7B6B5B4B3B2B1B0AF90
:10090000AEADACABAAA9A8A8A7A6A5A4A3A3A2A173
:10091000A09F9F9E9D9C9C9B9A999998979796952E
:1009200095949393929191908F8F8E8E8D8C8C8BCA
:100930008B8A898988888787868585848483838252
:10094000828181800000FF070000F87F4FEA4103A9
:100950004FEA5353A3F58063D3F11E03C8BFD3F10D
:10096000210C0CDD4FF0004242EAC12242EA505213
:1009700032FA03FC8CEAE17CACEBE1707047102B9F
:10098000C4BF0020704703F5787CBCF1FF3F04D062
:100990006FF0004282EA2100704770B500F0C6F89F
:1009A0004992248000207047F2E710F0004248BFCF
:1009B0004042B0FA80F310FA03F10AD0C3F11D03EC
:1009C00003F5806302EB03524FEA415002EBD12161
:1009D00070474FF00000704770B5DFF848C11CEA5F
:1009E000111E1EBF1CEA13159EEA0C0F95EA0C0F90
:1009F00000F06F8081EA03044EEAD47EAE4421EA1F
:100A00004C1123EA4C1341F4801143F48013AEF1EE
:100A10007F7EA1FB024CA0FB0365361955EB0C054C
:100A2000A1FB034C4CF10003A0FB021C16EB0C06CF
:100A3000654153F10003094218BF46F0010613F463
:100A4000007F0BD14FEA03314FEA053041EA1551DF
:100A500040EA165034036FF003020AE04FEAC32164
:100A60004FEAC52041EA555140EA5650F4026FF072
:100A7000020202EB2E4201EB025585EACE710AD04A
:100A80005FEA440C18BF24F0004450F1000041F12B
:100A9000000120EAD47040F2FE7C624500D270BDB5
:100AA000A84214BF4FF080444FF04044002E08BFCE
:100AB0000024BEF1806FA8BFA1F1C041BDE8704025
:100AC00080F2828001F1C04101F000414FF000004E
:100AD00070470CEA13159EEA0C0F18BF95EA0C0F2D
:100AE00006D081EA030E4FF000000EF0004170BD09
:100AF00000F01CF88900013E00F007B800F009B8CA
:100B00004FEA430C5FEA5C5C08D081EA030100F025
:100B10005BB84FEA410C5FEA5C5CF6D102494FF0EA
:100B2000000070470000FF070000F87F0EF1020E82
:100B30002EF0030E5EF8046B364205D4012A43EB17
:100B4000030515F5001F12D8012841EB010C1CF517
:100B5000001F0CD80ED14FEAD17C0CEB4C0C0CF1E1
:100B6000020C15F5001F08BF4CEBD37C04E04FF0DE
:100B7000080C01E04FEAD37C0CEB4C0526FA05F695
:100B800006F00706B6F1040C06D20EEB860CBDE8A3
:100B900070404CF0010C6047DFE80CF0090B0202DA
:100BA0004FF00041A1F500214FF0000070BD194643
:100BB0001046012851EB010418BFD4F5001484BF7E
:100BC000002001F0004170BD0808A0F500114FEAB7
:100BD00031017047F1EE100A4FF6FF71C0F2C031DB
:100BE00020EA010040F04070E1EE100A704700007A
:100BF000000C00080000002068060000D00100087A
:040000050800019559
:00000001FF
