:020000040800F2
:100000004008002035020008F31D0008831B00088B
:10001000F11D0008610700087F21000800000000B2
:100020000000000000000000000000001D1E00088D
:100030007D07000800000000F51D00081F1E0008D5
:100040004F0200084F0200084F0200084F0200084C
:100050004F0200084F0200084F0200084F0200083C
:100060004F0200084F0200084F0200084F0200082C
:100070004F0200084F0200084F0200084F0200081C
:100080004F0200084F0200084F0200080000000065
:100090000000000000000000000000004F02000807
:1000A0004F0200084F0200084F0200084F020008EC
:1000B0004F020008B51E00084F0200084F0200085A
:1000C0004F0200084F0200084F0200084F020008CC
:1000D0004F0200084F0200084F0200080000000015
:1000E0007F0700084F0200084F02000800000000D0
:1000F0000000000000000000000000004F020008A7
:10010000000000004F0200084F0200084F020008E4
:1001100000000000000000000000000000000000DF
:100120004F0200084F0200084F0200084F0200086B
:100130004F02000800000000000000000000000066
:100140000000000000000000000000004F02000856
:100150004F0200084F0200084F0200084F0200083B
:100160004F0200084F0200080000000000000000DD
:10017000000000000000000000000000000000007F
:10018000000000004F020008000000000000000016
:100190004F02000800F002F800F03CF80AA090E8D6
:1001A000000C82448344AAF10107DA4501D100F032
:1001B00031F8AFF2090EBAE80F0013F0010F18BFC3
:1001C000FB1A43F0010318472C2600004C260000C0
:1001D000103A24BF78C878C1FAD8520724BF30C873
:1001E00030C144BF04680C60704700000023002445
:1001F00000250026103A28BF78C1FBD8520728BF37
:1002000030C148BF0B6070471FB502F0E5FA1FBD53
:1002100010B510BD00F0CFF81146FFF7F5FF01F063
:10022000CBFF00F0EDF803B4FFF7F2FF03BC00F0E2
:10023000F5F800000948804709480047FEE7FEE757
:10024000FEE7FEE7FEE7FEE7FEE7FEE7FEE7FEE786
:1002500004480549054A064B70470000A51E0008E2
:1002600095010008400200204008002040040020C2
:100270004004002053EA020C00F069802DE9F04BA5
:100280004FF00006002B1FBFB3FA83F503FA05F405
:1002900024FA05F65E4012BF1643B2FA82F502FA5E
:1002A00005F4C5F120051EBF22FA05FC44EA0C0442
:1002B000203556EA044C4FEA144418BF641C4FF032
:1002C00000084FF00009904271EB030C39D300296C
:1002D00019BFB1FA81F701FA07F6B0FA80F700FA10
:1002E00007F6C7F120071EBF20FA07FC46EA0C06F6
:1002F0002037B6FBF4FCA7EB0507103F07F01F0BF8
:10030000CBF120060CFA0BFB2CFA06F644BFB346E1
:100310000026202FA4BF5E464FF0000B5BEA060CC0
:1003200008BF4FF0010B19EB0B09ABFB027C48EB4C
:100330000608C01B06FB02CC0BFB03CC71EB0C01C7
:10034000C1E70B46024641464846BDE8F08B13B56F
:100350004FF000004FF00001AFF30080BDE81C40FB
:1003600070474FF0000200B5134694469646203978
:1003700022BFA0E80C50A0E80C50B1F12001BFF45E
:10038000F7AF090728BFA0E80C5048BF0CC05DF8C4
:1003900004EB890028BF40F8042B08BF704748BF12
:1003A00020F8022B11F0804F18BF00F8012B704786
:1003B000704770477047754600F02CF8AE46050050
:1003C0006946534620F00700854618B020B5FFF770
:1003D0003FFFBDE820404FF000064FF000074FF010
:1003E00000084FF0000B21F00701AC46ACE8C00953
:1003F000ACE8C009ACE8C009ACE8C0098D4670475C
:1004000010B50446AFF300802046BDE81040FFF76A
:100410000ABF000000487047E00100200149182091
:10042000ABBEFEE72600020070470000464910B54B
:100430004A6822F440324A604A6843681A434A6074
:1004400001684A6822F480724A6001684A68036958
:1004500042EA03224A6001684A6822F040724A6018
:1004600001684A6883681A434A6001688A6822F40E
:1004700000628A6001688A68C3681A438A60816A78
:100480006FF07062D14201688A6822F070628A60FF
:1004900001688A680CD0836A1A438A6001688A6896
:1004A00022F040528A6001688A68C36A1A4301E0F8
:1004B00022F040528A6001688A6822F002028A6053
:1004C00001688A68037E42EA43028A6090F820103D
:1004D000002901684A680FD042F400624A6001684E
:1004E0004A6822F460424A6001684A68174C436ACD
:1004F00004EB43331A4301E022F400624A600168CE
:10050000CA6A22F47002CA620168CA6A838B104CFC
:1005100004EB03531A43CA6201688A6822F400722A
:100520008A6001688A6890F8303042EA43228A6023
:1005300001688A6822F480628A6001688A6840697A
:1005400042EA8020886010BD0023014000E0FFFFE8
:100550000000F0FF1FB50020039002200121CDE92B
:10056000000102906946054800F018F908B172B61A
:10057000FEE7024800F0BBF91FBD0000300000207C
:100580001FB500200390042000900120019002205C
:1005900002906946044800F001F908B172B6FEE71E
:1005A000014800F0A4F91FBD3000002010B56B4CCD
:1005B0000A2875D2DFE800F00520283E637582899D
:1005C000A4BF01221146204600F0D2FB01220221E5
:1005D000204600F0CDFB01220421204600F0C8FB9C
:1005E00001220821204600F0C3FB012210212046F1
:1005F00000F0BEFB012201E0002267E0202120463E
:1006000000F0B6FB002234E001221146204600F043
:10061000AFFB01220221204600F0AAFB00220421A8
:10062000204600F0A5FB01220821204600F0A0FB97
:10063000012214E001221146204600F099FB01221C
:100640000221204600F094FB01220421204600F004
:100650008FFB01220821204600F08AFB0022102196
:10066000204600F085FB00222021204600F080FB80
:1006700001222046BDE81040402100F079BB002255
:100680000121204600F074FB01220221204600F0E7
:100690006FFB01220421204600F06AFB002207E0E4
:1006A0005AE001221146204600F062FB002248E099
:1006B0000821204600F05CFB002236E001221146B2
:1006C000204600F055FB002220E0012201212046B7
:1006D00000F04EFB01220221204600F049FB0122DE
:1006E0000421204600F044FB00220821204600F0AF
:1006F0003FFB00221021204600F03AFB00227DE75C
:1007000001221146204600F033FB0122022120463F
:1007100000F02EFB01220421204600F029FB0122DB
:100720000821204600F024FB01221021204600F081
:100730001FFB012298E701221146204600F018FB1A
:1007400001220221204600F013FB01220421204651
:1007500000F00EFB0122ABE710BD000000040240D8
:10076000FEE70000034901EB001003494042086026
:100770007047000001F0FFFF14080240704710B5F9
:100780004FF4805000F0F8F94FF4005000F0F4F905
:10079000BDE810404FF4804000F0EEB978B5002479
:1007A000009490F83C20012A19D0012280F83C20C6
:1007B0000A6807230568092A13D9EE680A3A02EB8A
:1007C000420293409E43EE600B788A680A3B03EB3B
:1007D00043039A400368DD682A43DA6010E0022090
:1007E00078BD2E6902EB420293409E432E610B7846
:1007F0008A6803EB43039A4003681D692A431A6120
:100800004A681F23072A13D205686E6B521E02EB3B
:10081000820293409E436E630B790A885B1E92B2FC
:1008200003EB83039A4003685D6B2A435A6327E016
:1008300005680D2A12D22E6BD21F02EB8202934062
:100840009E432E630B790A88DB1F92B203EB83036E
:100850009A4003681D6B2A431A6311E0EE6A0D3A51
:1008600002EB820293409E43EE620B790A880D3BB5
:1008700092B203EB83039A400368DD6A2A43DA628B
:10088000164B0568144A9D4206D10D68122D03D1FE
:10089000556845F48005556005689D4218D10B6880
:1008A000102B01D0112B13D1536843F40003536074
:1008B000096810290CD10A490A4A0968B1FBF2F10A
:1008C00001EB8101490000E0491E00910029FBD1A4
:1008D00080F83C40002078BD00230140002001400A
:1008E0002C00002040420F000068C06C704770B5BB
:1008F00004004FF0000503D0206C002610B107E083
:10090000012070BD204600F01DF8666484F83C604C
:10091000206CC00610D4206C20F4885040F00200F7
:1009200020642046FFF782FD6664206C20F0020000
:1009300040F00100206400E0012584F83C60284676
:1009400070BD000010B586B0044614216846FFF75C
:1009500008FD1149206888421CD110480021026816
:1009600042F480720260006800F4807005900B48C9
:100970001438026842F001020260006800F00100D1
:100980000590142000900320CDE901016946044838
:1009900000F0FEF806B010BD0020014044380240CF
:1009A000000002402DE9F041044600680D468168D0
:1009B0004FF0000749050BD58068C00508D5206CAD
:1009C00040F02000206484F83C700120BDE8F081F4
:1009D00000F0D4F9064613E0681C11D025B100F0F0
:1009E000CDF9801BA8420BD920680068800707D486
:1009F000206C40F00400206484F83C700320E5E79C
:100A0000206800688007E7D521686FF01200086051
:100A1000206C40F4007020642068816811F0405F11
:100A200013D1217E89B9C16A11F4700F02D0806898
:100A300040050AD4206C20F480702064206CC0042F
:100A400003D4206C40F0010020640020BEE70000C9
:100A500018B50021009190F83C20012A07D001220E
:100A600080F83C2002689368DB0702D011E0022086
:100A700018BD936843F001039360244A244B126825
:100A8000B2FBF3F202EB420200E0521E0092002A97
:100A9000FBD102689368DB072ED0036C40F201643F
:100AA000A34343F48073036453685B0505D5036C6B
:100AB00023F4005343F480530364036CDB0404D534
:100AC000436C23F00603436400E0416480F83C106B
:100AD00010496FF02203136049680068C90602D00C
:100AE0000D49884210D1816811F0405F0CD18168B6
:100AF00041F08041816007E0016C41F01001016428
:100B0000416C41F001014164002018BD2C0000201F
:100B100040420F00002301400020014030B413493F
:100B2000002201240B68B0F5805F10D0B0F5804F33
:100B300010D0B0F5005F0BD1032B09D10A208C61D6
:100B40000860012230BC1102094800F011B923B13C
:100B500030BC7047B3F5CA7FFAD1C1E900428A6060
:100B6000CA600A6130BC034800F0DEBC000000200F
:100B7000000402402C010020044910B50A6802421A
:100B800002D00860FFF7CAFF10BD0000143C01400E
:100B90002DE9F84FDFF8B8A1002201240AF1040B77
:100BA00003254FF00F090BF1040E00BF0B6804FA88
:100BB00002F63340B34273D10F7907F00307012FD8
:100BC00001D0022F16D187684FEA420805FA08FCC7
:100BD00027EA0C07D1F80CC00CFA08FC4CEA070C09
:100BE000C0F808C04768B7430E79C6F300169640B0
:100BF0003E4346600E79F643B6070DD0C7685600EF
:100C000005FA06FC27EA0C07D1F808C00CFA06FC26
:100C10004CEA070CC0F80CC00E7906F00306022E51
:100C200010D1D60800EB8608D8F8206057074FEAA5
:100C3000D76C09FA0CF7BE430F6907FA0CF7374374
:100C4000C8F8207006684FEA420C05FA0CF7BE435C
:100C50000F7907F0030707FA0CF7374307604E6870
:100C600016F4403F6DD03B4E376847F480473760FD
:100C7000366822F0030706F480460096364E07EBEE
:100C8000060CDCF8086897073F0F09FA07F826EA10
:100C90000806DFF8C880404503D14FF000081EE089
:100CA0004FE0DFF8BC80404502D14FF0010816E06C
:100CB000DFF8B080404502D14FF002080FE0DFF8C6
:100CC000A880404502D14FF0030808E0DFF89C807F
:100CD000404502D14FF0040801E04FF0070808FA40
:100CE00007F848EA0608CCF80888DAF800605746A2
:100CF000D1F804C09E435FEACC3C00D51E433E6061
:100D0000DBF800605F46D1F804C09E435FEA8C3C8C
:100D100000D51E433E60DEF800607746D1F804C07F
:100D20009E435FEACC2C00D51E433E60084F0C3733
:100D30003E68D1F804C09E435FEA8C2C00D51E4368
:100D40003E60521C102AFFF431AFBDE8F88F00005E
:100D5000003C0140443802400030014000000240A5
:100D60000004024000080240000C02400010024053
:100D70000AB1816170470904FBE7000001488068FF
:100D8000704700002000002002488168027811446A
:100D900081607047200000200B4810B5016841F4C5
:100DA00000710160016841F480610160016841F4F3
:100DB00080710160032000F06FF80F2000F006F84A
:100DC00000F024F8002010BD003C024070B50D4D2D
:100DD00004464FF47A712878B1FBF0F00A490968AB
:100DE000B1FBF0F000F0ECFA48B9102C07D2002269
:100DF0002146501E00F030F800206C6070BD0120CC
:100E000070BD0000200000202C0000200A4808B51A
:100E1000016841F480410160006800F48040009066
:100E20000548001F016841F080510160006800F032
:100E30008050009008BD000044380240002809DBC3
:100E400000F01F02012191404009800000F1E020E4
:100E5000C0F8001170470000F0B40E4B1B680C4640
:100E6000C3F30223C3F10705042D00D90425191D7E
:100E7000072901D2002300E0DB1E012606FA05F156
:100E8000491E214099409E40761E16403143F0BCD9
:100E900001F076B90CED00E0064900F007020868A1
:100EA0004FF6FF03184040EA0220034A104308604F
:100EB000704700000CED00E00000FA052DE9F04756
:100EC0000E46050065D0DFF81481D8F80000F7B2AF
:100ED00000F00700B04207D288F80070D8F8000090
:100EE00000F00700B04254D128683D4C810712D56C
:100EF000400703D5206840F4E050206028780007C0
:100F000003D5206840F4604020602068A96820F084
:100F1000F000084320602878C0072DD03049686869
:100F20000839012812D0022813D0032811D00968EB
:100F3000890700292DDA216821F00301014321608E
:100F4000FFF71CFF814641F2883A0EE009688903E9
:100F5000EFE709688901ECE7FFF710FFA0EB090153
:100F6000514502D90320BDE8F0872068696800F088
:100F70000C00B0EB810FEFD1D8F80010404601F023
:100F80000701B14207D90770006800F00700B042BE
:100F900001D00120E7E72878400705D52068E968F7
:100FA00020F4E050084320602878000706D5206828
:100FB000296920F4604040EAC100206000F018F880
:100FC0002168084AC1F30311515CC8400649086012
:100FD00006480068FFF7FAFE0020C4E7003C024024
:100FE00008380240E22700082C00002024000020DE
:100FF000154810B5006810F00C02144813D01449BD
:10100000042A0FD0082A0ED10F4C241F226823680F
:1010100002F03F025B0207D52068C0F38810A0FBF6
:10102000010106E0084610BD2168C1F38811A1FB4B
:1010300000010023FFF71EF92168C1F30141491C9B
:101040004900B0FBF1F010BD083802400024F40064
:1010500040787D012DE9F84F04006ED02078DFF84C
:101060004C93C007A9F104054AD009F104000168B6
:10107000C1F38101012908D00068C0F38100022872
:101080000AD1D9F80000400206D52868800337D578
:1010900060680028E1D033E06068B0F5803F10D090
:1010A000B0F5A02F286810D020F480302860286880
:1010B00020F4802028606068A8B1FFF75FFE064634
:1010C0000DE0286840F48030F4E740F48020286088
:1010D000F7E700BFFFF752FE801B642873D828682B
:1010E0008003F7D50CE0FFF749FE064605E000BF98
:1010F000FFF744FE801B6428F0D828688003F7D4EB
:101100002078DFF8AC8280074FF0000A3ED5A74870
:10111000001D016811F00C0F08D00068C0F38100B9
:1011200002280BD1D9F80000400207D428688007B4
:1011300016D5E068012800D112E033E1E068B8B1CB
:101140000120C8F80000FFF719FE064605E000BFC1
:10115000FFF714FE801B0228C0D828688007F7D547
:101160002868216920F0F80040EAC10028600DE0FD
:10117000C8F800A0FFF702FE064604E0FFF7FEFDF8
:10118000801B02281FD828688007F7D42078000722
:1011900022D5864F87486169703771B1012101609E
:1011A000FFF7ECFD064604E0FFF7E8FD801B022890
:1011B00009D838688007F7D50EE0C0F800A0FFF71F
:1011C000DDFD064605E082E0FFF7D8FD801B022822
:1011D0007DD838688007F7D42078400768D5DFF8D5
:1011E000CCB100270BF13C0BDBF80000C0000BD4A6
:1011F000DBF8001041F08051CBF80010DBF8000064
:10120000012700F0805000906B4E3068C00510D46C
:10121000306840F480703060FFF7B0FD009005E06A
:10122000FFF7ACFD0099401A022850D83068C0057D
:10123000F6D55E4EA0686C3601280FD005283068C0
:1012400010D020F001003060306820F004003060E1
:10125000A068B8B1FFF792FD00900FE0306840F051
:101260000100F4E740F004003060F7E7FFF786FD87
:101270000099411A41F28830814266D8306880076F
:10128000F4D50EE0FFF77AFD009007E0FFF776FD5A
:101290000099411A41F28830814256D8306880075F
:1012A000F4D42FB1DBF8001021F08051CBF80010FE
:1012B000A069C8B33D49091D0968C1F3810102292C
:1012C0004AD00228504607D0C8F8600000E03CE051
:1012D000FFF754FD04463BE04746C8F86000FFF7BF
:1012E0004DFD064605E000BFFFF748FD801B0228C4
:1012F0002BD828688001F7D4D4E907010843A16AF4
:101300002E4A490802EB0141626A41EA8211084310
:1013100094F82C1040EA0161C9F8001001203866E9
:10132000FFF72CFD044606E03EE000BFFFF726FD78
:10133000001B022809D828688001F7D534E000BFD7
:10134000FFF71CFD001B022802D90320BDE8F88F1F
:1013500028688001F4D427E00128F7D0D9F80000EC
:10136000E26900F4800191421CD1226A00F03F0141
:10137000914217D147F6C071626A0140B1EB821FFA
:1013800010D1A26A4FF0FF3300F4403103EB520258
:10139000B1EB024F06D194F82C1000F07060B0EB66
:1013A000016F01D00120D1E70020CFE704380240CF
:1013B00000004742800E4742007000400000FFFFDF
:1013C00010B5401EB0F1807F01D3012010BD4FF059
:1013D000E02460610F21601700F0D2FE0020A061C0
:1013E00007202061002010BD704770477047000043
:1013F00070B590F83C20012A2CD0012480F83C40A4
:10140000022280F83D2003685A689D6822F0700629
:101410000A6832435A60104B02689A420ED0B2F109
:10142000804F0BD00D4B9A4208D00D4B9A4205D0FD
:101430000C4B9A4202D00C4B9A4204D1496825F0D9
:1014400080031943916080F83D40002180F83C10F2
:10145000084670BD022070BD00000140000400403D
:1014600000080040000C00400040014010B504009E
:1014700003D094F83D0010B10EE0012010BD002013
:1014800084F83C00204600F021FEA06C08B9114809
:10149000A064014620468847022084F83D00211DB3
:1014A000206800F013FD012084F8460084F83E0017
:1014B00084F83F0084F8400084F8410084F842003A
:1014C00084F8430084F8440084F8450084F83D0023
:1014D000002010BDD914000808B501681048B1F10A
:1014E000804F14D00F4A914219D1016841F0020196
:1014F00001600068002200F00200009011461D20EB
:10150000FFF7AAFCBDE808401D20FFF797BC016863
:1015100041F001010160006800F00100009008BD89
:10152000403802400004004090F83D10012901D0ED
:1015300001207047022180F83D100168CA6842F01E
:101540000102CA6000680E4988420ED0B0F1804F97
:101550000BD00C49884208D00B49884205D00B4972
:10156000884202D00A49884204D1816801F007010B
:10157000062903D0016841F0010101600020704795
:10158000000001400004004000080040000C004042
:10159000004001400168CA6822F00102CA60016887
:1015A0000A6A41F211131A4207D10A6A9B101A42C1
:1015B00003D10A6822F001020A60012180F83D107F
:1015C0000020704770B5044690F83C0000250128C3
:1015D00017D0012684F83C60022084F83D00206882
:1015E000826822F0770222F47F42826008685028E5
:1015F00038D00DDC20284FD005DC90B3102811D155
:101600004AE0022070BD302846D040280AD13BE095
:1016100060282FD070280DD0B0F5805F03D0B0F5D2
:10162000005F12D0012584F83D60002084F83C0062
:10163000284670BDCB68D1E90121206800F092FCFA
:101640002068816841F0770109E0CB68D1E9012188
:10165000206800F087FC2068816841F48041816047
:10166000E1E719E0CA684968206800F065FD50218B
:10167000206806E0CA684968206800F06EFD6021B5
:10168000206800F079FCCEE7CA684968206800F05D
:1016900053FD40212068F4E7226801461046F0E738
:1016A00070477047704770B50446006801694FF095
:1016B0000005C943890717D4C168C943890713D4F2
:1016C000E91E01610120207720688069800702D02F
:1016D000D4F8901005E0D4F8981020468847D4F844
:1016E0009C1020468847257720680169C94349072F
:1016F00019D4C168C943490715D46FF004010161C9
:10170000022020772068806910F4407F02D0D4F84E
:10171000901005E0D4F8981020468847D4F89C1023
:1017200020468847257720680169C943090718D4EE
:10173000C168C943090714D46FF00801016104208E
:1017400020772068C069800702D0D4F8901005E0A7
:10175000D4F8981020468847D4F89C102046884733
:10176000257720680169C943C90619D4C168C943EE
:10177000C90615D46FF01001016108202077206898
:10178000C06910F4407F02D0D4F8901005E0D4F87E
:10179000981020468847D4F89C1020468847257723
:1017A00020680169C943C90709D1C168C943C9078C
:1017B00005D1891E0161D4F8801020468847206831
:1017C0000169C94309060AD4C168C943090606D498
:1017D0006FF080010161D4F8B0102046884720687E
:1017E0000169C94349060AD4C168C943490606D4F8
:1017F0006FF040010161D4F88810204688472068C6
:101800000169C94389060CD4C168C943890608D453
:101810006FF0200101612046D4F8A810BDE87040A7
:10182000084770BD10B586B0044614216846FEF71F
:1018300098FD2068B0F1804F14D10B480021026858
:1018400042F0010202600068022200F001000590EF
:1018500001200090CDE90121CDE90310694603483C
:10186000FFF796F906B010BD303802400000024084
:10187000704770B5044690F83C0000260D460128DC
:101880000FD0012084F83C006AB1042A1DD0082A38
:101890002FD00C2A3FD00126002084F83C0030468F
:1018A00070BD022070BD206800F06EFB2068816969
:1018B00041F0080181612068816921F004018161A2
:1018C000206881692A69114311E0206800F084FBD7
:1018D0002068816941F4006181612068816921F497
:1018E00080618161206881692A6941EA0221816100
:1018F000D2E7206800F09CFB2068C16941F0080134
:10190000C1612068C16921F00401C1612068C16919
:101910002A69114311E0206800F0B6FB2068C16914
:1019200041F40061C1612068C16921F48061C16135
:101930002068C1692A6941EA0221C161ACE700005F
:1019400010B5040003D094F83D0010B10EE0012062
:1019500010BD002084F83C00204600F0B7FB206E4C
:1019600008B911482066014620468847022084F8BD
:101970003D00211D206800F0A9FA012084F84600EE
:1019800084F83E0084F83F0084F8400084F8410069
:1019900084F8420084F8430084F8440084F8450049
:1019A00084F83D00002010BDAD1900087047704755
:1019B000704700002DE9F05F00686C49884273D1E0
:1019C0006B4C6C4E002521684FF002084FF4007AF2
:1019D0004FF480794FF4806B01290FD04FF4CA7710
:1019E00003291ED040F29A200A2938D0814273D1AF
:1019F000606919285ADA401C60616DE0206902288C
:101A000003DA401C0122206106E0042802DA401CAF
:101A1000206100E02561002251463046FFF7A8F919
:101A20005AE02069022803DA401C0122206106E006
:101A3000042802DA401C206100E0256100224946AA
:101A40003046FFF795F96069401C6061192843DB57
:101A5000A06950B301283FD16561A5613CE0E1690F
:101A6000002902DD491EE16136E0E168642723298F
:101A700007DD2060002249463046FFF779F96561AD
:101A800010E0002249463046C4F80080FFF770F9A4
:101A9000002251463046FFF76BF901225946304685
:101AA000FFF766F9E76117E023E0FFE700F0ACFB22
:101AB000002249463046FFF75BF900225146304686
:101AC000FFF756F9002259463046FFF751F92A48E8
:101AD000FFF760FD27606561FEF73CFD60680A283E
:101AE00009DA00F04FF8A1680844A0606068401C63
:101AF0006060BDE8F09FA0680A2190FBF1F0C4E9A6
:101B00000250656021680A29F3D023280EDC0022E8
:101B1000494630462561FFF72BF9002251463046F1
:101B2000FFF726F90122C4F800800BE02E284FF0C1
:101B30000002256108DB51463046FFF719F9032002
:101B40000022206059460CE049463046FFF710F964
:101B5000002259463046FFF70BF904200122514676
:101B600020603046BDE8F05FFFF702B90004004096
:101B700000000020000402402C0100207047704744
:101B80007047FEE710B50E48FEF762FF01210C48D2
:101B9000FEF708FF0A48FEF7A7FE80B200F00BFD33
:101BA0009FED081B53EC112B00F018FD9FED071B58
:101BB00053EC112B00F07AFB00F0D0FC80B210BD8A
:101BC000300000200000000000407F4000000000C6
:101BD00000FEAF401FB50021144800910191029111
:101BE000114A0391C0E9002181600161017680F80A
:101BF00020100F4AC0E90A210124C461C16080F8A5
:101C000030104461FEF773FE08B172B6FEE70220A1
:101C1000CDE90004029069460448FEF7BFFD0028A4
:101C200001D072B6FEE71FBD002001403000002049
:101C30000100000F2DE9F04186B014216846FEF73F
:101C400090FB29480024016841F00401016001680B
:101C500001F004010591016841F001010160016892
:101C600001F001010591016841F002010160006885
:101C70001E4F00F002004FF6FF7505900022294626
:101C80003846FFF775F8DFF868806E11002231469C
:101C90004046FFF76DF800950125CDE901546946EE
:101CA00038460394FEF774FF0096CDE90154694667
:101CB00040460394FEF76CFF4FF4E04000904FF471
:101CC000881001900220029069464046FEF760FFAE
:101CD000002211462820FFF7BFF82820FFF7AEF8B2
:101CE00006B0BDE8F0810000303802400008024034
:101CF0000004024010B58EB00024079408940994A3
:101D00000A940B941C2168460C94FEF72AFB1D488C
:101D10004FF08041C0E90014611EC0E90241046136
:101D20008461FFF7A3FB08B172B6FEE74FF4805061
:101D3000079007A91348FFF745FC08B172B6FEE704
:101D40001048FFF7FDFD08B172B6FEE70B940BA932
:101D50000C480C94FFF74CFB08B172B6FEE760200C
:101D6000CDE9000402940022694606480494FFF776
:101D700080FD08B172B6FEE70248FFF753FD0EB0D2
:101D800010BD00007800002010B586B00024174870
:101D900000940194029403940494134905940160FF
:101DA00043F67F61C0E901141321C0E90314846183
:101DB000FFF75CFB08B172B6FEE74FF4805000906D
:101DC00069460A48FFF7FEFB08B172B6FEE70494C5
:101DD00004A906480594FFF70BFB002801D072B652
:101DE000FEE706B010BD0000000400402C010020FA
:101DF000FEE7FEE77047000010B572B60648FEF732
:101E000027FE01210448FEF7CDFD0348FEF76CFDD7
:101E100080B262B610BD0000300000207047FEF7AF
:101E2000B3BF000010B592B030216846FEF799FAB2
:101E300014210CA8FEF795FA18480024016841F017
:101E400080510160006800F08050119014480168D2
:101E500021F4404141F4004101600068069400F41F
:101E60004040119002200090012003901020049027
:101E70006846FFF7EFF808B172B6FEE70F20CDE92C
:101E80000C040E940F9400210CA81094FFF716F880
:101E9000002801D072B6FEE712B010BD40380240F3
:101EA000007000400248016841F470010160704711
:101EB00088ED00E010B50448FFF7F5FBBDE81040E1
:101EC0000148FFF777BD00002C010020F0B5026843
:101ED0001D4B1E4C9F031E4D1E4E984207D0B8420C
:101EE00005D0A04203D0A84201D0B04204D122F0D4
:101EF000700C4A6842EA0C02984210D0B8420ED0E8
:101F0000A0420CD0A8420AD0B04208D0124CA04245
:101F100005D0124CA04202D0114CA04203D122F4B1
:101F20004074CA6822434C6922F080022243026056
:101F30008A68C2620A688262984201D109690163B3
:101F400001214161F0BD000000000140000400409B
:101F500000080040000C00400040014000440140E7
:101F60000048014010B5846842EA032224F47F440B
:101F70000A432243826010BD826822F070020A4345
:101F800042F007018160704730B5026A22F0010219
:101F90000262026A4368846924F073050C682C436A
:101FA00022F002058A682A430A4DA8420BD122F08A
:101FB0000805CA6823F440732A434D6922F00402DD
:101FC0001D438B692B43436084614968416302620E
:101FD00030BD00000000014030B5026A22F010025E
:101FE0000262026A436884690D6824F4E64444EAA4
:101FF00005248D6822F0200242EA05120B4DA8420A
:102000000ED1CD6822F0800242EA05124D6923F418
:10201000406343EA85038D6922F0400243EA850369
:102020004360846149688163026230BD0000014001
:1020300030B5026A22F480720262036A4268C4699F
:1020400023F4007324F073050C682C438D6843EA75
:1020500005230C4DA8420ED1CD6823F4006343EA5A
:1020600005234D6922F4405242EA05128D6923F49A
:10207000806342EA05124260C4614968C163036239
:1020800030BD00000000014030B5026A22F48052E9
:102090000262046A4268C3690D6823F4E64343EAB6
:1020A00005238D6824F4005444EA0534064DA84203
:1020B00004D14D6922F4804242EA85124260C36134
:1020C00049680164046230BD000001400D4940F8D8
:1020D000801F0D4941600D4981600D49C1600D4966
:1020E00001610D4941610D4981610D49C1610D4990
:1020F00001620D4941620D4981620D49C1620D497C
:1021000001637047B51900087D1B00087F1B00089C
:10211000811B0008A3160008A51600087118000806
:10212000AF190008B1190008A1160008EB13000848
:10213000ED130008E913000810B5036A046A24F0DF
:1021400001040462846924F0F00444EA021423F0D8
:102150000A020A438461026210BD10B5036A23F0CB
:10216000100303628369046A23F4704343EA023272
:1021700024F0A00343EA01118261016210BDFEE771
:102180000907090E002804DB00F1E02080F80014A4
:10219000704700F00F0000F1E02080F8141D704738
:1021A00040F67B4205E0002100BF491C9142FBDB69
:1021B000401E0028F7DC7047FEF7EEFDFFF732FE09
:1021C000FFF738FDFFF706FDFFF794FDFFF7DCFD95
:1021D0000C4C4FF4CA75A08980B200F03FF820681B
:1021E000022801D0042807D172B6FEF7C9F9FFF71B
:1021F00003FEFEF7B7FA62B62068A842EBD100F002
:1022000003F8E8E70000002010B5134C002201217C
:102210002046FEF7ADFD002202212046FEF7A8FD74
:10222000002204212046FEF7A3FD002208212046BB
:10223000FEF79EFD002210212046FEF799FD0022A8
:1022400020212046FEF794FD20460022BDE81040E4
:102250004021FEF78DBD0000000402400A2170B548
:10226000B0FBF1F2B0FBF1F401FB1205FFF7CCFF7C
:102270000D4E012280213046FEF77AFD2046FEF702
:1022800095F90120FFF78CFFFFF7BEFF00228021A8
:102290003046FEF76DFD2846FEF788F9BDE8704030
:1022A0000120FFF77DBF0000000402402DE9C0417E
:1022B00030B4DFF8A0C23CEA111418BF3CEA131492
:1022C00000F0EC8081EA03051CEA111444EAD5749D
:1022D00018BF1CEA131500F0C780A4EB05044FF0EB
:1022E000004545EAC12145EAC32341EA505143EA8A
:1022F000525304F17F74994204F500344FEAC02030
:102300004FEAC22208BF904200F09C804FEA13655A
:102310000FF24016765D4FEA134506FB05F7C7F14D
:10232000807706FB07F74FEAD737A7FB03687642AB
:10233000C8F58038A7FB06CE38BFA8F1010807FB17
:1023400008E64FF0000EA6FB028CE6FB03CEDCF1A4
:10235000000CCEF1004E38BFAEF1010EA6FB0C58BA
:102360004FF000074FF00005E6FB0E87A1FB08C603
:10237000A0FB07CE16EB0E0645F10005E1FB076555
:1023800015F1E04E7EBFA4F580345FEA46066D414C
:1023900016F1800745F100054FEA17274FEA066658
:1023A00047EA0567A6F1DE46B6F1805F4FEA1525DC
:1023B0001FD9384624F0010C05EBC471BCF1FE6F47
:1023C00001EB0C1102D8F0BCBDE8008124425CBFD7
:1023D00001F5801E9EEAC47F02D4F0BCBDE80081F6
:1023E000244238D4F0BCA1F1C041BDE8004100F066
:1023F000EDB94FEAD22242EA43524FEAD323A7FB78
:1024000002864FEAD02040EA415007FB03661EEAED
:102410000E0F4FEAD12105FB026658BFA6EB00560E
:10242000B6EB00564FEA520E4EEAC37E18EB0E0E84
:1024300056EB530EBDD518EB02085E417F1C55F1DB
:102440000005B6E74FF480154FF000074FF0000687
:102450004FF00008ADE7F0BC4FF0000001F1C041C3
:1024600001F00041BDE8008111EA0C1F0CEA1315D0
:1024700000D00CE013EA0C1F00F025804FF00000A4
:10248000F0BC81EA030101F00041BDE80081F0BC2D
:10249000BDE8004181EA030100F098B9F0BCBDE855
:1024A000004170B500F044F9097EFC3E00F007B829
:1024B00081EA03014FF0000001F00041704781EA1A
:1024C000030100F083B9F0BCBDE800414FF000000B
:1024D00021497047FFFDFBF9F7F5F4F2F0EEEDEB63
:1024E000E9E8E6E4E3E1E0DEDDDBDAD8D7D5D4D312
:1024F000D1D0CFCDCCCBCAC8C7C6C5C4C2C1C0BF5E
:10250000BEBDBCBBBAB9B8B7B6B5B4B3B2B1B0AF63
:10251000AEADACABAAA9A8A8A7A6A5A4A3A3A2A147
:10252000A09F9F9E9D9C9C9B9A9999989797969502
:1025300095949393929191908F8F8E8E8D8C8C8B9E
:102540008B8A898988888787868585848483838226
:10255000828181800000FF070000F87F4FEA11535D
:10256000A3F58063D3F11E03A8BFD3F1200C08DBD1
:102570004FF0004242EAC12252EA505232FA03F0CE
:10258000704709420BD4102BC4BF0020704703F5DD
:10259000787CBCF1FF3F05D04FF0FF3070474FF023
:1025A0000000704770B500F0C3F800BF4992248066
:1025B00000207047F0E7B0FA80F310FA03F10AD078
:1025C000C3F11D0303F580634FEA41504FEA035204
:1025D00002EBD12170474FF000007047DFF848C18F
:1025E00070B51CEA111E1EBF1CEA13159EEA0C0FE3
:1025F00095EA0C0F00F06F8081EA030423EA4C1384
:102600004EEAD47E21EA4C1141F4801143F4801348
:10261000AE44A1FB024CA0FB0365AEF17F7E3619F0
:1026200055EB0C05A1FB034C4CF10003A0FB021C75
:1026300016EB0C06654153F10003094218BF46F042
:10264000010613F4007F0BD14FEA03314FEA053046
:10265000340341EA155140EA16506FF003020AE0D4
:102660004FEAC3214FEAC520F40241EA555140EA3E
:1026700056506FF0020202EB2E4201EB025585EA42
:10268000CE710AD05FEA440C18BF24F0004450F128
:10269000000041F1000120EAD47040F2FE7C624566
:1026A00000D270BDA84214BF4FF080444FF04044A8
:1026B000002E08BF0024BEF1806FA8BFA1F1C04169
:1026C000BDE8704080F282804FF0000001F1C0410F
:1026D00001F0004170479EEA0C0F0CEA131518BF79
:1026E00095EA0C0F06D04FF0000081EA030E0EF0C1
:1026F000004170BD00F01CF88900013E00F007B8F1
:1027000000F009B84FEA430C5FEA5C5C08D081EA4C
:10271000030100F05BB84FEA410C5FEA5C5CF6D164
:102720004FF00000014970470000FF070000F87FEC
:102730000EF1020E2EF0030E5EF8046B364205D445
:10274000012A43EB030515F5001F12D8012841EBC0
:10275000010C1CF5001F0CD80ED14FEAD17C15F5E9
:10276000001F0CEB4C0C0CF1020C08BF4CEBD37CA3
:1027700004E04FF0080C01E04FEAD37C0CEB4C0571
:1027800026FA05F606F00706B6F1040C06D20EEBA3
:10279000860CBDE870404CF0010C6047DFE80CF09F
:1027A000090B02024FF000414FF00000A1F500219B
:1027B00070BD19461046012851EB010418BFD4F52D
:1027C000001484BF002001F0004170BD0808A0F58E
:1027D00000114FEA310170474FF04070E1EE100AEE
:1027E000704700000000000000000102030406071B
:1027F0000809000014280008000000203000000034
:10280000D001000844280008300000201008000013
:10281000EC010008000000000000000000000000C3
:1028200000000000000000000000000000000000A8
:102830006400000001000000100000000000000023
:042840000024F4007C
:040000050800019559
:00000001FF
